{
	"contracts/bc class/array.sol": {
		"arraySample": {
			"abi": [
				{
					"inputs": [
						{
							"internalType": "uint8",
							"name": "_index",
							"type": "uint8"
						}
					],
					"name": "getData",
					"outputs": [
						{
							"internalType": "uint8",
							"name": "",
							"type": "uint8"
						}
					],
					"stateMutability": "view",
					"type": "function"
				},
				{
					"inputs": [
						{
							"internalType": "uint256",
							"name": "_index",
							"type": "uint256"
						}
					],
					"name": "getPhone",
					"outputs": [
						{
							"internalType": "uint256",
							"name": "",
							"type": "uint256"
						}
					],
					"stateMutability": "view",
					"type": "function"
				},
				{
					"inputs": [
						{
							"internalType": "uint8",
							"name": "_index",
							"type": "uint8"
						},
						{
							"internalType": "uint8",
							"name": "_value",
							"type": "uint8"
						}
					],
					"name": "setData",
					"outputs": [],
					"stateMutability": "nonpayable",
					"type": "function"
				},
				{
					"inputs": [
						{
							"internalType": "uint256",
							"name": "_phoneno",
							"type": "uint256"
						}
					],
					"name": "setDynamicArray",
					"outputs": [],
					"stateMutability": "nonpayable",
					"type": "function"
				}
			],
			"devdoc": {
				"kind": "dev",
				"methods": {},
				"version": 1
			},
			"evm": {
				"assembly": "    /* \"contracts/bc class/array.sol\":58:666  contract arraySample{... */\n  mstore(0x40, 0x80)\n  callvalue\n  dup1\n  iszero\n  tag_1\n  jumpi\n  0x00\n  dup1\n  revert\ntag_1:\n  pop\n  dataSize(sub_0)\n  dup1\n  dataOffset(sub_0)\n  0x00\n  codecopy\n  0x00\n  return\nstop\n\nsub_0: assembly {\n        /* \"contracts/bc class/array.sol\":58:666  contract arraySample{... */\n      mstore(0x40, 0x80)\n      callvalue\n      dup1\n      iszero\n      tag_1\n      jumpi\n      0x00\n      dup1\n      revert\n    tag_1:\n      pop\n      jumpi(tag_2, lt(calldatasize, 0x04))\n      shr(0xe0, calldataload(0x00))\n      dup1\n      0x1e3d73a1\n      eq\n      tag_3\n      jumpi\n      dup1\n      0x2e7d44b5\n      eq\n      tag_4\n      jumpi\n      dup1\n      0x575bfc46\n      eq\n      tag_5\n      jumpi\n      dup1\n      0xabebb54f\n      eq\n      tag_6\n      jumpi\n    tag_2:\n      0x00\n      dup1\n      revert\n        /* \"contracts/bc class/array.sol\":189:278  function setData(uint8 _index, uint8 _value) public {... */\n    tag_3:\n      tag_7\n      0x04\n      dup1\n      calldatasize\n      sub\n      dup2\n      add\n      swap1\n      tag_8\n      swap2\n      swap1\n      tag_9\n      jump\t// in\n    tag_8:\n      tag_10\n      jump\t// in\n    tag_7:\n      stop\n        /* \"contracts/bc class/array.sol\":562:664  function getPhone (uint _index) public view returns(uint) {... */\n    tag_4:\n      tag_11\n      0x04\n      dup1\n      calldatasize\n      sub\n      dup2\n      add\n      swap1\n      tag_12\n      swap2\n      swap1\n      tag_13\n      jump\t// in\n    tag_12:\n      tag_14\n      jump\t// in\n    tag_11:\n      mload(0x40)\n      tag_15\n      swap2\n      swap1\n      tag_16\n      jump\t// in\n    tag_15:\n      mload(0x40)\n      dup1\n      swap2\n      sub\n      swap1\n      return\n        /* \"contracts/bc class/array.sol\":320:413  function getData(uint8 _index) public view returns(uint8) {... */\n    tag_5:\n      tag_17\n      0x04\n      dup1\n      calldatasize\n      sub\n      dup2\n      add\n      swap1\n      tag_18\n      swap2\n      swap1\n      tag_19\n      jump\t// in\n    tag_18:\n      tag_20\n      jump\t// in\n    tag_17:\n      mload(0x40)\n      tag_21\n      swap2\n      swap1\n      tag_22\n      jump\t// in\n    tag_21:\n      mload(0x40)\n      dup1\n      swap2\n      sub\n      swap1\n      return\n        /* \"contracts/bc class/array.sol\":465:556  function setDynamicArray (uint _phoneno) public {... */\n    tag_6:\n      tag_23\n      0x04\n      dup1\n      calldatasize\n      sub\n      dup2\n      add\n      swap1\n      tag_24\n      swap2\n      swap1\n      tag_13\n      jump\t// in\n    tag_24:\n      tag_25\n      jump\t// in\n    tag_23:\n      stop\n        /* \"contracts/bc class/array.sol\":189:278  function setData(uint8 _index, uint8 _value) public {... */\n    tag_10:\n        /* \"contracts/bc class/array.sol\":265:271  _value */\n      dup1\n        /* \"contracts/bc class/array.sol\":251:254  age */\n      0x00\n        /* \"contracts/bc class/array.sol\":255:261  _index */\n      dup4\n        /* \"contracts/bc class/array.sol\":251:262  age[_index] */\n      0xff\n      and\n      0x32\n      dup2\n      lt\n      tag_27\n      jumpi\n      tag_28\n      tag_29\n      jump\t// in\n    tag_28:\n    tag_27:\n      0x20\n      swap2\n      dup3\n      dup3\n      div\n      add\n      swap2\n      swap1\n      mod\n        /* \"contracts/bc class/array.sol\":251:271  age[_index] = _value */\n      0x0100\n      exp\n      dup2\n      sload\n      dup2\n      0xff\n      mul\n      not\n      and\n      swap1\n      dup4\n      0xff\n      and\n      mul\n      or\n      swap1\n      sstore\n      pop\n        /* \"contracts/bc class/array.sol\":189:278  function setData(uint8 _index, uint8 _value) public {... */\n      pop\n      pop\n      jump\t// out\n        /* \"contracts/bc class/array.sol\":562:664  function getPhone (uint _index) public view returns(uint) {... */\n    tag_14:\n        /* \"contracts/bc class/array.sol\":614:618  uint */\n      0x00\n        /* \"contracts/bc class/array.sol\":637:648  phoneNumber */\n      0x02\n        /* \"contracts/bc class/array.sol\":649:655  _index */\n      dup3\n        /* \"contracts/bc class/array.sol\":637:656  phoneNumber[_index] */\n      dup2\n      sload\n      dup2\n      lt\n      tag_32\n      jumpi\n      tag_33\n      tag_29\n      jump\t// in\n    tag_33:\n    tag_32:\n      swap1\n      0x00\n      mstore\n      keccak256(0x00, 0x20)\n      add\n      sload\n        /* \"contracts/bc class/array.sol\":630:656  return phoneNumber[_index] */\n      swap1\n      pop\n        /* \"contracts/bc class/array.sol\":562:664  function getPhone (uint _index) public view returns(uint) {... */\n      swap2\n      swap1\n      pop\n      jump\t// out\n        /* \"contracts/bc class/array.sol\":320:413  function getData(uint8 _index) public view returns(uint8) {... */\n    tag_20:\n        /* \"contracts/bc class/array.sol\":371:376  uint8 */\n      0x00\n        /* \"contracts/bc class/array.sol\":395:398  age */\n      dup1\n        /* \"contracts/bc class/array.sol\":399:405  _index */\n      dup3\n        /* \"contracts/bc class/array.sol\":395:406  age[_index] */\n      0xff\n      and\n      0x32\n      dup2\n      lt\n      tag_36\n      jumpi\n      tag_37\n      tag_29\n      jump\t// in\n    tag_37:\n    tag_36:\n      0x20\n      swap2\n      dup3\n      dup3\n      div\n      add\n      swap2\n      swap1\n      mod\n      swap1\n      sload\n      swap1\n      0x0100\n      exp\n      swap1\n      div\n      0xff\n      and\n        /* \"contracts/bc class/array.sol\":388:406  return age[_index] */\n      swap1\n      pop\n        /* \"contracts/bc class/array.sol\":320:413  function getData(uint8 _index) public view returns(uint8) {... */\n      swap2\n      swap1\n      pop\n      jump\t// out\n        /* \"contracts/bc class/array.sol\":465:556  function setDynamicArray (uint _phoneno) public {... */\n    tag_25:\n        /* \"contracts/bc class/array.sol\":523:534  phoneNumber */\n      0x02\n        /* \"contracts/bc class/array.sol\":540:548  _phoneno */\n      dup2\n        /* \"contracts/bc class/array.sol\":523:549  phoneNumber.push(_phoneno) */\n      swap1\n      dup1\n      0x01\n      dup2\n      sload\n      add\n      dup1\n      dup3\n      sstore\n      dup1\n      swap2\n      pop\n      pop\n      0x01\n      swap1\n      sub\n      swap1\n      0x00\n      mstore\n      keccak256(0x00, 0x20)\n      add\n      0x00\n      swap1\n      swap2\n      swap1\n      swap2\n      swap1\n      swap2\n      pop\n      sstore\n        /* \"contracts/bc class/array.sol\":465:556  function setDynamicArray (uint _phoneno) public {... */\n      pop\n      jump\t// out\n        /* \"#utility.yul\":88:205   */\n    tag_42:\n        /* \"#utility.yul\":197:198   */\n      0x00\n        /* \"#utility.yul\":194:195   */\n      dup1\n        /* \"#utility.yul\":187:199   */\n      revert\n        /* \"#utility.yul\":334:420   */\n    tag_44:\n        /* \"#utility.yul\":369:376   */\n      0x00\n        /* \"#utility.yul\":409:413   */\n      0xff\n        /* \"#utility.yul\":402:407   */\n      dup3\n        /* \"#utility.yul\":398:414   */\n      and\n        /* \"#utility.yul\":387:414   */\n      swap1\n      pop\n        /* \"#utility.yul\":334:420   */\n      swap2\n      swap1\n      pop\n      jump\t// out\n        /* \"#utility.yul\":426:544   */\n    tag_45:\n        /* \"#utility.yul\":497:519   */\n      tag_58\n        /* \"#utility.yul\":513:518   */\n      dup2\n        /* \"#utility.yul\":497:519   */\n      tag_44\n      jump\t// in\n    tag_58:\n        /* \"#utility.yul\":490:495   */\n      dup2\n        /* \"#utility.yul\":487:520   */\n      eq\n        /* \"#utility.yul\":477:538   */\n      tag_59\n      jumpi\n        /* \"#utility.yul\":534:535   */\n      0x00\n        /* \"#utility.yul\":531:532   */\n      dup1\n        /* \"#utility.yul\":524:536   */\n      revert\n        /* \"#utility.yul\":477:538   */\n    tag_59:\n        /* \"#utility.yul\":426:544   */\n      pop\n      jump\t// out\n        /* \"#utility.yul\":550:685   */\n    tag_46:\n        /* \"#utility.yul\":594:599   */\n      0x00\n        /* \"#utility.yul\":632:638   */\n      dup2\n        /* \"#utility.yul\":619:639   */\n      calldataload\n        /* \"#utility.yul\":610:639   */\n      swap1\n      pop\n        /* \"#utility.yul\":648:679   */\n      tag_61\n        /* \"#utility.yul\":673:678   */\n      dup2\n        /* \"#utility.yul\":648:679   */\n      tag_45\n      jump\t// in\n    tag_61:\n        /* \"#utility.yul\":550:685   */\n      swap3\n      swap2\n      pop\n      pop\n      jump\t// out\n        /* \"#utility.yul\":691:1157   */\n    tag_9:\n        /* \"#utility.yul\":755:761   */\n      0x00\n        /* \"#utility.yul\":763:769   */\n      dup1\n        /* \"#utility.yul\":812:814   */\n      0x40\n        /* \"#utility.yul\":800:809   */\n      dup4\n        /* \"#utility.yul\":791:798   */\n      dup6\n        /* \"#utility.yul\":787:810   */\n      sub\n        /* \"#utility.yul\":783:815   */\n      slt\n        /* \"#utility.yul\":780:899   */\n      iszero\n      tag_63\n      jumpi\n        /* \"#utility.yul\":818:897   */\n      tag_64\n      tag_42\n      jump\t// in\n    tag_64:\n        /* \"#utility.yul\":780:899   */\n    tag_63:\n        /* \"#utility.yul\":938:939   */\n      0x00\n        /* \"#utility.yul\":963:1014   */\n      tag_65\n        /* \"#utility.yul\":1006:1013   */\n      dup6\n        /* \"#utility.yul\":997:1003   */\n      dup3\n        /* \"#utility.yul\":986:995   */\n      dup7\n        /* \"#utility.yul\":982:1004   */\n      add\n        /* \"#utility.yul\":963:1014   */\n      tag_46\n      jump\t// in\n    tag_65:\n        /* \"#utility.yul\":953:1014   */\n      swap3\n      pop\n        /* \"#utility.yul\":909:1024   */\n      pop\n        /* \"#utility.yul\":1063:1065   */\n      0x20\n        /* \"#utility.yul\":1089:1140   */\n      tag_66\n        /* \"#utility.yul\":1132:1139   */\n      dup6\n        /* \"#utility.yul\":1123:1129   */\n      dup3\n        /* \"#utility.yul\":1112:1121   */\n      dup7\n        /* \"#utility.yul\":1108:1130   */\n      add\n        /* \"#utility.yul\":1089:1140   */\n      tag_46\n      jump\t// in\n    tag_66:\n        /* \"#utility.yul\":1079:1140   */\n      swap2\n      pop\n        /* \"#utility.yul\":1034:1150   */\n      pop\n        /* \"#utility.yul\":691:1157   */\n      swap3\n      pop\n      swap3\n      swap1\n      pop\n      jump\t// out\n        /* \"#utility.yul\":1163:1240   */\n    tag_47:\n        /* \"#utility.yul\":1200:1207   */\n      0x00\n        /* \"#utility.yul\":1229:1234   */\n      dup2\n        /* \"#utility.yul\":1218:1234   */\n      swap1\n      pop\n        /* \"#utility.yul\":1163:1240   */\n      swap2\n      swap1\n      pop\n      jump\t// out\n        /* \"#utility.yul\":1246:1368   */\n    tag_48:\n        /* \"#utility.yul\":1319:1343   */\n      tag_69\n        /* \"#utility.yul\":1337:1342   */\n      dup2\n        /* \"#utility.yul\":1319:1343   */\n      tag_47\n      jump\t// in\n    tag_69:\n        /* \"#utility.yul\":1312:1317   */\n      dup2\n        /* \"#utility.yul\":1309:1344   */\n      eq\n        /* \"#utility.yul\":1299:1362   */\n      tag_70\n      jumpi\n        /* \"#utility.yul\":1358:1359   */\n      0x00\n        /* \"#utility.yul\":1355:1356   */\n      dup1\n        /* \"#utility.yul\":1348:1360   */\n      revert\n        /* \"#utility.yul\":1299:1362   */\n    tag_70:\n        /* \"#utility.yul\":1246:1368   */\n      pop\n      jump\t// out\n        /* \"#utility.yul\":1374:1513   */\n    tag_49:\n        /* \"#utility.yul\":1420:1425   */\n      0x00\n        /* \"#utility.yul\":1458:1464   */\n      dup2\n        /* \"#utility.yul\":1445:1465   */\n      calldataload\n        /* \"#utility.yul\":1436:1465   */\n      swap1\n      pop\n        /* \"#utility.yul\":1474:1507   */\n      tag_72\n        /* \"#utility.yul\":1501:1506   */\n      dup2\n        /* \"#utility.yul\":1474:1507   */\n      tag_48\n      jump\t// in\n    tag_72:\n        /* \"#utility.yul\":1374:1513   */\n      swap3\n      swap2\n      pop\n      pop\n      jump\t// out\n        /* \"#utility.yul\":1519:1848   */\n    tag_13:\n        /* \"#utility.yul\":1578:1584   */\n      0x00\n        /* \"#utility.yul\":1627:1629   */\n      0x20\n        /* \"#utility.yul\":1615:1624   */\n      dup3\n        /* \"#utility.yul\":1606:1613   */\n      dup5\n        /* \"#utility.yul\":1602:1625   */\n      sub\n        /* \"#utility.yul\":1598:1630   */\n      slt\n        /* \"#utility.yul\":1595:1714   */\n      iszero\n      tag_74\n      jumpi\n        /* \"#utility.yul\":1633:1712   */\n      tag_75\n      tag_42\n      jump\t// in\n    tag_75:\n        /* \"#utility.yul\":1595:1714   */\n    tag_74:\n        /* \"#utility.yul\":1753:1754   */\n      0x00\n        /* \"#utility.yul\":1778:1831   */\n      tag_76\n        /* \"#utility.yul\":1823:1830   */\n      dup5\n        /* \"#utility.yul\":1814:1820   */\n      dup3\n        /* \"#utility.yul\":1803:1812   */\n      dup6\n        /* \"#utility.yul\":1799:1821   */\n      add\n        /* \"#utility.yul\":1778:1831   */\n      tag_49\n      jump\t// in\n    tag_76:\n        /* \"#utility.yul\":1768:1831   */\n      swap2\n      pop\n        /* \"#utility.yul\":1724:1841   */\n      pop\n        /* \"#utility.yul\":1519:1848   */\n      swap3\n      swap2\n      pop\n      pop\n      jump\t// out\n        /* \"#utility.yul\":1854:1972   */\n    tag_50:\n        /* \"#utility.yul\":1941:1965   */\n      tag_78\n        /* \"#utility.yul\":1959:1964   */\n      dup2\n        /* \"#utility.yul\":1941:1965   */\n      tag_47\n      jump\t// in\n    tag_78:\n        /* \"#utility.yul\":1936:1939   */\n      dup3\n        /* \"#utility.yul\":1929:1966   */\n      mstore\n        /* \"#utility.yul\":1854:1972   */\n      pop\n      pop\n      jump\t// out\n        /* \"#utility.yul\":1978:2200   */\n    tag_16:\n        /* \"#utility.yul\":2071:2075   */\n      0x00\n        /* \"#utility.yul\":2109:2111   */\n      0x20\n        /* \"#utility.yul\":2098:2107   */\n      dup3\n        /* \"#utility.yul\":2094:2112   */\n      add\n        /* \"#utility.yul\":2086:2112   */\n      swap1\n      pop\n        /* \"#utility.yul\":2122:2193   */\n      tag_80\n        /* \"#utility.yul\":2190:2191   */\n      0x00\n        /* \"#utility.yul\":2179:2188   */\n      dup4\n        /* \"#utility.yul\":2175:2192   */\n      add\n        /* \"#utility.yul\":2166:2172   */\n      dup5\n        /* \"#utility.yul\":2122:2193   */\n      tag_50\n      jump\t// in\n    tag_80:\n        /* \"#utility.yul\":1978:2200   */\n      swap3\n      swap2\n      pop\n      pop\n      jump\t// out\n        /* \"#utility.yul\":2206:2531   */\n    tag_19:\n        /* \"#utility.yul\":2263:2269   */\n      0x00\n        /* \"#utility.yul\":2312:2314   */\n      0x20\n        /* \"#utility.yul\":2300:2309   */\n      dup3\n        /* \"#utility.yul\":2291:2298   */\n      dup5\n        /* \"#utility.yul\":2287:2310   */\n      sub\n        /* \"#utility.yul\":2283:2315   */\n      slt\n        /* \"#utility.yul\":2280:2399   */\n      iszero\n      tag_82\n      jumpi\n        /* \"#utility.yul\":2318:2397   */\n      tag_83\n      tag_42\n      jump\t// in\n    tag_83:\n        /* \"#utility.yul\":2280:2399   */\n    tag_82:\n        /* \"#utility.yul\":2438:2439   */\n      0x00\n        /* \"#utility.yul\":2463:2514   */\n      tag_84\n        /* \"#utility.yul\":2506:2513   */\n      dup5\n        /* \"#utility.yul\":2497:2503   */\n      dup3\n        /* \"#utility.yul\":2486:2495   */\n      dup6\n        /* \"#utility.yul\":2482:2504   */\n      add\n        /* \"#utility.yul\":2463:2514   */\n      tag_46\n      jump\t// in\n    tag_84:\n        /* \"#utility.yul\":2453:2514   */\n      swap2\n      pop\n        /* \"#utility.yul\":2409:2524   */\n      pop\n        /* \"#utility.yul\":2206:2531   */\n      swap3\n      swap2\n      pop\n      pop\n      jump\t// out\n        /* \"#utility.yul\":2537:2649   */\n    tag_51:\n        /* \"#utility.yul\":2620:2642   */\n      tag_86\n        /* \"#utility.yul\":2636:2641   */\n      dup2\n        /* \"#utility.yul\":2620:2642   */\n      tag_44\n      jump\t// in\n    tag_86:\n        /* \"#utility.yul\":2615:2618   */\n      dup3\n        /* \"#utility.yul\":2608:2643   */\n      mstore\n        /* \"#utility.yul\":2537:2649   */\n      pop\n      pop\n      jump\t// out\n        /* \"#utility.yul\":2655:2869   */\n    tag_22:\n        /* \"#utility.yul\":2744:2748   */\n      0x00\n        /* \"#utility.yul\":2782:2784   */\n      0x20\n        /* \"#utility.yul\":2771:2780   */\n      dup3\n        /* \"#utility.yul\":2767:2785   */\n      add\n        /* \"#utility.yul\":2759:2785   */\n      swap1\n      pop\n        /* \"#utility.yul\":2795:2862   */\n      tag_88\n        /* \"#utility.yul\":2859:2860   */\n      0x00\n        /* \"#utility.yul\":2848:2857   */\n      dup4\n        /* \"#utility.yul\":2844:2861   */\n      add\n        /* \"#utility.yul\":2835:2841   */\n      dup5\n        /* \"#utility.yul\":2795:2862   */\n      tag_51\n      jump\t// in\n    tag_88:\n        /* \"#utility.yul\":2655:2869   */\n      swap3\n      swap2\n      pop\n      pop\n      jump\t// out\n        /* \"#utility.yul\":2875:3055   */\n    tag_29:\n        /* \"#utility.yul\":2923:3000   */\n      0x4e487b7100000000000000000000000000000000000000000000000000000000\n        /* \"#utility.yul\":2920:2921   */\n      0x00\n        /* \"#utility.yul\":2913:3001   */\n      mstore\n        /* \"#utility.yul\":3020:3024   */\n      0x32\n        /* \"#utility.yul\":3017:3018   */\n      0x04\n        /* \"#utility.yul\":3010:3025   */\n      mstore\n        /* \"#utility.yul\":3044:3048   */\n      0x24\n        /* \"#utility.yul\":3041:3042   */\n      0x00\n        /* \"#utility.yul\":3034:3049   */\n      revert\n\n    auxdata: 0xa2646970667358221220f0874c0cb7a5151b46a8fa5e7ff8fb23406a3516b358a970a8f22eb366f001bc64736f6c634300081a0033\n}\n",
				"bytecode": {
					"linkReferences": {},
					"object": "6080604052348015600e575f80fd5b506103578061001c5f395ff3fe608060405234801561000f575f80fd5b506004361061004a575f3560e01c80631e3d73a11461004e5780632e7d44b51461006a578063575bfc461461009a578063abebb54f146100ca575b5f80fd5b610068600480360381019061006391906101dd565b6100e6565b005b610084600480360381019061007f919061024e565b610121565b6040516100919190610288565b60405180910390f35b6100b460048036038101906100af91906102a1565b610146565b6040516100c191906102db565b60405180910390f35b6100e460048036038101906100df919061024e565b61017a565b005b805f8360ff16603281106100fd576100fc6102f4565b5b602091828204019190066101000a81548160ff021916908360ff1602179055505050565b5f60028281548110610136576101356102f4565b5b905f5260205f2001549050919050565b5f808260ff166032811061015d5761015c6102f4565b5b602091828204019190069054906101000a900460ff169050919050565b600281908060018154018082558091505060019003905f5260205f20015f909190919091505550565b5f80fd5b5f60ff82169050919050565b6101bc816101a7565b81146101c6575f80fd5b50565b5f813590506101d7816101b3565b92915050565b5f80604083850312156101f3576101f26101a3565b5b5f610200858286016101c9565b9250506020610211858286016101c9565b9150509250929050565b5f819050919050565b61022d8161021b565b8114610237575f80fd5b50565b5f8135905061024881610224565b92915050565b5f60208284031215610263576102626101a3565b5b5f6102708482850161023a565b91505092915050565b6102828161021b565b82525050565b5f60208201905061029b5f830184610279565b92915050565b5f602082840312156102b6576102b56101a3565b5b5f6102c3848285016101c9565b91505092915050565b6102d5816101a7565b82525050565b5f6020820190506102ee5f8301846102cc565b92915050565b7f4e487b71000000000000000000000000000000000000000000000000000000005f52603260045260245ffdfea2646970667358221220f0874c0cb7a5151b46a8fa5e7ff8fb23406a3516b358a970a8f22eb366f001bc64736f6c634300081a0033",
					"opcodes": "PUSH1 0x80 PUSH1 0x40 MSTORE CALLVALUE DUP1 ISZERO PUSH1 0xE JUMPI PUSH0 DUP1 REVERT JUMPDEST POP PUSH2 0x357 DUP1 PUSH2 0x1C PUSH0 CODECOPY PUSH0 RETURN INVALID PUSH1 0x80 PUSH1 0x40 MSTORE CALLVALUE DUP1 ISZERO PUSH2 0xF JUMPI PUSH0 DUP1 REVERT JUMPDEST POP PUSH1 0x4 CALLDATASIZE LT PUSH2 0x4A JUMPI PUSH0 CALLDATALOAD PUSH1 0xE0 SHR DUP1 PUSH4 0x1E3D73A1 EQ PUSH2 0x4E JUMPI DUP1 PUSH4 0x2E7D44B5 EQ PUSH2 0x6A JUMPI DUP1 PUSH4 0x575BFC46 EQ PUSH2 0x9A JUMPI DUP1 PUSH4 0xABEBB54F EQ PUSH2 0xCA JUMPI JUMPDEST PUSH0 DUP1 REVERT JUMPDEST PUSH2 0x68 PUSH1 0x4 DUP1 CALLDATASIZE SUB DUP2 ADD SWAP1 PUSH2 0x63 SWAP2 SWAP1 PUSH2 0x1DD JUMP JUMPDEST PUSH2 0xE6 JUMP JUMPDEST STOP JUMPDEST PUSH2 0x84 PUSH1 0x4 DUP1 CALLDATASIZE SUB DUP2 ADD SWAP1 PUSH2 0x7F SWAP2 SWAP1 PUSH2 0x24E JUMP JUMPDEST PUSH2 0x121 JUMP JUMPDEST PUSH1 0x40 MLOAD PUSH2 0x91 SWAP2 SWAP1 PUSH2 0x288 JUMP JUMPDEST PUSH1 0x40 MLOAD DUP1 SWAP2 SUB SWAP1 RETURN JUMPDEST PUSH2 0xB4 PUSH1 0x4 DUP1 CALLDATASIZE SUB DUP2 ADD SWAP1 PUSH2 0xAF SWAP2 SWAP1 PUSH2 0x2A1 JUMP JUMPDEST PUSH2 0x146 JUMP JUMPDEST PUSH1 0x40 MLOAD PUSH2 0xC1 SWAP2 SWAP1 PUSH2 0x2DB JUMP JUMPDEST PUSH1 0x40 MLOAD DUP1 SWAP2 SUB SWAP1 RETURN JUMPDEST PUSH2 0xE4 PUSH1 0x4 DUP1 CALLDATASIZE SUB DUP2 ADD SWAP1 PUSH2 0xDF SWAP2 SWAP1 PUSH2 0x24E JUMP JUMPDEST PUSH2 0x17A JUMP JUMPDEST STOP JUMPDEST DUP1 PUSH0 DUP4 PUSH1 0xFF AND PUSH1 0x32 DUP2 LT PUSH2 0xFD JUMPI PUSH2 0xFC PUSH2 0x2F4 JUMP JUMPDEST JUMPDEST PUSH1 0x20 SWAP2 DUP3 DUP3 DIV ADD SWAP2 SWAP1 MOD PUSH2 0x100 EXP DUP2 SLOAD DUP2 PUSH1 0xFF MUL NOT AND SWAP1 DUP4 PUSH1 0xFF AND MUL OR SWAP1 SSTORE POP POP POP JUMP JUMPDEST PUSH0 PUSH1 0x2 DUP3 DUP2 SLOAD DUP2 LT PUSH2 0x136 JUMPI PUSH2 0x135 PUSH2 0x2F4 JUMP JUMPDEST JUMPDEST SWAP1 PUSH0 MSTORE PUSH1 0x20 PUSH0 KECCAK256 ADD SLOAD SWAP1 POP SWAP2 SWAP1 POP JUMP JUMPDEST PUSH0 DUP1 DUP3 PUSH1 0xFF AND PUSH1 0x32 DUP2 LT PUSH2 0x15D JUMPI PUSH2 0x15C PUSH2 0x2F4 JUMP JUMPDEST JUMPDEST PUSH1 0x20 SWAP2 DUP3 DUP3 DIV ADD SWAP2 SWAP1 MOD SWAP1 SLOAD SWAP1 PUSH2 0x100 EXP SWAP1 DIV PUSH1 0xFF AND SWAP1 POP SWAP2 SWAP1 POP JUMP JUMPDEST PUSH1 0x2 DUP2 SWAP1 DUP1 PUSH1 0x1 DUP2 SLOAD ADD DUP1 DUP3 SSTORE DUP1 SWAP2 POP POP PUSH1 0x1 SWAP1 SUB SWAP1 PUSH0 MSTORE PUSH1 0x20 PUSH0 KECCAK256 ADD PUSH0 SWAP1 SWAP2 SWAP1 SWAP2 SWAP1 SWAP2 POP SSTORE POP JUMP JUMPDEST PUSH0 DUP1 REVERT JUMPDEST PUSH0 PUSH1 0xFF DUP3 AND SWAP1 POP SWAP2 SWAP1 POP JUMP JUMPDEST PUSH2 0x1BC DUP2 PUSH2 0x1A7 JUMP JUMPDEST DUP2 EQ PUSH2 0x1C6 JUMPI PUSH0 DUP1 REVERT JUMPDEST POP JUMP JUMPDEST PUSH0 DUP2 CALLDATALOAD SWAP1 POP PUSH2 0x1D7 DUP2 PUSH2 0x1B3 JUMP JUMPDEST SWAP3 SWAP2 POP POP JUMP JUMPDEST PUSH0 DUP1 PUSH1 0x40 DUP4 DUP6 SUB SLT ISZERO PUSH2 0x1F3 JUMPI PUSH2 0x1F2 PUSH2 0x1A3 JUMP JUMPDEST JUMPDEST PUSH0 PUSH2 0x200 DUP6 DUP3 DUP7 ADD PUSH2 0x1C9 JUMP JUMPDEST SWAP3 POP POP PUSH1 0x20 PUSH2 0x211 DUP6 DUP3 DUP7 ADD PUSH2 0x1C9 JUMP JUMPDEST SWAP2 POP POP SWAP3 POP SWAP3 SWAP1 POP JUMP JUMPDEST PUSH0 DUP2 SWAP1 POP SWAP2 SWAP1 POP JUMP JUMPDEST PUSH2 0x22D DUP2 PUSH2 0x21B JUMP JUMPDEST DUP2 EQ PUSH2 0x237 JUMPI PUSH0 DUP1 REVERT JUMPDEST POP JUMP JUMPDEST PUSH0 DUP2 CALLDATALOAD SWAP1 POP PUSH2 0x248 DUP2 PUSH2 0x224 JUMP JUMPDEST SWAP3 SWAP2 POP POP JUMP JUMPDEST PUSH0 PUSH1 0x20 DUP3 DUP5 SUB SLT ISZERO PUSH2 0x263 JUMPI PUSH2 0x262 PUSH2 0x1A3 JUMP JUMPDEST JUMPDEST PUSH0 PUSH2 0x270 DUP5 DUP3 DUP6 ADD PUSH2 0x23A JUMP JUMPDEST SWAP2 POP POP SWAP3 SWAP2 POP POP JUMP JUMPDEST PUSH2 0x282 DUP2 PUSH2 0x21B JUMP JUMPDEST DUP3 MSTORE POP POP JUMP JUMPDEST PUSH0 PUSH1 0x20 DUP3 ADD SWAP1 POP PUSH2 0x29B PUSH0 DUP4 ADD DUP5 PUSH2 0x279 JUMP JUMPDEST SWAP3 SWAP2 POP POP JUMP JUMPDEST PUSH0 PUSH1 0x20 DUP3 DUP5 SUB SLT ISZERO PUSH2 0x2B6 JUMPI PUSH2 0x2B5 PUSH2 0x1A3 JUMP JUMPDEST JUMPDEST PUSH0 PUSH2 0x2C3 DUP5 DUP3 DUP6 ADD PUSH2 0x1C9 JUMP JUMPDEST SWAP2 POP POP SWAP3 SWAP2 POP POP JUMP JUMPDEST PUSH2 0x2D5 DUP2 PUSH2 0x1A7 JUMP JUMPDEST DUP3 MSTORE POP POP JUMP JUMPDEST PUSH0 PUSH1 0x20 DUP3 ADD SWAP1 POP PUSH2 0x2EE PUSH0 DUP4 ADD DUP5 PUSH2 0x2CC JUMP JUMPDEST SWAP3 SWAP2 POP POP JUMP JUMPDEST PUSH32 0x4E487B7100000000000000000000000000000000000000000000000000000000 PUSH0 MSTORE PUSH1 0x32 PUSH1 0x4 MSTORE PUSH1 0x24 PUSH0 REVERT INVALID LOG2 PUSH5 0x6970667358 0x22 SLT KECCAK256 CREATE DUP8 0x4C 0xC 0xB7 0xA5 ISZERO SHL CHAINID 0xA8 STATICCALL MCOPY PUSH32 0xF8FB23406A3516B358A970A8F22EB366F001BC64736F6C634300081A00330000 "
				},
				"gasEstimates": {
					"creation": {
						"codeDepositCost": "171000",
						"executionCost": "212",
						"totalCost": "171212"
					},
					"external": {
						"getData(uint8)": "infinite",
						"getPhone(uint256)": "infinite",
						"setData(uint8,uint8)": "infinite",
						"setDynamicArray(uint256)": "46865"
					}
				},
				"methodIdentifiers": {
					"getData(uint8)": "575bfc46",
					"getPhone(uint256)": "2e7d44b5",
					"setData(uint8,uint8)": "1e3d73a1",
					"setDynamicArray(uint256)": "abebb54f"
				}
			},
			"storageLayout": {
				"storage": [
					{
						"astId": 5,
						"contract": "contracts/bc class/array.sol:arraySample",
						"label": "age",
						"offset": 0,
						"slot": "0",
						"type": "t_array(t_uint8)50_storage"
					},
					{
						"astId": 34,
						"contract": "contracts/bc class/array.sol:arraySample",
						"label": "phoneNumber",
						"offset": 0,
						"slot": "2",
						"type": "t_array(t_uint256)dyn_storage"
					}
				],
				"types": {
					"t_array(t_uint256)dyn_storage": {
						"base": "t_uint256",
						"encoding": "dynamic_array",
						"label": "uint256[]",
						"numberOfBytes": "32"
					},
					"t_array(t_uint8)50_storage": {
						"base": "t_uint8",
						"encoding": "inplace",
						"label": "uint8[50]",
						"numberOfBytes": "64"
					},
					"t_uint256": {
						"encoding": "inplace",
						"label": "uint256",
						"numberOfBytes": "32"
					},
					"t_uint8": {
						"encoding": "inplace",
						"label": "uint8",
						"numberOfBytes": "1"
					}
				}
			},
			"userdoc": {
				"kind": "user",
				"methods": {},
				"version": 1
			}
		}
	}
}