{
	"contracts/bc class/const.sol": {
		"structSample": {
			"abi": [
				{
					"inputs": [],
					"stateMutability": "nonpayable",
					"type": "constructor"
				},
				{
					"anonymous": false,
					"inputs": [
						{
							"indexed": false,
							"internalType": "bool",
							"name": "returnvalue",
							"type": "bool"
						}
					],
					"name": "newLearner",
					"type": "event"
				},
				{
					"inputs": [],
					"name": "Simplilearn",
					"outputs": [
						{
							"internalType": "address",
							"name": "",
							"type": "address"
						}
					],
					"stateMutability": "view",
					"type": "function"
				},
				{
					"inputs": [
						{
							"internalType": "uint256",
							"name": "_key",
							"type": "uint256"
						}
					],
					"name": "getLearnerdetails",
					"outputs": [
						{
							"internalType": "string",
							"name": "",
							"type": "string"
						}
					],
					"stateMutability": "view",
					"type": "function"
				},
				{
					"inputs": [
						{
							"internalType": "uint256",
							"name": "",
							"type": "uint256"
						}
					],
					"name": "learners",
					"outputs": [
						{
							"internalType": "string",
							"name": "name",
							"type": "string"
						},
						{
							"internalType": "uint8",
							"name": "age",
							"type": "uint8"
						}
					],
					"stateMutability": "view",
					"type": "function"
				},
				{
					"inputs": [
						{
							"internalType": "uint256",
							"name": "_key",
							"type": "uint256"
						},
						{
							"internalType": "string",
							"name": "_name",
							"type": "string"
						},
						{
							"internalType": "uint8",
							"name": "_age",
							"type": "uint8"
						}
					],
					"name": "setLearnerDetails",
					"outputs": [],
					"stateMutability": "nonpayable",
					"type": "function"
				}
			],
			"devdoc": {
				"kind": "dev",
				"methods": {},
				"version": 1
			},
			"evm": {
				"assembly": "    /* \"contracts/bc class/const.sol\":56:1082  contract structSample {... */\n  mstore(0x40, 0x80)\n    /* \"contracts/bc class/const.sol\":116:171  constructor() {... */\n  callvalue\n  dup1\n  iszero\n  tag_1\n  jumpi\n  0x00\n  dup1\n  revert\ntag_1:\n  pop\n    /* \"contracts/bc class/const.sol\":154:164  msg.sender */\n  caller\n    /* \"contracts/bc class/const.sol\":140:151  Simplilearn */\n  0x00\n  dup1\n    /* \"contracts/bc class/const.sol\":140:164  Simplilearn = msg.sender */\n  0x0100\n  exp\n  dup2\n  sload\n  dup2\n  0xffffffffffffffffffffffffffffffffffffffff\n  mul\n  not\n  and\n  swap1\n  dup4\n  0xffffffffffffffffffffffffffffffffffffffff\n  and\n  mul\n  or\n  swap1\n  sstore\n  pop\n    /* \"contracts/bc class/const.sol\":56:1082  contract structSample {... */\n  dataSize(sub_0)\n  dup1\n  dataOffset(sub_0)\n  0x00\n  codecopy\n  0x00\n  return\nstop\n\nsub_0: assembly {\n        /* \"contracts/bc class/const.sol\":56:1082  contract structSample {... */\n      mstore(0x40, 0x80)\n      callvalue\n      dup1\n      iszero\n      tag_1\n      jumpi\n      0x00\n      dup1\n      revert\n    tag_1:\n      pop\n      jumpi(tag_2, lt(calldatasize, 0x04))\n      shr(0xe0, calldataload(0x00))\n      dup1\n      0x44afd2ab\n      eq\n      tag_3\n      jumpi\n      dup1\n      0xaa9e93f6\n      eq\n      tag_4\n      jumpi\n      dup1\n      0xe98595dd\n      eq\n      tag_5\n      jumpi\n      dup1\n      0xf535cfaa\n      eq\n      tag_6\n      jumpi\n    tag_2:\n      0x00\n      dup1\n      revert\n        /* \"contracts/bc class/const.sol\":84:110  address public Simplilearn */\n    tag_3:\n      tag_7\n      tag_8\n      jump\t// in\n    tag_7:\n      mload(0x40)\n      tag_9\n      swap2\n      swap1\n      tag_10\n      jump\t// in\n    tag_9:\n      mload(0x40)\n      dup1\n      swap2\n      sub\n      swap1\n      return\n        /* \"contracts/bc class/const.sol\":479:520  mapping (uint => learner) public learners */\n    tag_4:\n      tag_11\n      0x04\n      dup1\n      calldatasize\n      sub\n      dup2\n      add\n      swap1\n      tag_12\n      swap2\n      swap1\n      tag_13\n      jump\t// in\n    tag_12:\n      tag_14\n      jump\t// in\n    tag_11:\n      mload(0x40)\n      tag_15\n      swap3\n      swap2\n      swap1\n      tag_16\n      jump\t// in\n    tag_15:\n      mload(0x40)\n      dup1\n      swap2\n      sub\n      swap1\n      return\n        /* \"contracts/bc class/const.sol\":964:1080  function getLearnerdetails(uint _key) public view returns(string memory){... */\n    tag_5:\n      tag_17\n      0x04\n      dup1\n      calldatasize\n      sub\n      dup2\n      add\n      swap1\n      tag_18\n      swap2\n      swap1\n      tag_13\n      jump\t// in\n    tag_18:\n      tag_19\n      jump\t// in\n    tag_17:\n      mload(0x40)\n      tag_20\n      swap2\n      swap1\n      tag_21\n      jump\t// in\n    tag_20:\n      mload(0x40)\n      dup1\n      swap2\n      sub\n      swap1\n      return\n        /* \"contracts/bc class/const.sol\":604:959  function setLearnerDetails(uint _key, string memory _name, uint8 _age ) public onlySimplilearn {... */\n    tag_6:\n      tag_22\n      0x04\n      dup1\n      calldatasize\n      sub\n      dup2\n      add\n      swap1\n      tag_23\n      swap2\n      swap1\n      tag_24\n      jump\t// in\n    tag_23:\n      tag_25\n      jump\t// in\n    tag_22:\n      stop\n        /* \"contracts/bc class/const.sol\":84:110  address public Simplilearn */\n    tag_8:\n      0x00\n      dup1\n      sload\n      swap1\n      0x0100\n      exp\n      swap1\n      div\n      0xffffffffffffffffffffffffffffffffffffffff\n      and\n      dup2\n      jump\t// out\n        /* \"contracts/bc class/const.sol\":479:520  mapping (uint => learner) public learners */\n    tag_14:\n      mstore(0x20, 0x01)\n      dup1\n      0x00\n      mstore\n      keccak256(0x00, 0x40)\n      0x00\n      swap2\n      pop\n      swap1\n      pop\n      dup1\n      0x00\n      add\n      dup1\n      sload\n      tag_26\n      swap1\n      tag_27\n      jump\t// in\n    tag_26:\n      dup1\n      0x1f\n      add\n      0x20\n      dup1\n      swap2\n      div\n      mul\n      0x20\n      add\n      mload(0x40)\n      swap1\n      dup2\n      add\n      0x40\n      mstore\n      dup1\n      swap3\n      swap2\n      swap1\n      dup2\n      dup2\n      mstore\n      0x20\n      add\n      dup3\n      dup1\n      sload\n      tag_28\n      swap1\n      tag_27\n      jump\t// in\n    tag_28:\n      dup1\n      iszero\n      tag_29\n      jumpi\n      dup1\n      0x1f\n      lt\n      tag_30\n      jumpi\n      0x0100\n      dup1\n      dup4\n      sload\n      div\n      mul\n      dup4\n      mstore\n      swap2\n      0x20\n      add\n      swap2\n      jump(tag_29)\n    tag_30:\n      dup3\n      add\n      swap2\n      swap1\n      0x00\n      mstore\n      keccak256(0x00, 0x20)\n      swap1\n    tag_31:\n      dup2\n      sload\n      dup2\n      mstore\n      swap1\n      0x01\n      add\n      swap1\n      0x20\n      add\n      dup1\n      dup4\n      gt\n      tag_31\n      jumpi\n      dup3\n      swap1\n      sub\n      0x1f\n      and\n      dup3\n      add\n      swap2\n    tag_29:\n      pop\n      pop\n      pop\n      pop\n      pop\n      swap1\n      dup1\n      0x01\n      add\n      0x00\n      swap1\n      sload\n      swap1\n      0x0100\n      exp\n      swap1\n      div\n      0xff\n      and\n      swap1\n      pop\n      dup3\n      jump\t// out\n        /* \"contracts/bc class/const.sol\":964:1080  function getLearnerdetails(uint _key) public view returns(string memory){... */\n    tag_19:\n        /* \"contracts/bc class/const.sol\":1022:1035  string memory */\n      0x60\n        /* \"contracts/bc class/const.sol\":1053:1061  learners */\n      0x01\n        /* \"contracts/bc class/const.sol\":1053:1067  learners[_key] */\n      0x00\n        /* \"contracts/bc class/const.sol\":1062:1066  _key */\n      dup4\n        /* \"contracts/bc class/const.sol\":1053:1067  learners[_key] */\n      dup2\n      mstore\n      0x20\n      add\n      swap1\n      dup2\n      mstore\n      0x20\n      add\n      0x00\n      keccak256\n        /* \"contracts/bc class/const.sol\":1053:1072  learners[_key].name */\n      0x00\n      add\n        /* \"contracts/bc class/const.sol\":1046:1073  return(learners[_key].name) */\n      dup1\n      sload\n      tag_33\n      swap1\n      tag_27\n      jump\t// in\n    tag_33:\n      dup1\n      0x1f\n      add\n      0x20\n      dup1\n      swap2\n      div\n      mul\n      0x20\n      add\n      mload(0x40)\n      swap1\n      dup2\n      add\n      0x40\n      mstore\n      dup1\n      swap3\n      swap2\n      swap1\n      dup2\n      dup2\n      mstore\n      0x20\n      add\n      dup3\n      dup1\n      sload\n      tag_34\n      swap1\n      tag_27\n      jump\t// in\n    tag_34:\n      dup1\n      iszero\n      tag_35\n      jumpi\n      dup1\n      0x1f\n      lt\n      tag_36\n      jumpi\n      0x0100\n      dup1\n      dup4\n      sload\n      div\n      mul\n      dup4\n      mstore\n      swap2\n      0x20\n      add\n      swap2\n      jump(tag_35)\n    tag_36:\n      dup3\n      add\n      swap2\n      swap1\n      0x00\n      mstore\n      keccak256(0x00, 0x20)\n      swap1\n    tag_37:\n      dup2\n      sload\n      dup2\n      mstore\n      swap1\n      0x01\n      add\n      swap1\n      0x20\n      add\n      dup1\n      dup4\n      gt\n      tag_37\n      jumpi\n      dup3\n      swap1\n      sub\n      0x1f\n      and\n      dup3\n      add\n      swap2\n    tag_35:\n      pop\n      pop\n      pop\n      pop\n      pop\n      swap1\n      pop\n        /* \"contracts/bc class/const.sol\":964:1080  function getLearnerdetails(uint _key) public view returns(string memory){... */\n      swap2\n      swap1\n      pop\n      jump\t// out\n        /* \"contracts/bc class/const.sol\":604:959  function setLearnerDetails(uint _key, string memory _name, uint8 _age ) public onlySimplilearn {... */\n    tag_25:\n        /* \"contracts/bc class/const.sol\":234:245  Simplilearn */\n      0x00\n      dup1\n      sload\n      swap1\n      0x0100\n      exp\n      swap1\n      div\n      0xffffffffffffffffffffffffffffffffffffffff\n      and\n        /* \"contracts/bc class/const.sol\":220:245  msg.sender == Simplilearn */\n      0xffffffffffffffffffffffffffffffffffffffff\n      and\n        /* \"contracts/bc class/const.sol\":220:230  msg.sender */\n      caller\n        /* \"contracts/bc class/const.sol\":220:245  msg.sender == Simplilearn */\n      0xffffffffffffffffffffffffffffffffffffffff\n      and\n      eq\n        /* \"contracts/bc class/const.sol\":212:246  require(msg.sender == Simplilearn) */\n      tag_39\n      jumpi\n      0x00\n      dup1\n      revert\n    tag_39:\n        /* \"contracts/bc class/const.sol\":795:800  _name */\n      dup2\n        /* \"contracts/bc class/const.sol\":774:782  learners */\n      0x01\n        /* \"contracts/bc class/const.sol\":774:788  learners[_key] */\n      0x00\n        /* \"contracts/bc class/const.sol\":783:787  _key */\n      dup6\n        /* \"contracts/bc class/const.sol\":774:788  learners[_key] */\n      dup2\n      mstore\n      0x20\n      add\n      swap1\n      dup2\n      mstore\n      0x20\n      add\n      0x00\n      keccak256\n        /* \"contracts/bc class/const.sol\":774:793  learners[_key].name */\n      0x00\n      add\n        /* \"contracts/bc class/const.sol\":774:800  learners[_key].name =_name */\n      swap1\n      dup2\n      tag_41\n      swap2\n      swap1\n      tag_42\n      jump\t// in\n    tag_41:\n      pop\n        /* \"contracts/bc class/const.sol\":830:834  _age */\n      dup1\n        /* \"contracts/bc class/const.sol\":810:818  learners */\n      0x01\n        /* \"contracts/bc class/const.sol\":810:824  learners[_key] */\n      0x00\n        /* \"contracts/bc class/const.sol\":819:823  _key */\n      dup6\n        /* \"contracts/bc class/const.sol\":810:824  learners[_key] */\n      dup2\n      mstore\n      0x20\n      add\n      swap1\n      dup2\n      mstore\n      0x20\n      add\n      0x00\n      keccak256\n        /* \"contracts/bc class/const.sol\":810:828  learners[_key].age */\n      0x01\n      add\n      0x00\n        /* \"contracts/bc class/const.sol\":810:834  learners[_key].age =_age */\n      0x0100\n      exp\n      dup2\n      sload\n      dup2\n      0xff\n      mul\n      not\n      and\n      swap1\n      dup4\n      0xff\n      and\n      mul\n      or\n      swap1\n      sstore\n      pop\n        /* \"contracts/bc class/const.sol\":896:898  21 */\n      0x15\n        /* \"contracts/bc class/const.sol\":889:893  _age */\n      dup2\n        /* \"contracts/bc class/const.sol\":889:898  _age > 21 */\n      0xff\n      and\n      gt\n        /* \"contracts/bc class/const.sol\":886:945  if(_age > 21){... */\n      iszero\n      tag_43\n      jumpi\n        /* \"contracts/bc class/const.sol\":918:934  newLearner(true) */\n      0x9cb373b3fb6e2c9659a42e6ea42190e28ed9f43166eee9cd2fd752f9465a937d\n        /* \"contracts/bc class/const.sol\":929:933  true */\n      0x01\n        /* \"contracts/bc class/const.sol\":918:934  newLearner(true) */\n      mload(0x40)\n      tag_44\n      swap2\n      swap1\n      tag_45\n      jump\t// in\n    tag_44:\n      mload(0x40)\n      dup1\n      swap2\n      sub\n      swap1\n      log1\n        /* \"contracts/bc class/const.sol\":886:945  if(_age > 21){... */\n    tag_43:\n        /* \"contracts/bc class/const.sol\":604:959  function setLearnerDetails(uint _key, string memory _name, uint8 _age ) public onlySimplilearn {... */\n      pop\n      pop\n      pop\n      jump\t// out\n        /* \"#utility.yul\":7:133   */\n    tag_46:\n        /* \"#utility.yul\":44:51   */\n      0x00\n        /* \"#utility.yul\":84:126   */\n      0xffffffffffffffffffffffffffffffffffffffff\n        /* \"#utility.yul\":77:82   */\n      dup3\n        /* \"#utility.yul\":73:127   */\n      and\n        /* \"#utility.yul\":62:127   */\n      swap1\n      pop\n        /* \"#utility.yul\":7:133   */\n      swap2\n      swap1\n      pop\n      jump\t// out\n        /* \"#utility.yul\":139:235   */\n    tag_47:\n        /* \"#utility.yul\":176:183   */\n      0x00\n        /* \"#utility.yul\":205:229   */\n      tag_94\n        /* \"#utility.yul\":223:228   */\n      dup3\n        /* \"#utility.yul\":205:229   */\n      tag_46\n      jump\t// in\n    tag_94:\n        /* \"#utility.yul\":194:229   */\n      swap1\n      pop\n        /* \"#utility.yul\":139:235   */\n      swap2\n      swap1\n      pop\n      jump\t// out\n        /* \"#utility.yul\":241:359   */\n    tag_48:\n        /* \"#utility.yul\":328:352   */\n      tag_96\n        /* \"#utility.yul\":346:351   */\n      dup2\n        /* \"#utility.yul\":328:352   */\n      tag_47\n      jump\t// in\n    tag_96:\n        /* \"#utility.yul\":323:326   */\n      dup3\n        /* \"#utility.yul\":316:353   */\n      mstore\n        /* \"#utility.yul\":241:359   */\n      pop\n      pop\n      jump\t// out\n        /* \"#utility.yul\":365:587   */\n    tag_10:\n        /* \"#utility.yul\":458:462   */\n      0x00\n        /* \"#utility.yul\":496:498   */\n      0x20\n        /* \"#utility.yul\":485:494   */\n      dup3\n        /* \"#utility.yul\":481:499   */\n      add\n        /* \"#utility.yul\":473:499   */\n      swap1\n      pop\n        /* \"#utility.yul\":509:580   */\n      tag_98\n        /* \"#utility.yul\":577:578   */\n      0x00\n        /* \"#utility.yul\":566:575   */\n      dup4\n        /* \"#utility.yul\":562:579   */\n      add\n        /* \"#utility.yul\":553:559   */\n      dup5\n        /* \"#utility.yul\":509:580   */\n      tag_48\n      jump\t// in\n    tag_98:\n        /* \"#utility.yul\":365:587   */\n      swap3\n      swap2\n      pop\n      pop\n      jump\t// out\n        /* \"#utility.yul\":593:668   */\n    tag_49:\n        /* \"#utility.yul\":626:632   */\n      0x00\n        /* \"#utility.yul\":659:661   */\n      0x40\n        /* \"#utility.yul\":653:662   */\n      mload\n        /* \"#utility.yul\":643:662   */\n      swap1\n      pop\n        /* \"#utility.yul\":593:668   */\n      swap1\n      jump\t// out\n        /* \"#utility.yul\":674:791   */\n    tag_50:\n        /* \"#utility.yul\":783:784   */\n      0x00\n        /* \"#utility.yul\":780:781   */\n      dup1\n        /* \"#utility.yul\":773:785   */\n      revert\n        /* \"#utility.yul\":797:914   */\n    tag_51:\n        /* \"#utility.yul\":906:907   */\n      0x00\n        /* \"#utility.yul\":903:904   */\n      dup1\n        /* \"#utility.yul\":896:908   */\n      revert\n        /* \"#utility.yul\":920:997   */\n    tag_52:\n        /* \"#utility.yul\":957:964   */\n      0x00\n        /* \"#utility.yul\":986:991   */\n      dup2\n        /* \"#utility.yul\":975:991   */\n      swap1\n      pop\n        /* \"#utility.yul\":920:997   */\n      swap2\n      swap1\n      pop\n      jump\t// out\n        /* \"#utility.yul\":1003:1125   */\n    tag_53:\n        /* \"#utility.yul\":1076:1100   */\n      tag_104\n        /* \"#utility.yul\":1094:1099   */\n      dup2\n        /* \"#utility.yul\":1076:1100   */\n      tag_52\n      jump\t// in\n    tag_104:\n        /* \"#utility.yul\":1069:1074   */\n      dup2\n        /* \"#utility.yul\":1066:1101   */\n      eq\n        /* \"#utility.yul\":1056:1119   */\n      tag_105\n      jumpi\n        /* \"#utility.yul\":1115:1116   */\n      0x00\n        /* \"#utility.yul\":1112:1113   */\n      dup1\n        /* \"#utility.yul\":1105:1117   */\n      revert\n        /* \"#utility.yul\":1056:1119   */\n    tag_105:\n        /* \"#utility.yul\":1003:1125   */\n      pop\n      jump\t// out\n        /* \"#utility.yul\":1131:1270   */\n    tag_54:\n        /* \"#utility.yul\":1177:1182   */\n      0x00\n        /* \"#utility.yul\":1215:1221   */\n      dup2\n        /* \"#utility.yul\":1202:1222   */\n      calldataload\n        /* \"#utility.yul\":1193:1222   */\n      swap1\n      pop\n        /* \"#utility.yul\":1231:1264   */\n      tag_107\n        /* \"#utility.yul\":1258:1263   */\n      dup2\n        /* \"#utility.yul\":1231:1264   */\n      tag_53\n      jump\t// in\n    tag_107:\n        /* \"#utility.yul\":1131:1270   */\n      swap3\n      swap2\n      pop\n      pop\n      jump\t// out\n        /* \"#utility.yul\":1276:1605   */\n    tag_13:\n        /* \"#utility.yul\":1335:1341   */\n      0x00\n        /* \"#utility.yul\":1384:1386   */\n      0x20\n        /* \"#utility.yul\":1372:1381   */\n      dup3\n        /* \"#utility.yul\":1363:1370   */\n      dup5\n        /* \"#utility.yul\":1359:1382   */\n      sub\n        /* \"#utility.yul\":1355:1387   */\n      slt\n        /* \"#utility.yul\":1352:1471   */\n      iszero\n      tag_109\n      jumpi\n        /* \"#utility.yul\":1390:1469   */\n      tag_110\n      tag_50\n      jump\t// in\n    tag_110:\n        /* \"#utility.yul\":1352:1471   */\n    tag_109:\n        /* \"#utility.yul\":1510:1511   */\n      0x00\n        /* \"#utility.yul\":1535:1588   */\n      tag_111\n        /* \"#utility.yul\":1580:1587   */\n      dup5\n        /* \"#utility.yul\":1571:1577   */\n      dup3\n        /* \"#utility.yul\":1560:1569   */\n      dup6\n        /* \"#utility.yul\":1556:1578   */\n      add\n        /* \"#utility.yul\":1535:1588   */\n      tag_54\n      jump\t// in\n    tag_111:\n        /* \"#utility.yul\":1525:1588   */\n      swap2\n      pop\n        /* \"#utility.yul\":1481:1598   */\n      pop\n        /* \"#utility.yul\":1276:1605   */\n      swap3\n      swap2\n      pop\n      pop\n      jump\t// out\n        /* \"#utility.yul\":1611:1710   */\n    tag_55:\n        /* \"#utility.yul\":1663:1669   */\n      0x00\n        /* \"#utility.yul\":1697:1702   */\n      dup2\n        /* \"#utility.yul\":1691:1703   */\n      mload\n        /* \"#utility.yul\":1681:1703   */\n      swap1\n      pop\n        /* \"#utility.yul\":1611:1710   */\n      swap2\n      swap1\n      pop\n      jump\t// out\n        /* \"#utility.yul\":1716:1885   */\n    tag_56:\n        /* \"#utility.yul\":1800:1811   */\n      0x00\n        /* \"#utility.yul\":1834:1840   */\n      dup3\n        /* \"#utility.yul\":1829:1832   */\n      dup3\n        /* \"#utility.yul\":1822:1841   */\n      mstore\n        /* \"#utility.yul\":1874:1878   */\n      0x20\n        /* \"#utility.yul\":1869:1872   */\n      dup3\n        /* \"#utility.yul\":1865:1879   */\n      add\n        /* \"#utility.yul\":1850:1879   */\n      swap1\n      pop\n        /* \"#utility.yul\":1716:1885   */\n      swap3\n      swap2\n      pop\n      pop\n      jump\t// out\n        /* \"#utility.yul\":1891:2030   */\n    tag_57:\n        /* \"#utility.yul\":1980:1986   */\n      dup3\n        /* \"#utility.yul\":1975:1978   */\n      dup2\n        /* \"#utility.yul\":1970:1973   */\n      dup4\n        /* \"#utility.yul\":1964:1987   */\n      mcopy\n        /* \"#utility.yul\":2021:2022   */\n      0x00\n        /* \"#utility.yul\":2012:2018   */\n      dup4\n        /* \"#utility.yul\":2007:2010   */\n      dup4\n        /* \"#utility.yul\":2003:2019   */\n      add\n        /* \"#utility.yul\":1996:2023   */\n      mstore\n        /* \"#utility.yul\":1891:2030   */\n      pop\n      pop\n      pop\n      jump\t// out\n        /* \"#utility.yul\":2036:2138   */\n    tag_58:\n        /* \"#utility.yul\":2077:2083   */\n      0x00\n        /* \"#utility.yul\":2128:2130   */\n      0x1f\n        /* \"#utility.yul\":2124:2131   */\n      not\n        /* \"#utility.yul\":2119:2121   */\n      0x1f\n        /* \"#utility.yul\":2112:2117   */\n      dup4\n        /* \"#utility.yul\":2108:2122   */\n      add\n        /* \"#utility.yul\":2104:2132   */\n      and\n        /* \"#utility.yul\":2094:2132   */\n      swap1\n      pop\n        /* \"#utility.yul\":2036:2138   */\n      swap2\n      swap1\n      pop\n      jump\t// out\n        /* \"#utility.yul\":2144:2521   */\n    tag_59:\n        /* \"#utility.yul\":2232:2235   */\n      0x00\n        /* \"#utility.yul\":2260:2299   */\n      tag_117\n        /* \"#utility.yul\":2293:2298   */\n      dup3\n        /* \"#utility.yul\":2260:2299   */\n      tag_55\n      jump\t// in\n    tag_117:\n        /* \"#utility.yul\":2315:2386   */\n      tag_118\n        /* \"#utility.yul\":2379:2385   */\n      dup2\n        /* \"#utility.yul\":2374:2377   */\n      dup6\n        /* \"#utility.yul\":2315:2386   */\n      tag_56\n      jump\t// in\n    tag_118:\n        /* \"#utility.yul\":2308:2386   */\n      swap4\n      pop\n        /* \"#utility.yul\":2395:2460   */\n      tag_119\n        /* \"#utility.yul\":2453:2459   */\n      dup2\n        /* \"#utility.yul\":2448:2451   */\n      dup6\n        /* \"#utility.yul\":2441:2445   */\n      0x20\n        /* \"#utility.yul\":2434:2439   */\n      dup7\n        /* \"#utility.yul\":2430:2446   */\n      add\n        /* \"#utility.yul\":2395:2460   */\n      tag_57\n      jump\t// in\n    tag_119:\n        /* \"#utility.yul\":2485:2514   */\n      tag_120\n        /* \"#utility.yul\":2507:2513   */\n      dup2\n        /* \"#utility.yul\":2485:2514   */\n      tag_58\n      jump\t// in\n    tag_120:\n        /* \"#utility.yul\":2480:2483   */\n      dup5\n        /* \"#utility.yul\":2476:2515   */\n      add\n        /* \"#utility.yul\":2469:2515   */\n      swap2\n      pop\n        /* \"#utility.yul\":2236:2521   */\n      pop\n        /* \"#utility.yul\":2144:2521   */\n      swap3\n      swap2\n      pop\n      pop\n      jump\t// out\n        /* \"#utility.yul\":2527:2613   */\n    tag_60:\n        /* \"#utility.yul\":2562:2569   */\n      0x00\n        /* \"#utility.yul\":2602:2606   */\n      0xff\n        /* \"#utility.yul\":2595:2600   */\n      dup3\n        /* \"#utility.yul\":2591:2607   */\n      and\n        /* \"#utility.yul\":2580:2607   */\n      swap1\n      pop\n        /* \"#utility.yul\":2527:2613   */\n      swap2\n      swap1\n      pop\n      jump\t// out\n        /* \"#utility.yul\":2619:2731   */\n    tag_61:\n        /* \"#utility.yul\":2702:2724   */\n      tag_123\n        /* \"#utility.yul\":2718:2723   */\n      dup2\n        /* \"#utility.yul\":2702:2724   */\n      tag_60\n      jump\t// in\n    tag_123:\n        /* \"#utility.yul\":2697:2700   */\n      dup3\n        /* \"#utility.yul\":2690:2725   */\n      mstore\n        /* \"#utility.yul\":2619:2731   */\n      pop\n      pop\n      jump\t// out\n        /* \"#utility.yul\":2737:3152   */\n    tag_16:\n        /* \"#utility.yul\":2874:2878   */\n      0x00\n        /* \"#utility.yul\":2912:2914   */\n      0x40\n        /* \"#utility.yul\":2901:2910   */\n      dup3\n        /* \"#utility.yul\":2897:2915   */\n      add\n        /* \"#utility.yul\":2889:2915   */\n      swap1\n      pop\n        /* \"#utility.yul\":2961:2970   */\n      dup2\n        /* \"#utility.yul\":2955:2959   */\n      dup2\n        /* \"#utility.yul\":2951:2971   */\n      sub\n        /* \"#utility.yul\":2947:2948   */\n      0x00\n        /* \"#utility.yul\":2936:2945   */\n      dup4\n        /* \"#utility.yul\":2932:2949   */\n      add\n        /* \"#utility.yul\":2925:2972   */\n      mstore\n        /* \"#utility.yul\":2989:3067   */\n      tag_125\n        /* \"#utility.yul\":3062:3066   */\n      dup2\n        /* \"#utility.yul\":3053:3059   */\n      dup6\n        /* \"#utility.yul\":2989:3067   */\n      tag_59\n      jump\t// in\n    tag_125:\n        /* \"#utility.yul\":2981:3067   */\n      swap1\n      pop\n        /* \"#utility.yul\":3077:3145   */\n      tag_126\n        /* \"#utility.yul\":3141:3143   */\n      0x20\n        /* \"#utility.yul\":3130:3139   */\n      dup4\n        /* \"#utility.yul\":3126:3144   */\n      add\n        /* \"#utility.yul\":3117:3123   */\n      dup5\n        /* \"#utility.yul\":3077:3145   */\n      tag_61\n      jump\t// in\n    tag_126:\n        /* \"#utility.yul\":2737:3152   */\n      swap4\n      swap3\n      pop\n      pop\n      pop\n      jump\t// out\n        /* \"#utility.yul\":3158:3471   */\n    tag_21:\n        /* \"#utility.yul\":3271:3275   */\n      0x00\n        /* \"#utility.yul\":3309:3311   */\n      0x20\n        /* \"#utility.yul\":3298:3307   */\n      dup3\n        /* \"#utility.yul\":3294:3312   */\n      add\n        /* \"#utility.yul\":3286:3312   */\n      swap1\n      pop\n        /* \"#utility.yul\":3358:3367   */\n      dup2\n        /* \"#utility.yul\":3352:3356   */\n      dup2\n        /* \"#utility.yul\":3348:3368   */\n      sub\n        /* \"#utility.yul\":3344:3345   */\n      0x00\n        /* \"#utility.yul\":3333:3342   */\n      dup4\n        /* \"#utility.yul\":3329:3346   */\n      add\n        /* \"#utility.yul\":3322:3369   */\n      mstore\n        /* \"#utility.yul\":3386:3464   */\n      tag_128\n        /* \"#utility.yul\":3459:3463   */\n      dup2\n        /* \"#utility.yul\":3450:3456   */\n      dup5\n        /* \"#utility.yul\":3386:3464   */\n      tag_59\n      jump\t// in\n    tag_128:\n        /* \"#utility.yul\":3378:3464   */\n      swap1\n      pop\n        /* \"#utility.yul\":3158:3471   */\n      swap3\n      swap2\n      pop\n      pop\n      jump\t// out\n        /* \"#utility.yul\":3477:3594   */\n    tag_62:\n        /* \"#utility.yul\":3586:3587   */\n      0x00\n        /* \"#utility.yul\":3583:3584   */\n      dup1\n        /* \"#utility.yul\":3576:3588   */\n      revert\n        /* \"#utility.yul\":3600:3717   */\n    tag_63:\n        /* \"#utility.yul\":3709:3710   */\n      0x00\n        /* \"#utility.yul\":3706:3707   */\n      dup1\n        /* \"#utility.yul\":3699:3711   */\n      revert\n        /* \"#utility.yul\":3723:3903   */\n    tag_64:\n        /* \"#utility.yul\":3771:3848   */\n      0x4e487b7100000000000000000000000000000000000000000000000000000000\n        /* \"#utility.yul\":3768:3769   */\n      0x00\n        /* \"#utility.yul\":3761:3849   */\n      mstore\n        /* \"#utility.yul\":3868:3872   */\n      0x41\n        /* \"#utility.yul\":3865:3866   */\n      0x04\n        /* \"#utility.yul\":3858:3873   */\n      mstore\n        /* \"#utility.yul\":3892:3896   */\n      0x24\n        /* \"#utility.yul\":3889:3890   */\n      0x00\n        /* \"#utility.yul\":3882:3897   */\n      revert\n        /* \"#utility.yul\":3909:4190   */\n    tag_65:\n        /* \"#utility.yul\":3992:4019   */\n      tag_133\n        /* \"#utility.yul\":4014:4018   */\n      dup3\n        /* \"#utility.yul\":3992:4019   */\n      tag_58\n      jump\t// in\n    tag_133:\n        /* \"#utility.yul\":3984:3990   */\n      dup2\n        /* \"#utility.yul\":3980:4020   */\n      add\n        /* \"#utility.yul\":4122:4128   */\n      dup2\n        /* \"#utility.yul\":4110:4120   */\n      dup2\n        /* \"#utility.yul\":4107:4129   */\n      lt\n        /* \"#utility.yul\":4086:4104   */\n      0xffffffffffffffff\n        /* \"#utility.yul\":4074:4084   */\n      dup3\n        /* \"#utility.yul\":4071:4105   */\n      gt\n        /* \"#utility.yul\":4068:4130   */\n      or\n        /* \"#utility.yul\":4065:4153   */\n      iszero\n      tag_134\n      jumpi\n        /* \"#utility.yul\":4133:4151   */\n      tag_135\n      tag_64\n      jump\t// in\n    tag_135:\n        /* \"#utility.yul\":4065:4153   */\n    tag_134:\n        /* \"#utility.yul\":4173:4183   */\n      dup1\n        /* \"#utility.yul\":4169:4171   */\n      0x40\n        /* \"#utility.yul\":4162:4184   */\n      mstore\n        /* \"#utility.yul\":3952:4190   */\n      pop\n        /* \"#utility.yul\":3909:4190   */\n      pop\n      pop\n      jump\t// out\n        /* \"#utility.yul\":4196:4325   */\n    tag_66:\n        /* \"#utility.yul\":4230:4236   */\n      0x00\n        /* \"#utility.yul\":4257:4277   */\n      tag_137\n      tag_49\n      jump\t// in\n    tag_137:\n        /* \"#utility.yul\":4247:4277   */\n      swap1\n      pop\n        /* \"#utility.yul\":4286:4319   */\n      tag_138\n        /* \"#utility.yul\":4314:4318   */\n      dup3\n        /* \"#utility.yul\":4306:4312   */\n      dup3\n        /* \"#utility.yul\":4286:4319   */\n      tag_65\n      jump\t// in\n    tag_138:\n        /* \"#utility.yul\":4196:4325   */\n      swap2\n      swap1\n      pop\n      jump\t// out\n        /* \"#utility.yul\":4331:4639   */\n    tag_67:\n        /* \"#utility.yul\":4393:4397   */\n      0x00\n        /* \"#utility.yul\":4483:4501   */\n      0xffffffffffffffff\n        /* \"#utility.yul\":4475:4481   */\n      dup3\n        /* \"#utility.yul\":4472:4502   */\n      gt\n        /* \"#utility.yul\":4469:4525   */\n      iszero\n      tag_140\n      jumpi\n        /* \"#utility.yul\":4505:4523   */\n      tag_141\n      tag_64\n      jump\t// in\n    tag_141:\n        /* \"#utility.yul\":4469:4525   */\n    tag_140:\n        /* \"#utility.yul\":4543:4572   */\n      tag_142\n        /* \"#utility.yul\":4565:4571   */\n      dup3\n        /* \"#utility.yul\":4543:4572   */\n      tag_58\n      jump\t// in\n    tag_142:\n        /* \"#utility.yul\":4535:4572   */\n      swap1\n      pop\n        /* \"#utility.yul\":4627:4631   */\n      0x20\n        /* \"#utility.yul\":4621:4625   */\n      dup2\n        /* \"#utility.yul\":4617:4632   */\n      add\n        /* \"#utility.yul\":4609:4632   */\n      swap1\n      pop\n        /* \"#utility.yul\":4331:4639   */\n      swap2\n      swap1\n      pop\n      jump\t// out\n        /* \"#utility.yul\":4645:4793   */\n    tag_68:\n        /* \"#utility.yul\":4743:4749   */\n      dup3\n        /* \"#utility.yul\":4738:4741   */\n      dup2\n        /* \"#utility.yul\":4733:4736   */\n      dup4\n        /* \"#utility.yul\":4720:4750   */\n      calldatacopy\n        /* \"#utility.yul\":4784:4785   */\n      0x00\n        /* \"#utility.yul\":4775:4781   */\n      dup4\n        /* \"#utility.yul\":4770:4773   */\n      dup4\n        /* \"#utility.yul\":4766:4782   */\n      add\n        /* \"#utility.yul\":4759:4786   */\n      mstore\n        /* \"#utility.yul\":4645:4793   */\n      pop\n      pop\n      pop\n      jump\t// out\n        /* \"#utility.yul\":4799:5224   */\n    tag_69:\n        /* \"#utility.yul\":4877:4882   */\n      0x00\n        /* \"#utility.yul\":4902:4968   */\n      tag_145\n        /* \"#utility.yul\":4918:4967   */\n      tag_146\n        /* \"#utility.yul\":4960:4966   */\n      dup5\n        /* \"#utility.yul\":4918:4967   */\n      tag_67\n      jump\t// in\n    tag_146:\n        /* \"#utility.yul\":4902:4968   */\n      tag_66\n      jump\t// in\n    tag_145:\n        /* \"#utility.yul\":4893:4968   */\n      swap1\n      pop\n        /* \"#utility.yul\":4991:4997   */\n      dup3\n        /* \"#utility.yul\":4984:4989   */\n      dup2\n        /* \"#utility.yul\":4977:4998   */\n      mstore\n        /* \"#utility.yul\":5029:5033   */\n      0x20\n        /* \"#utility.yul\":5022:5027   */\n      dup2\n        /* \"#utility.yul\":5018:5034   */\n      add\n        /* \"#utility.yul\":5067:5070   */\n      dup5\n        /* \"#utility.yul\":5058:5064   */\n      dup5\n        /* \"#utility.yul\":5053:5056   */\n      dup5\n        /* \"#utility.yul\":5049:5065   */\n      add\n        /* \"#utility.yul\":5046:5071   */\n      gt\n        /* \"#utility.yul\":5043:5155   */\n      iszero\n      tag_147\n      jumpi\n        /* \"#utility.yul\":5074:5153   */\n      tag_148\n      tag_63\n      jump\t// in\n    tag_148:\n        /* \"#utility.yul\":5043:5155   */\n    tag_147:\n        /* \"#utility.yul\":5164:5218   */\n      tag_149\n        /* \"#utility.yul\":5211:5217   */\n      dup5\n        /* \"#utility.yul\":5206:5209   */\n      dup3\n        /* \"#utility.yul\":5201:5204   */\n      dup6\n        /* \"#utility.yul\":5164:5218   */\n      tag_68\n      jump\t// in\n    tag_149:\n        /* \"#utility.yul\":4883:5224   */\n      pop\n        /* \"#utility.yul\":4799:5224   */\n      swap4\n      swap3\n      pop\n      pop\n      pop\n      jump\t// out\n        /* \"#utility.yul\":5244:5584   */\n    tag_70:\n        /* \"#utility.yul\":5300:5305   */\n      0x00\n        /* \"#utility.yul\":5349:5352   */\n      dup3\n        /* \"#utility.yul\":5342:5346   */\n      0x1f\n        /* \"#utility.yul\":5334:5340   */\n      dup4\n        /* \"#utility.yul\":5330:5347   */\n      add\n        /* \"#utility.yul\":5326:5353   */\n      slt\n        /* \"#utility.yul\":5316:5438   */\n      tag_151\n      jumpi\n        /* \"#utility.yul\":5357:5436   */\n      tag_152\n      tag_62\n      jump\t// in\n    tag_152:\n        /* \"#utility.yul\":5316:5438   */\n    tag_151:\n        /* \"#utility.yul\":5474:5480   */\n      dup2\n        /* \"#utility.yul\":5461:5481   */\n      calldataload\n        /* \"#utility.yul\":5499:5578   */\n      tag_153\n        /* \"#utility.yul\":5574:5577   */\n      dup5\n        /* \"#utility.yul\":5566:5572   */\n      dup3\n        /* \"#utility.yul\":5559:5563   */\n      0x20\n        /* \"#utility.yul\":5551:5557   */\n      dup7\n        /* \"#utility.yul\":5547:5564   */\n      add\n        /* \"#utility.yul\":5499:5578   */\n      tag_69\n      jump\t// in\n    tag_153:\n        /* \"#utility.yul\":5490:5578   */\n      swap2\n      pop\n        /* \"#utility.yul\":5306:5584   */\n      pop\n        /* \"#utility.yul\":5244:5584   */\n      swap3\n      swap2\n      pop\n      pop\n      jump\t// out\n        /* \"#utility.yul\":5590:5708   */\n    tag_71:\n        /* \"#utility.yul\":5661:5683   */\n      tag_155\n        /* \"#utility.yul\":5677:5682   */\n      dup2\n        /* \"#utility.yul\":5661:5683   */\n      tag_60\n      jump\t// in\n    tag_155:\n        /* \"#utility.yul\":5654:5659   */\n      dup2\n        /* \"#utility.yul\":5651:5684   */\n      eq\n        /* \"#utility.yul\":5641:5702   */\n      tag_156\n      jumpi\n        /* \"#utility.yul\":5698:5699   */\n      0x00\n        /* \"#utility.yul\":5695:5696   */\n      dup1\n        /* \"#utility.yul\":5688:5700   */\n      revert\n        /* \"#utility.yul\":5641:5702   */\n    tag_156:\n        /* \"#utility.yul\":5590:5708   */\n      pop\n      jump\t// out\n        /* \"#utility.yul\":5714:5849   */\n    tag_72:\n        /* \"#utility.yul\":5758:5763   */\n      0x00\n        /* \"#utility.yul\":5796:5802   */\n      dup2\n        /* \"#utility.yul\":5783:5803   */\n      calldataload\n        /* \"#utility.yul\":5774:5803   */\n      swap1\n      pop\n        /* \"#utility.yul\":5812:5843   */\n      tag_158\n        /* \"#utility.yul\":5837:5842   */\n      dup2\n        /* \"#utility.yul\":5812:5843   */\n      tag_71\n      jump\t// in\n    tag_158:\n        /* \"#utility.yul\":5714:5849   */\n      swap3\n      swap2\n      pop\n      pop\n      jump\t// out\n        /* \"#utility.yul\":5855:6650   */\n    tag_24:\n        /* \"#utility.yul\":5940:5946   */\n      0x00\n        /* \"#utility.yul\":5948:5954   */\n      dup1\n        /* \"#utility.yul\":5956:5962   */\n      0x00\n        /* \"#utility.yul\":6005:6007   */\n      0x60\n        /* \"#utility.yul\":5993:6002   */\n      dup5\n        /* \"#utility.yul\":5984:5991   */\n      dup7\n        /* \"#utility.yul\":5980:6003   */\n      sub\n        /* \"#utility.yul\":5976:6008   */\n      slt\n        /* \"#utility.yul\":5973:6092   */\n      iszero\n      tag_160\n      jumpi\n        /* \"#utility.yul\":6011:6090   */\n      tag_161\n      tag_50\n      jump\t// in\n    tag_161:\n        /* \"#utility.yul\":5973:6092   */\n    tag_160:\n        /* \"#utility.yul\":6131:6132   */\n      0x00\n        /* \"#utility.yul\":6156:6209   */\n      tag_162\n        /* \"#utility.yul\":6201:6208   */\n      dup7\n        /* \"#utility.yul\":6192:6198   */\n      dup3\n        /* \"#utility.yul\":6181:6190   */\n      dup8\n        /* \"#utility.yul\":6177:6199   */\n      add\n        /* \"#utility.yul\":6156:6209   */\n      tag_54\n      jump\t// in\n    tag_162:\n        /* \"#utility.yul\":6146:6209   */\n      swap4\n      pop\n        /* \"#utility.yul\":6102:6219   */\n      pop\n        /* \"#utility.yul\":6286:6288   */\n      0x20\n        /* \"#utility.yul\":6275:6284   */\n      dup5\n        /* \"#utility.yul\":6271:6289   */\n      add\n        /* \"#utility.yul\":6258:6290   */\n      calldataload\n        /* \"#utility.yul\":6317:6335   */\n      0xffffffffffffffff\n        /* \"#utility.yul\":6309:6315   */\n      dup2\n        /* \"#utility.yul\":6306:6336   */\n      gt\n        /* \"#utility.yul\":6303:6420   */\n      iszero\n      tag_163\n      jumpi\n        /* \"#utility.yul\":6339:6418   */\n      tag_164\n      tag_51\n      jump\t// in\n    tag_164:\n        /* \"#utility.yul\":6303:6420   */\n    tag_163:\n        /* \"#utility.yul\":6444:6507   */\n      tag_165\n        /* \"#utility.yul\":6499:6506   */\n      dup7\n        /* \"#utility.yul\":6490:6496   */\n      dup3\n        /* \"#utility.yul\":6479:6488   */\n      dup8\n        /* \"#utility.yul\":6475:6497   */\n      add\n        /* \"#utility.yul\":6444:6507   */\n      tag_70\n      jump\t// in\n    tag_165:\n        /* \"#utility.yul\":6434:6507   */\n      swap3\n      pop\n        /* \"#utility.yul\":6229:6517   */\n      pop\n        /* \"#utility.yul\":6556:6558   */\n      0x40\n        /* \"#utility.yul\":6582:6633   */\n      tag_166\n        /* \"#utility.yul\":6625:6632   */\n      dup7\n        /* \"#utility.yul\":6616:6622   */\n      dup3\n        /* \"#utility.yul\":6605:6614   */\n      dup8\n        /* \"#utility.yul\":6601:6623   */\n      add\n        /* \"#utility.yul\":6582:6633   */\n      tag_72\n      jump\t// in\n    tag_166:\n        /* \"#utility.yul\":6572:6633   */\n      swap2\n      pop\n        /* \"#utility.yul\":6527:6643   */\n      pop\n        /* \"#utility.yul\":5855:6650   */\n      swap3\n      pop\n      swap3\n      pop\n      swap3\n      jump\t// out\n        /* \"#utility.yul\":6656:6836   */\n    tag_73:\n        /* \"#utility.yul\":6704:6781   */\n      0x4e487b7100000000000000000000000000000000000000000000000000000000\n        /* \"#utility.yul\":6701:6702   */\n      0x00\n        /* \"#utility.yul\":6694:6782   */\n      mstore\n        /* \"#utility.yul\":6801:6805   */\n      0x22\n        /* \"#utility.yul\":6798:6799   */\n      0x04\n        /* \"#utility.yul\":6791:6806   */\n      mstore\n        /* \"#utility.yul\":6825:6829   */\n      0x24\n        /* \"#utility.yul\":6822:6823   */\n      0x00\n        /* \"#utility.yul\":6815:6830   */\n      revert\n        /* \"#utility.yul\":6842:7162   */\n    tag_27:\n        /* \"#utility.yul\":6886:6892   */\n      0x00\n        /* \"#utility.yul\":6923:6924   */\n      0x02\n        /* \"#utility.yul\":6917:6921   */\n      dup3\n        /* \"#utility.yul\":6913:6925   */\n      div\n        /* \"#utility.yul\":6903:6925   */\n      swap1\n      pop\n        /* \"#utility.yul\":6970:6971   */\n      0x01\n        /* \"#utility.yul\":6964:6968   */\n      dup3\n        /* \"#utility.yul\":6960:6972   */\n      and\n        /* \"#utility.yul\":6991:7009   */\n      dup1\n        /* \"#utility.yul\":6981:7062   */\n      tag_169\n      jumpi\n        /* \"#utility.yul\":7047:7051   */\n      0x7f\n        /* \"#utility.yul\":7039:7045   */\n      dup3\n        /* \"#utility.yul\":7035:7052   */\n      and\n        /* \"#utility.yul\":7025:7052   */\n      swap2\n      pop\n        /* \"#utility.yul\":6981:7062   */\n    tag_169:\n        /* \"#utility.yul\":7109:7111   */\n      0x20\n        /* \"#utility.yul\":7101:7107   */\n      dup3\n        /* \"#utility.yul\":7098:7112   */\n      lt\n        /* \"#utility.yul\":7078:7096   */\n      dup2\n        /* \"#utility.yul\":7075:7113   */\n      sub\n        /* \"#utility.yul\":7072:7156   */\n      tag_170\n      jumpi\n        /* \"#utility.yul\":7128:7146   */\n      tag_171\n      tag_73\n      jump\t// in\n    tag_171:\n        /* \"#utility.yul\":7072:7156   */\n    tag_170:\n        /* \"#utility.yul\":6893:7162   */\n      pop\n        /* \"#utility.yul\":6842:7162   */\n      swap2\n      swap1\n      pop\n      jump\t// out\n        /* \"#utility.yul\":7168:7309   */\n    tag_74:\n        /* \"#utility.yul\":7217:7221   */\n      0x00\n        /* \"#utility.yul\":7240:7243   */\n      dup2\n        /* \"#utility.yul\":7232:7243   */\n      swap1\n      pop\n        /* \"#utility.yul\":7263:7266   */\n      dup2\n        /* \"#utility.yul\":7260:7261   */\n      0x00\n        /* \"#utility.yul\":7253:7267   */\n      mstore\n        /* \"#utility.yul\":7297:7301   */\n      0x20\n        /* \"#utility.yul\":7294:7295   */\n      0x00\n        /* \"#utility.yul\":7284:7302   */\n      keccak256\n        /* \"#utility.yul\":7276:7302   */\n      swap1\n      pop\n        /* \"#utility.yul\":7168:7309   */\n      swap2\n      swap1\n      pop\n      jump\t// out\n        /* \"#utility.yul\":7315:7408   */\n    tag_75:\n        /* \"#utility.yul\":7352:7358   */\n      0x00\n        /* \"#utility.yul\":7399:7401   */\n      0x20\n        /* \"#utility.yul\":7394:7396   */\n      0x1f\n        /* \"#utility.yul\":7387:7392   */\n      dup4\n        /* \"#utility.yul\":7383:7397   */\n      add\n        /* \"#utility.yul\":7379:7402   */\n      div\n        /* \"#utility.yul\":7369:7402   */\n      swap1\n      pop\n        /* \"#utility.yul\":7315:7408   */\n      swap2\n      swap1\n      pop\n      jump\t// out\n        /* \"#utility.yul\":7414:7521   */\n    tag_76:\n        /* \"#utility.yul\":7458:7466   */\n      0x00\n        /* \"#utility.yul\":7508:7513   */\n      dup3\n        /* \"#utility.yul\":7502:7506   */\n      dup3\n        /* \"#utility.yul\":7498:7514   */\n      shl\n        /* \"#utility.yul\":7477:7514   */\n      swap1\n      pop\n        /* \"#utility.yul\":7414:7521   */\n      swap3\n      swap2\n      pop\n      pop\n      jump\t// out\n        /* \"#utility.yul\":7527:7920   */\n    tag_77:\n        /* \"#utility.yul\":7596:7602   */\n      0x00\n        /* \"#utility.yul\":7646:7647   */\n      0x08\n        /* \"#utility.yul\":7634:7644   */\n      dup4\n        /* \"#utility.yul\":7630:7648   */\n      mul\n        /* \"#utility.yul\":7669:7766   */\n      tag_176\n        /* \"#utility.yul\":7699:7765   */\n      0xffffffffffffffffffffffffffffffffffffffffffffffffffffffffffffffff\n        /* \"#utility.yul\":7688:7697   */\n      dup3\n        /* \"#utility.yul\":7669:7766   */\n      tag_76\n      jump\t// in\n    tag_176:\n        /* \"#utility.yul\":7787:7826   */\n      tag_177\n        /* \"#utility.yul\":7817:7825   */\n      dup7\n        /* \"#utility.yul\":7806:7815   */\n      dup4\n        /* \"#utility.yul\":7787:7826   */\n      tag_76\n      jump\t// in\n    tag_177:\n        /* \"#utility.yul\":7775:7826   */\n      swap6\n      pop\n        /* \"#utility.yul\":7859:7863   */\n      dup1\n        /* \"#utility.yul\":7855:7864   */\n      not\n        /* \"#utility.yul\":7848:7853   */\n      dup5\n        /* \"#utility.yul\":7844:7865   */\n      and\n        /* \"#utility.yul\":7835:7865   */\n      swap4\n      pop\n        /* \"#utility.yul\":7908:7912   */\n      dup1\n        /* \"#utility.yul\":7898:7906   */\n      dup7\n        /* \"#utility.yul\":7894:7913   */\n      and\n        /* \"#utility.yul\":7887:7892   */\n      dup5\n        /* \"#utility.yul\":7884:7914   */\n      or\n        /* \"#utility.yul\":7874:7914   */\n      swap3\n      pop\n        /* \"#utility.yul\":7603:7920   */\n      pop\n      pop\n        /* \"#utility.yul\":7527:7920   */\n      swap4\n      swap3\n      pop\n      pop\n      pop\n      jump\t// out\n        /* \"#utility.yul\":7926:7986   */\n    tag_78:\n        /* \"#utility.yul\":7954:7957   */\n      0x00\n        /* \"#utility.yul\":7975:7980   */\n      dup2\n        /* \"#utility.yul\":7968:7980   */\n      swap1\n      pop\n        /* \"#utility.yul\":7926:7986   */\n      swap2\n      swap1\n      pop\n      jump\t// out\n        /* \"#utility.yul\":7992:8134   */\n    tag_79:\n        /* \"#utility.yul\":8042:8051   */\n      0x00\n        /* \"#utility.yul\":8075:8128   */\n      tag_180\n        /* \"#utility.yul\":8093:8127   */\n      tag_181\n        /* \"#utility.yul\":8102:8126   */\n      tag_182\n        /* \"#utility.yul\":8120:8125   */\n      dup5\n        /* \"#utility.yul\":8102:8126   */\n      tag_52\n      jump\t// in\n    tag_182:\n        /* \"#utility.yul\":8093:8127   */\n      tag_78\n      jump\t// in\n    tag_181:\n        /* \"#utility.yul\":8075:8128   */\n      tag_52\n      jump\t// in\n    tag_180:\n        /* \"#utility.yul\":8062:8128   */\n      swap1\n      pop\n        /* \"#utility.yul\":7992:8134   */\n      swap2\n      swap1\n      pop\n      jump\t// out\n        /* \"#utility.yul\":8140:8215   */\n    tag_80:\n        /* \"#utility.yul\":8183:8186   */\n      0x00\n        /* \"#utility.yul\":8204:8209   */\n      dup2\n        /* \"#utility.yul\":8197:8209   */\n      swap1\n      pop\n        /* \"#utility.yul\":8140:8215   */\n      swap2\n      swap1\n      pop\n      jump\t// out\n        /* \"#utility.yul\":8221:8490   */\n    tag_81:\n        /* \"#utility.yul\":8331:8370   */\n      tag_185\n        /* \"#utility.yul\":8362:8369   */\n      dup4\n        /* \"#utility.yul\":8331:8370   */\n      tag_79\n      jump\t// in\n    tag_185:\n        /* \"#utility.yul\":8392:8483   */\n      tag_186\n        /* \"#utility.yul\":8441:8482   */\n      tag_187\n        /* \"#utility.yul\":8465:8481   */\n      dup3\n        /* \"#utility.yul\":8441:8482   */\n      tag_80\n      jump\t// in\n    tag_187:\n        /* \"#utility.yul\":8433:8439   */\n      dup5\n        /* \"#utility.yul\":8426:8430   */\n      dup5\n        /* \"#utility.yul\":8420:8431   */\n      sload\n        /* \"#utility.yul\":8392:8483   */\n      tag_77\n      jump\t// in\n    tag_186:\n        /* \"#utility.yul\":8386:8390   */\n      dup3\n        /* \"#utility.yul\":8379:8484   */\n      sstore\n        /* \"#utility.yul\":8297:8490   */\n      pop\n        /* \"#utility.yul\":8221:8490   */\n      pop\n      pop\n      pop\n      jump\t// out\n        /* \"#utility.yul\":8496:8569   */\n    tag_82:\n        /* \"#utility.yul\":8541:8544   */\n      0x00\n        /* \"#utility.yul\":8496:8569   */\n      swap1\n      jump\t// out\n        /* \"#utility.yul\":8575:8764   */\n    tag_83:\n        /* \"#utility.yul\":8652:8684   */\n      tag_190\n      tag_82\n      jump\t// in\n    tag_190:\n        /* \"#utility.yul\":8693:8758   */\n      tag_191\n        /* \"#utility.yul\":8751:8757   */\n      dup2\n        /* \"#utility.yul\":8743:8749   */\n      dup5\n        /* \"#utility.yul\":8737:8741   */\n      dup5\n        /* \"#utility.yul\":8693:8758   */\n      tag_81\n      jump\t// in\n    tag_191:\n        /* \"#utility.yul\":8628:8764   */\n      pop\n        /* \"#utility.yul\":8575:8764   */\n      pop\n      pop\n      jump\t// out\n        /* \"#utility.yul\":8770:8956   */\n    tag_84:\n        /* \"#utility.yul\":8830:8950   */\n    tag_193:\n        /* \"#utility.yul\":8847:8850   */\n      dup2\n        /* \"#utility.yul\":8840:8845   */\n      dup2\n        /* \"#utility.yul\":8837:8851   */\n      lt\n        /* \"#utility.yul\":8830:8950   */\n      iszero\n      tag_195\n      jumpi\n        /* \"#utility.yul\":8901:8940   */\n      tag_196\n        /* \"#utility.yul\":8938:8939   */\n      0x00\n        /* \"#utility.yul\":8931:8936   */\n      dup3\n        /* \"#utility.yul\":8901:8940   */\n      tag_83\n      jump\t// in\n    tag_196:\n        /* \"#utility.yul\":8874:8875   */\n      0x01\n        /* \"#utility.yul\":8867:8872   */\n      dup2\n        /* \"#utility.yul\":8863:8876   */\n      add\n        /* \"#utility.yul\":8854:8876   */\n      swap1\n      pop\n        /* \"#utility.yul\":8830:8950   */\n      jump(tag_193)\n    tag_195:\n        /* \"#utility.yul\":8770:8956   */\n      pop\n      pop\n      jump\t// out\n        /* \"#utility.yul\":8962:9505   */\n    tag_85:\n        /* \"#utility.yul\":9063:9065   */\n      0x1f\n        /* \"#utility.yul\":9058:9061   */\n      dup3\n        /* \"#utility.yul\":9055:9066   */\n      gt\n        /* \"#utility.yul\":9052:9498   */\n      iszero\n      tag_198\n      jumpi\n        /* \"#utility.yul\":9097:9135   */\n      tag_199\n        /* \"#utility.yul\":9129:9134   */\n      dup2\n        /* \"#utility.yul\":9097:9135   */\n      tag_74\n      jump\t// in\n    tag_199:\n        /* \"#utility.yul\":9181:9210   */\n      tag_200\n        /* \"#utility.yul\":9199:9209   */\n      dup5\n        /* \"#utility.yul\":9181:9210   */\n      tag_75\n      jump\t// in\n    tag_200:\n        /* \"#utility.yul\":9171:9179   */\n      dup2\n        /* \"#utility.yul\":9167:9211   */\n      add\n        /* \"#utility.yul\":9364:9366   */\n      0x20\n        /* \"#utility.yul\":9352:9362   */\n      dup6\n        /* \"#utility.yul\":9349:9367   */\n      lt\n        /* \"#utility.yul\":9346:9395   */\n      iszero\n      tag_201\n      jumpi\n        /* \"#utility.yul\":9385:9393   */\n      dup2\n        /* \"#utility.yul\":9370:9393   */\n      swap1\n      pop\n        /* \"#utility.yul\":9346:9395   */\n    tag_201:\n        /* \"#utility.yul\":9408:9488   */\n      tag_202\n        /* \"#utility.yul\":9464:9486   */\n      tag_203\n        /* \"#utility.yul\":9482:9485   */\n      dup6\n        /* \"#utility.yul\":9464:9486   */\n      tag_75\n      jump\t// in\n    tag_203:\n        /* \"#utility.yul\":9454:9462   */\n      dup4\n        /* \"#utility.yul\":9450:9487   */\n      add\n        /* \"#utility.yul\":9437:9448   */\n      dup3\n        /* \"#utility.yul\":9408:9488   */\n      tag_84\n      jump\t// in\n    tag_202:\n        /* \"#utility.yul\":9067:9498   */\n      pop\n      pop\n        /* \"#utility.yul\":9052:9498   */\n    tag_198:\n        /* \"#utility.yul\":8962:9505   */\n      pop\n      pop\n      pop\n      jump\t// out\n        /* \"#utility.yul\":9511:9628   */\n    tag_86:\n        /* \"#utility.yul\":9565:9573   */\n      0x00\n        /* \"#utility.yul\":9615:9620   */\n      dup3\n        /* \"#utility.yul\":9609:9613   */\n      dup3\n        /* \"#utility.yul\":9605:9621   */\n      shr\n        /* \"#utility.yul\":9584:9621   */\n      swap1\n      pop\n        /* \"#utility.yul\":9511:9628   */\n      swap3\n      swap2\n      pop\n      pop\n      jump\t// out\n        /* \"#utility.yul\":9634:9803   */\n    tag_87:\n        /* \"#utility.yul\":9678:9684   */\n      0x00\n        /* \"#utility.yul\":9711:9762   */\n      tag_206\n        /* \"#utility.yul\":9759:9760   */\n      0x00\n        /* \"#utility.yul\":9755:9761   */\n      not\n        /* \"#utility.yul\":9747:9752   */\n      dup5\n        /* \"#utility.yul\":9744:9745   */\n      0x08\n        /* \"#utility.yul\":9740:9753   */\n      mul\n        /* \"#utility.yul\":9711:9762   */\n      tag_86\n      jump\t// in\n    tag_206:\n        /* \"#utility.yul\":9707:9763   */\n      not\n        /* \"#utility.yul\":9792:9796   */\n      dup1\n        /* \"#utility.yul\":9786:9790   */\n      dup4\n        /* \"#utility.yul\":9782:9797   */\n      and\n        /* \"#utility.yul\":9772:9797   */\n      swap2\n      pop\n        /* \"#utility.yul\":9685:9803   */\n      pop\n        /* \"#utility.yul\":9634:9803   */\n      swap3\n      swap2\n      pop\n      pop\n      jump\t// out\n        /* \"#utility.yul\":9808:10103   */\n    tag_88:\n        /* \"#utility.yul\":9884:9888   */\n      0x00\n        /* \"#utility.yul\":10030:10059   */\n      tag_208\n        /* \"#utility.yul\":10055:10058   */\n      dup4\n        /* \"#utility.yul\":10049:10053   */\n      dup4\n        /* \"#utility.yul\":10030:10059   */\n      tag_87\n      jump\t// in\n    tag_208:\n        /* \"#utility.yul\":10022:10059   */\n      swap2\n      pop\n        /* \"#utility.yul\":10092:10095   */\n      dup3\n        /* \"#utility.yul\":10089:10090   */\n      0x02\n        /* \"#utility.yul\":10085:10096   */\n      mul\n        /* \"#utility.yul\":10079:10083   */\n      dup3\n        /* \"#utility.yul\":10076:10097   */\n      or\n        /* \"#utility.yul\":10068:10097   */\n      swap1\n      pop\n        /* \"#utility.yul\":9808:10103   */\n      swap3\n      swap2\n      pop\n      pop\n      jump\t// out\n        /* \"#utility.yul\":10108:11503   */\n    tag_42:\n        /* \"#utility.yul\":10225:10262   */\n      tag_210\n        /* \"#utility.yul\":10258:10261   */\n      dup3\n        /* \"#utility.yul\":10225:10262   */\n      tag_55\n      jump\t// in\n    tag_210:\n        /* \"#utility.yul\":10327:10345   */\n      0xffffffffffffffff\n        /* \"#utility.yul\":10319:10325   */\n      dup2\n        /* \"#utility.yul\":10316:10346   */\n      gt\n        /* \"#utility.yul\":10313:10369   */\n      iszero\n      tag_211\n      jumpi\n        /* \"#utility.yul\":10349:10367   */\n      tag_212\n      tag_64\n      jump\t// in\n    tag_212:\n        /* \"#utility.yul\":10313:10369   */\n    tag_211:\n        /* \"#utility.yul\":10393:10431   */\n      tag_213\n        /* \"#utility.yul\":10425:10429   */\n      dup3\n        /* \"#utility.yul\":10419:10430   */\n      sload\n        /* \"#utility.yul\":10393:10431   */\n      tag_27\n      jump\t// in\n    tag_213:\n        /* \"#utility.yul\":10478:10545   */\n      tag_214\n        /* \"#utility.yul\":10538:10544   */\n      dup3\n        /* \"#utility.yul\":10530:10536   */\n      dup3\n        /* \"#utility.yul\":10524:10528   */\n      dup6\n        /* \"#utility.yul\":10478:10545   */\n      tag_85\n      jump\t// in\n    tag_214:\n        /* \"#utility.yul\":10572:10573   */\n      0x00\n        /* \"#utility.yul\":10596:10600   */\n      0x20\n        /* \"#utility.yul\":10583:10600   */\n      swap1\n      pop\n        /* \"#utility.yul\":10628:10630   */\n      0x1f\n        /* \"#utility.yul\":10620:10626   */\n      dup4\n        /* \"#utility.yul\":10617:10631   */\n      gt\n        /* \"#utility.yul\":10645:10646   */\n      0x01\n        /* \"#utility.yul\":10640:11258   */\n      dup2\n      eq\n      tag_216\n      jumpi\n        /* \"#utility.yul\":11302:11303   */\n      0x00\n        /* \"#utility.yul\":11319:11325   */\n      dup5\n        /* \"#utility.yul\":11316:11393   */\n      iszero\n      tag_217\n      jumpi\n        /* \"#utility.yul\":11368:11377   */\n      dup3\n        /* \"#utility.yul\":11363:11366   */\n      dup8\n        /* \"#utility.yul\":11359:11378   */\n      add\n        /* \"#utility.yul\":11353:11379   */\n      mload\n        /* \"#utility.yul\":11344:11379   */\n      swap1\n      pop\n        /* \"#utility.yul\":11316:11393   */\n    tag_217:\n        /* \"#utility.yul\":11419:11486   */\n      tag_218\n        /* \"#utility.yul\":11479:11485   */\n      dup6\n        /* \"#utility.yul\":11472:11477   */\n      dup3\n        /* \"#utility.yul\":11419:11486   */\n      tag_88\n      jump\t// in\n    tag_218:\n        /* \"#utility.yul\":11413:11417   */\n      dup7\n        /* \"#utility.yul\":11406:11487   */\n      sstore\n        /* \"#utility.yul\":11275:11497   */\n      pop\n        /* \"#utility.yul\":10610:11497   */\n      jump(tag_215)\n        /* \"#utility.yul\":10640:11258   */\n    tag_216:\n        /* \"#utility.yul\":10692:10696   */\n      0x1f\n        /* \"#utility.yul\":10688:10697   */\n      not\n        /* \"#utility.yul\":10680:10686   */\n      dup5\n        /* \"#utility.yul\":10676:10698   */\n      and\n        /* \"#utility.yul\":10726:10763   */\n      tag_219\n        /* \"#utility.yul\":10758:10762   */\n      dup7\n        /* \"#utility.yul\":10726:10763   */\n      tag_74\n      jump\t// in\n    tag_219:\n        /* \"#utility.yul\":10785:10786   */\n      0x00\n        /* \"#utility.yul\":10799:11007   */\n    tag_220:\n        /* \"#utility.yul\":10813:10820   */\n      dup3\n        /* \"#utility.yul\":10810:10811   */\n      dup2\n        /* \"#utility.yul\":10807:10821   */\n      lt\n        /* \"#utility.yul\":10799:11007   */\n      iszero\n      tag_222\n      jumpi\n        /* \"#utility.yul\":10892:10901   */\n      dup5\n        /* \"#utility.yul\":10887:10890   */\n      dup10\n        /* \"#utility.yul\":10883:10902   */\n      add\n        /* \"#utility.yul\":10877:10903   */\n      mload\n        /* \"#utility.yul\":10869:10875   */\n      dup3\n        /* \"#utility.yul\":10862:10904   */\n      sstore\n        /* \"#utility.yul\":10943:10944   */\n      0x01\n        /* \"#utility.yul\":10935:10941   */\n      dup3\n        /* \"#utility.yul\":10931:10945   */\n      add\n        /* \"#utility.yul\":10921:10945   */\n      swap2\n      pop\n        /* \"#utility.yul\":10990:10992   */\n      0x20\n        /* \"#utility.yul\":10979:10988   */\n      dup6\n        /* \"#utility.yul\":10975:10993   */\n      add\n        /* \"#utility.yul\":10962:10993   */\n      swap5\n      pop\n        /* \"#utility.yul\":10836:10840   */\n      0x20\n        /* \"#utility.yul\":10833:10834   */\n      dup2\n        /* \"#utility.yul\":10829:10841   */\n      add\n        /* \"#utility.yul\":10824:10841   */\n      swap1\n      pop\n        /* \"#utility.yul\":10799:11007   */\n      jump(tag_220)\n    tag_222:\n        /* \"#utility.yul\":11035:11041   */\n      dup7\n        /* \"#utility.yul\":11026:11033   */\n      dup4\n        /* \"#utility.yul\":11023:11042   */\n      lt\n        /* \"#utility.yul\":11020:11199   */\n      iszero\n      tag_223\n      jumpi\n        /* \"#utility.yul\":11093:11102   */\n      dup5\n        /* \"#utility.yul\":11088:11091   */\n      dup10\n        /* \"#utility.yul\":11084:11103   */\n      add\n        /* \"#utility.yul\":11078:11104   */\n      mload\n        /* \"#utility.yul\":11136:11184   */\n      tag_224\n        /* \"#utility.yul\":11178:11182   */\n      0x1f\n        /* \"#utility.yul\":11170:11176   */\n      dup10\n        /* \"#utility.yul\":11166:11183   */\n      and\n        /* \"#utility.yul\":11155:11164   */\n      dup3\n        /* \"#utility.yul\":11136:11184   */\n      tag_87\n      jump\t// in\n    tag_224:\n        /* \"#utility.yul\":11128:11134   */\n      dup4\n        /* \"#utility.yul\":11121:11185   */\n      sstore\n        /* \"#utility.yul\":11043:11199   */\n      pop\n        /* \"#utility.yul\":11020:11199   */\n    tag_223:\n        /* \"#utility.yul\":11245:11246   */\n      0x01\n        /* \"#utility.yul\":11241:11242   */\n      0x02\n        /* \"#utility.yul\":11233:11239   */\n      dup9\n        /* \"#utility.yul\":11229:11243   */\n      mul\n        /* \"#utility.yul\":11225:11247   */\n      add\n        /* \"#utility.yul\":11219:11223   */\n      dup9\n        /* \"#utility.yul\":11212:11248   */\n      sstore\n        /* \"#utility.yul\":10647:11258   */\n      pop\n      pop\n      pop\n        /* \"#utility.yul\":10610:11497   */\n    tag_215:\n      pop\n        /* \"#utility.yul\":10200:11503   */\n      pop\n      pop\n      pop\n        /* \"#utility.yul\":10108:11503   */\n      pop\n      pop\n      jump\t// out\n        /* \"#utility.yul\":11509:11599   */\n    tag_89:\n        /* \"#utility.yul\":11543:11550   */\n      0x00\n        /* \"#utility.yul\":11586:11591   */\n      dup2\n        /* \"#utility.yul\":11579:11592   */\n      iszero\n        /* \"#utility.yul\":11572:11593   */\n      iszero\n        /* \"#utility.yul\":11561:11593   */\n      swap1\n      pop\n        /* \"#utility.yul\":11509:11599   */\n      swap2\n      swap1\n      pop\n      jump\t// out\n        /* \"#utility.yul\":11605:11714   */\n    tag_90:\n        /* \"#utility.yul\":11686:11707   */\n      tag_227\n        /* \"#utility.yul\":11701:11706   */\n      dup2\n        /* \"#utility.yul\":11686:11707   */\n      tag_89\n      jump\t// in\n    tag_227:\n        /* \"#utility.yul\":11681:11684   */\n      dup3\n        /* \"#utility.yul\":11674:11708   */\n      mstore\n        /* \"#utility.yul\":11605:11714   */\n      pop\n      pop\n      jump\t// out\n        /* \"#utility.yul\":11720:11930   */\n    tag_45:\n        /* \"#utility.yul\":11807:11811   */\n      0x00\n        /* \"#utility.yul\":11845:11847   */\n      0x20\n        /* \"#utility.yul\":11834:11843   */\n      dup3\n        /* \"#utility.yul\":11830:11848   */\n      add\n        /* \"#utility.yul\":11822:11848   */\n      swap1\n      pop\n        /* \"#utility.yul\":11858:11923   */\n      tag_229\n        /* \"#utility.yul\":11920:11921   */\n      0x00\n        /* \"#utility.yul\":11909:11918   */\n      dup4\n        /* \"#utility.yul\":11905:11922   */\n      add\n        /* \"#utility.yul\":11896:11902   */\n      dup5\n        /* \"#utility.yul\":11858:11923   */\n      tag_90\n      jump\t// in\n    tag_229:\n        /* \"#utility.yul\":11720:11930   */\n      swap3\n      swap2\n      pop\n      pop\n      jump\t// out\n\n    auxdata: 0xa264697066735822122075d7d9a77554e7b8346e167687defd9ab619cc424c0f1ee73e9c82183fdf261164736f6c634300081a0033\n}\n",
				"bytecode": {
					"linkReferences": {},
					"object": "6080604052348015600e575f80fd5b50335f806101000a81548173ffffffffffffffffffffffffffffffffffffffff021916908373ffffffffffffffffffffffffffffffffffffffff1602179055506109e28061005b5f395ff3fe608060405234801561000f575f80fd5b506004361061004a575f3560e01c806344afd2ab1461004e578063aa9e93f61461006c578063e98595dd1461009d578063f535cfaa146100cd575b5f80fd5b6100566100e9565b604051610063919061038d565b60405180910390f35b610086600480360381019061008191906103ea565b61010c565b6040516100949291906104a0565b60405180910390f35b6100b760048036038101906100b291906103ea565b6101be565b6040516100c491906104ce565b60405180910390f35b6100e760048036038101906100e29190610644565b610261565b005b5f8054906101000a900473ffffffffffffffffffffffffffffffffffffffff1681565b6001602052805f5260405f205f91509050805f01805461012b906106dd565b80601f0160208091040260200160405190810160405280929190818152602001828054610157906106dd565b80156101a25780601f10610179576101008083540402835291602001916101a2565b820191905f5260205f20905b81548152906001019060200180831161018557829003601f168201915b505050505090806001015f9054906101000a900460ff16905082565b606060015f8381526020019081526020015f205f0180546101de906106dd565b80601f016020809104026020016040519081016040528092919081815260200182805461020a906106dd565b80156102555780601f1061022c57610100808354040283529160200191610255565b820191905f5260205f20905b81548152906001019060200180831161023857829003601f168201915b50505050509050919050565b5f8054906101000a900473ffffffffffffffffffffffffffffffffffffffff1673ffffffffffffffffffffffffffffffffffffffff163373ffffffffffffffffffffffffffffffffffffffff16146102b7575f80fd5b8160015f8581526020019081526020015f205f0190816102d791906108aa565b508060015f8581526020019081526020015f206001015f6101000a81548160ff021916908360ff16021790555060158160ff161115610349577f9cb373b3fb6e2c9659a42e6ea42190e28ed9f43166eee9cd2fd752f9465a937d60016040516103409190610993565b60405180910390a15b505050565b5f73ffffffffffffffffffffffffffffffffffffffff82169050919050565b5f6103778261034e565b9050919050565b6103878161036d565b82525050565b5f6020820190506103a05f83018461037e565b92915050565b5f604051905090565b5f80fd5b5f80fd5b5f819050919050565b6103c9816103b7565b81146103d3575f80fd5b50565b5f813590506103e4816103c0565b92915050565b5f602082840312156103ff576103fe6103af565b5b5f61040c848285016103d6565b91505092915050565b5f81519050919050565b5f82825260208201905092915050565b8281835e5f83830152505050565b5f601f19601f8301169050919050565b5f61045782610415565b610461818561041f565b935061047181856020860161042f565b61047a8161043d565b840191505092915050565b5f60ff82169050919050565b61049a81610485565b82525050565b5f6040820190508181035f8301526104b8818561044d565b90506104c76020830184610491565b9392505050565b5f6020820190508181035f8301526104e6818461044d565b905092915050565b5f80fd5b5f80fd5b7f4e487b71000000000000000000000000000000000000000000000000000000005f52604160045260245ffd5b61052c8261043d565b810181811067ffffffffffffffff8211171561054b5761054a6104f6565b5b80604052505050565b5f61055d6103a6565b90506105698282610523565b919050565b5f67ffffffffffffffff821115610588576105876104f6565b5b6105918261043d565b9050602081019050919050565b828183375f83830152505050565b5f6105be6105b98461056e565b610554565b9050828152602081018484840111156105da576105d96104f2565b5b6105e584828561059e565b509392505050565b5f82601f830112610601576106006104ee565b5b81356106118482602086016105ac565b91505092915050565b61062381610485565b811461062d575f80fd5b50565b5f8135905061063e8161061a565b92915050565b5f805f6060848603121561065b5761065a6103af565b5b5f610668868287016103d6565b935050602084013567ffffffffffffffff811115610689576106886103b3565b5b610695868287016105ed565b92505060406106a686828701610630565b9150509250925092565b7f4e487b71000000000000000000000000000000000000000000000000000000005f52602260045260245ffd5b5f60028204905060018216806106f457607f821691505b602082108103610707576107066106b0565b5b50919050565b5f819050815f5260205f209050919050565b5f6020601f8301049050919050565b5f82821b905092915050565b5f600883026107697fffffffffffffffffffffffffffffffffffffffffffffffffffffffffffffffff8261072e565b610773868361072e565b95508019841693508086168417925050509392505050565b5f819050919050565b5f6107ae6107a96107a4846103b7565b61078b565b6103b7565b9050919050565b5f819050919050565b6107c783610794565b6107db6107d3826107b5565b84845461073a565b825550505050565b5f90565b6107ef6107e3565b6107fa8184846107be565b505050565b5b8181101561081d576108125f826107e7565b600181019050610800565b5050565b601f821115610862576108338161070d565b61083c8461071f565b8101602085101561084b578190505b61085f6108578561071f565b8301826107ff565b50505b505050565b5f82821c905092915050565b5f6108825f1984600802610867565b1980831691505092915050565b5f61089a8383610873565b9150826002028217905092915050565b6108b382610415565b67ffffffffffffffff8111156108cc576108cb6104f6565b5b6108d682546106dd565b6108e1828285610821565b5f60209050601f831160018114610912575f8415610900578287015190505b61090a858261088f565b865550610971565b601f1984166109208661070d565b5f5b8281101561094757848901518255600182019150602085019450602081019050610922565b868310156109645784890151610960601f891682610873565b8355505b6001600288020188555050505b505050505050565b5f8115159050919050565b61098d81610979565b82525050565b5f6020820190506109a65f830184610984565b9291505056fea264697066735822122075d7d9a77554e7b8346e167687defd9ab619cc424c0f1ee73e9c82183fdf261164736f6c634300081a0033",
					"opcodes": "PUSH1 0x80 PUSH1 0x40 MSTORE CALLVALUE DUP1 ISZERO PUSH1 0xE JUMPI PUSH0 DUP1 REVERT JUMPDEST POP CALLER PUSH0 DUP1 PUSH2 0x100 EXP DUP2 SLOAD DUP2 PUSH20 0xFFFFFFFFFFFFFFFFFFFFFFFFFFFFFFFFFFFFFFFF MUL NOT AND SWAP1 DUP4 PUSH20 0xFFFFFFFFFFFFFFFFFFFFFFFFFFFFFFFFFFFFFFFF AND MUL OR SWAP1 SSTORE POP PUSH2 0x9E2 DUP1 PUSH2 0x5B PUSH0 CODECOPY PUSH0 RETURN INVALID PUSH1 0x80 PUSH1 0x40 MSTORE CALLVALUE DUP1 ISZERO PUSH2 0xF JUMPI PUSH0 DUP1 REVERT JUMPDEST POP PUSH1 0x4 CALLDATASIZE LT PUSH2 0x4A JUMPI PUSH0 CALLDATALOAD PUSH1 0xE0 SHR DUP1 PUSH4 0x44AFD2AB EQ PUSH2 0x4E JUMPI DUP1 PUSH4 0xAA9E93F6 EQ PUSH2 0x6C JUMPI DUP1 PUSH4 0xE98595DD EQ PUSH2 0x9D JUMPI DUP1 PUSH4 0xF535CFAA EQ PUSH2 0xCD JUMPI JUMPDEST PUSH0 DUP1 REVERT JUMPDEST PUSH2 0x56 PUSH2 0xE9 JUMP JUMPDEST PUSH1 0x40 MLOAD PUSH2 0x63 SWAP2 SWAP1 PUSH2 0x38D JUMP JUMPDEST PUSH1 0x40 MLOAD DUP1 SWAP2 SUB SWAP1 RETURN JUMPDEST PUSH2 0x86 PUSH1 0x4 DUP1 CALLDATASIZE SUB DUP2 ADD SWAP1 PUSH2 0x81 SWAP2 SWAP1 PUSH2 0x3EA JUMP JUMPDEST PUSH2 0x10C JUMP JUMPDEST PUSH1 0x40 MLOAD PUSH2 0x94 SWAP3 SWAP2 SWAP1 PUSH2 0x4A0 JUMP JUMPDEST PUSH1 0x40 MLOAD DUP1 SWAP2 SUB SWAP1 RETURN JUMPDEST PUSH2 0xB7 PUSH1 0x4 DUP1 CALLDATASIZE SUB DUP2 ADD SWAP1 PUSH2 0xB2 SWAP2 SWAP1 PUSH2 0x3EA JUMP JUMPDEST PUSH2 0x1BE JUMP JUMPDEST PUSH1 0x40 MLOAD PUSH2 0xC4 SWAP2 SWAP1 PUSH2 0x4CE JUMP JUMPDEST PUSH1 0x40 MLOAD DUP1 SWAP2 SUB SWAP1 RETURN JUMPDEST PUSH2 0xE7 PUSH1 0x4 DUP1 CALLDATASIZE SUB DUP2 ADD SWAP1 PUSH2 0xE2 SWAP2 SWAP1 PUSH2 0x644 JUMP JUMPDEST PUSH2 0x261 JUMP JUMPDEST STOP JUMPDEST PUSH0 DUP1 SLOAD SWAP1 PUSH2 0x100 EXP SWAP1 DIV PUSH20 0xFFFFFFFFFFFFFFFFFFFFFFFFFFFFFFFFFFFFFFFF AND DUP2 JUMP JUMPDEST PUSH1 0x1 PUSH1 0x20 MSTORE DUP1 PUSH0 MSTORE PUSH1 0x40 PUSH0 KECCAK256 PUSH0 SWAP2 POP SWAP1 POP DUP1 PUSH0 ADD DUP1 SLOAD PUSH2 0x12B SWAP1 PUSH2 0x6DD JUMP JUMPDEST DUP1 PUSH1 0x1F ADD PUSH1 0x20 DUP1 SWAP2 DIV MUL PUSH1 0x20 ADD PUSH1 0x40 MLOAD SWAP1 DUP2 ADD PUSH1 0x40 MSTORE DUP1 SWAP3 SWAP2 SWAP1 DUP2 DUP2 MSTORE PUSH1 0x20 ADD DUP3 DUP1 SLOAD PUSH2 0x157 SWAP1 PUSH2 0x6DD JUMP JUMPDEST DUP1 ISZERO PUSH2 0x1A2 JUMPI DUP1 PUSH1 0x1F LT PUSH2 0x179 JUMPI PUSH2 0x100 DUP1 DUP4 SLOAD DIV MUL DUP4 MSTORE SWAP2 PUSH1 0x20 ADD SWAP2 PUSH2 0x1A2 JUMP JUMPDEST DUP3 ADD SWAP2 SWAP1 PUSH0 MSTORE PUSH1 0x20 PUSH0 KECCAK256 SWAP1 JUMPDEST DUP2 SLOAD DUP2 MSTORE SWAP1 PUSH1 0x1 ADD SWAP1 PUSH1 0x20 ADD DUP1 DUP4 GT PUSH2 0x185 JUMPI DUP3 SWAP1 SUB PUSH1 0x1F AND DUP3 ADD SWAP2 JUMPDEST POP POP POP POP POP SWAP1 DUP1 PUSH1 0x1 ADD PUSH0 SWAP1 SLOAD SWAP1 PUSH2 0x100 EXP SWAP1 DIV PUSH1 0xFF AND SWAP1 POP DUP3 JUMP JUMPDEST PUSH1 0x60 PUSH1 0x1 PUSH0 DUP4 DUP2 MSTORE PUSH1 0x20 ADD SWAP1 DUP2 MSTORE PUSH1 0x20 ADD PUSH0 KECCAK256 PUSH0 ADD DUP1 SLOAD PUSH2 0x1DE SWAP1 PUSH2 0x6DD JUMP JUMPDEST DUP1 PUSH1 0x1F ADD PUSH1 0x20 DUP1 SWAP2 DIV MUL PUSH1 0x20 ADD PUSH1 0x40 MLOAD SWAP1 DUP2 ADD PUSH1 0x40 MSTORE DUP1 SWAP3 SWAP2 SWAP1 DUP2 DUP2 MSTORE PUSH1 0x20 ADD DUP3 DUP1 SLOAD PUSH2 0x20A SWAP1 PUSH2 0x6DD JUMP JUMPDEST DUP1 ISZERO PUSH2 0x255 JUMPI DUP1 PUSH1 0x1F LT PUSH2 0x22C JUMPI PUSH2 0x100 DUP1 DUP4 SLOAD DIV MUL DUP4 MSTORE SWAP2 PUSH1 0x20 ADD SWAP2 PUSH2 0x255 JUMP JUMPDEST DUP3 ADD SWAP2 SWAP1 PUSH0 MSTORE PUSH1 0x20 PUSH0 KECCAK256 SWAP1 JUMPDEST DUP2 SLOAD DUP2 MSTORE SWAP1 PUSH1 0x1 ADD SWAP1 PUSH1 0x20 ADD DUP1 DUP4 GT PUSH2 0x238 JUMPI DUP3 SWAP1 SUB PUSH1 0x1F AND DUP3 ADD SWAP2 JUMPDEST POP POP POP POP POP SWAP1 POP SWAP2 SWAP1 POP JUMP JUMPDEST PUSH0 DUP1 SLOAD SWAP1 PUSH2 0x100 EXP SWAP1 DIV PUSH20 0xFFFFFFFFFFFFFFFFFFFFFFFFFFFFFFFFFFFFFFFF AND PUSH20 0xFFFFFFFFFFFFFFFFFFFFFFFFFFFFFFFFFFFFFFFF AND CALLER PUSH20 0xFFFFFFFFFFFFFFFFFFFFFFFFFFFFFFFFFFFFFFFF AND EQ PUSH2 0x2B7 JUMPI PUSH0 DUP1 REVERT JUMPDEST DUP2 PUSH1 0x1 PUSH0 DUP6 DUP2 MSTORE PUSH1 0x20 ADD SWAP1 DUP2 MSTORE PUSH1 0x20 ADD PUSH0 KECCAK256 PUSH0 ADD SWAP1 DUP2 PUSH2 0x2D7 SWAP2 SWAP1 PUSH2 0x8AA JUMP JUMPDEST POP DUP1 PUSH1 0x1 PUSH0 DUP6 DUP2 MSTORE PUSH1 0x20 ADD SWAP1 DUP2 MSTORE PUSH1 0x20 ADD PUSH0 KECCAK256 PUSH1 0x1 ADD PUSH0 PUSH2 0x100 EXP DUP2 SLOAD DUP2 PUSH1 0xFF MUL NOT AND SWAP1 DUP4 PUSH1 0xFF AND MUL OR SWAP1 SSTORE POP PUSH1 0x15 DUP2 PUSH1 0xFF AND GT ISZERO PUSH2 0x349 JUMPI PUSH32 0x9CB373B3FB6E2C9659A42E6EA42190E28ED9F43166EEE9CD2FD752F9465A937D PUSH1 0x1 PUSH1 0x40 MLOAD PUSH2 0x340 SWAP2 SWAP1 PUSH2 0x993 JUMP JUMPDEST PUSH1 0x40 MLOAD DUP1 SWAP2 SUB SWAP1 LOG1 JUMPDEST POP POP POP JUMP JUMPDEST PUSH0 PUSH20 0xFFFFFFFFFFFFFFFFFFFFFFFFFFFFFFFFFFFFFFFF DUP3 AND SWAP1 POP SWAP2 SWAP1 POP JUMP JUMPDEST PUSH0 PUSH2 0x377 DUP3 PUSH2 0x34E JUMP JUMPDEST SWAP1 POP SWAP2 SWAP1 POP JUMP JUMPDEST PUSH2 0x387 DUP2 PUSH2 0x36D JUMP JUMPDEST DUP3 MSTORE POP POP JUMP JUMPDEST PUSH0 PUSH1 0x20 DUP3 ADD SWAP1 POP PUSH2 0x3A0 PUSH0 DUP4 ADD DUP5 PUSH2 0x37E JUMP JUMPDEST SWAP3 SWAP2 POP POP JUMP JUMPDEST PUSH0 PUSH1 0x40 MLOAD SWAP1 POP SWAP1 JUMP JUMPDEST PUSH0 DUP1 REVERT JUMPDEST PUSH0 DUP1 REVERT JUMPDEST PUSH0 DUP2 SWAP1 POP SWAP2 SWAP1 POP JUMP JUMPDEST PUSH2 0x3C9 DUP2 PUSH2 0x3B7 JUMP JUMPDEST DUP2 EQ PUSH2 0x3D3 JUMPI PUSH0 DUP1 REVERT JUMPDEST POP JUMP JUMPDEST PUSH0 DUP2 CALLDATALOAD SWAP1 POP PUSH2 0x3E4 DUP2 PUSH2 0x3C0 JUMP JUMPDEST SWAP3 SWAP2 POP POP JUMP JUMPDEST PUSH0 PUSH1 0x20 DUP3 DUP5 SUB SLT ISZERO PUSH2 0x3FF JUMPI PUSH2 0x3FE PUSH2 0x3AF JUMP JUMPDEST JUMPDEST PUSH0 PUSH2 0x40C DUP5 DUP3 DUP6 ADD PUSH2 0x3D6 JUMP JUMPDEST SWAP2 POP POP SWAP3 SWAP2 POP POP JUMP JUMPDEST PUSH0 DUP2 MLOAD SWAP1 POP SWAP2 SWAP1 POP JUMP JUMPDEST PUSH0 DUP3 DUP3 MSTORE PUSH1 0x20 DUP3 ADD SWAP1 POP SWAP3 SWAP2 POP POP JUMP JUMPDEST DUP3 DUP2 DUP4 MCOPY PUSH0 DUP4 DUP4 ADD MSTORE POP POP POP JUMP JUMPDEST PUSH0 PUSH1 0x1F NOT PUSH1 0x1F DUP4 ADD AND SWAP1 POP SWAP2 SWAP1 POP JUMP JUMPDEST PUSH0 PUSH2 0x457 DUP3 PUSH2 0x415 JUMP JUMPDEST PUSH2 0x461 DUP2 DUP6 PUSH2 0x41F JUMP JUMPDEST SWAP4 POP PUSH2 0x471 DUP2 DUP6 PUSH1 0x20 DUP7 ADD PUSH2 0x42F JUMP JUMPDEST PUSH2 0x47A DUP2 PUSH2 0x43D JUMP JUMPDEST DUP5 ADD SWAP2 POP POP SWAP3 SWAP2 POP POP JUMP JUMPDEST PUSH0 PUSH1 0xFF DUP3 AND SWAP1 POP SWAP2 SWAP1 POP JUMP JUMPDEST PUSH2 0x49A DUP2 PUSH2 0x485 JUMP JUMPDEST DUP3 MSTORE POP POP JUMP JUMPDEST PUSH0 PUSH1 0x40 DUP3 ADD SWAP1 POP DUP2 DUP2 SUB PUSH0 DUP4 ADD MSTORE PUSH2 0x4B8 DUP2 DUP6 PUSH2 0x44D JUMP JUMPDEST SWAP1 POP PUSH2 0x4C7 PUSH1 0x20 DUP4 ADD DUP5 PUSH2 0x491 JUMP JUMPDEST SWAP4 SWAP3 POP POP POP JUMP JUMPDEST PUSH0 PUSH1 0x20 DUP3 ADD SWAP1 POP DUP2 DUP2 SUB PUSH0 DUP4 ADD MSTORE PUSH2 0x4E6 DUP2 DUP5 PUSH2 0x44D JUMP JUMPDEST SWAP1 POP SWAP3 SWAP2 POP POP JUMP JUMPDEST PUSH0 DUP1 REVERT JUMPDEST PUSH0 DUP1 REVERT JUMPDEST PUSH32 0x4E487B7100000000000000000000000000000000000000000000000000000000 PUSH0 MSTORE PUSH1 0x41 PUSH1 0x4 MSTORE PUSH1 0x24 PUSH0 REVERT JUMPDEST PUSH2 0x52C DUP3 PUSH2 0x43D JUMP JUMPDEST DUP2 ADD DUP2 DUP2 LT PUSH8 0xFFFFFFFFFFFFFFFF DUP3 GT OR ISZERO PUSH2 0x54B JUMPI PUSH2 0x54A PUSH2 0x4F6 JUMP JUMPDEST JUMPDEST DUP1 PUSH1 0x40 MSTORE POP POP POP JUMP JUMPDEST PUSH0 PUSH2 0x55D PUSH2 0x3A6 JUMP JUMPDEST SWAP1 POP PUSH2 0x569 DUP3 DUP3 PUSH2 0x523 JUMP JUMPDEST SWAP2 SWAP1 POP JUMP JUMPDEST PUSH0 PUSH8 0xFFFFFFFFFFFFFFFF DUP3 GT ISZERO PUSH2 0x588 JUMPI PUSH2 0x587 PUSH2 0x4F6 JUMP JUMPDEST JUMPDEST PUSH2 0x591 DUP3 PUSH2 0x43D JUMP JUMPDEST SWAP1 POP PUSH1 0x20 DUP2 ADD SWAP1 POP SWAP2 SWAP1 POP JUMP JUMPDEST DUP3 DUP2 DUP4 CALLDATACOPY PUSH0 DUP4 DUP4 ADD MSTORE POP POP POP JUMP JUMPDEST PUSH0 PUSH2 0x5BE PUSH2 0x5B9 DUP5 PUSH2 0x56E JUMP JUMPDEST PUSH2 0x554 JUMP JUMPDEST SWAP1 POP DUP3 DUP2 MSTORE PUSH1 0x20 DUP2 ADD DUP5 DUP5 DUP5 ADD GT ISZERO PUSH2 0x5DA JUMPI PUSH2 0x5D9 PUSH2 0x4F2 JUMP JUMPDEST JUMPDEST PUSH2 0x5E5 DUP5 DUP3 DUP6 PUSH2 0x59E JUMP JUMPDEST POP SWAP4 SWAP3 POP POP POP JUMP JUMPDEST PUSH0 DUP3 PUSH1 0x1F DUP4 ADD SLT PUSH2 0x601 JUMPI PUSH2 0x600 PUSH2 0x4EE JUMP JUMPDEST JUMPDEST DUP2 CALLDATALOAD PUSH2 0x611 DUP5 DUP3 PUSH1 0x20 DUP7 ADD PUSH2 0x5AC JUMP JUMPDEST SWAP2 POP POP SWAP3 SWAP2 POP POP JUMP JUMPDEST PUSH2 0x623 DUP2 PUSH2 0x485 JUMP JUMPDEST DUP2 EQ PUSH2 0x62D JUMPI PUSH0 DUP1 REVERT JUMPDEST POP JUMP JUMPDEST PUSH0 DUP2 CALLDATALOAD SWAP1 POP PUSH2 0x63E DUP2 PUSH2 0x61A JUMP JUMPDEST SWAP3 SWAP2 POP POP JUMP JUMPDEST PUSH0 DUP1 PUSH0 PUSH1 0x60 DUP5 DUP7 SUB SLT ISZERO PUSH2 0x65B JUMPI PUSH2 0x65A PUSH2 0x3AF JUMP JUMPDEST JUMPDEST PUSH0 PUSH2 0x668 DUP7 DUP3 DUP8 ADD PUSH2 0x3D6 JUMP JUMPDEST SWAP4 POP POP PUSH1 0x20 DUP5 ADD CALLDATALOAD PUSH8 0xFFFFFFFFFFFFFFFF DUP2 GT ISZERO PUSH2 0x689 JUMPI PUSH2 0x688 PUSH2 0x3B3 JUMP JUMPDEST JUMPDEST PUSH2 0x695 DUP7 DUP3 DUP8 ADD PUSH2 0x5ED JUMP JUMPDEST SWAP3 POP POP PUSH1 0x40 PUSH2 0x6A6 DUP7 DUP3 DUP8 ADD PUSH2 0x630 JUMP JUMPDEST SWAP2 POP POP SWAP3 POP SWAP3 POP SWAP3 JUMP JUMPDEST PUSH32 0x4E487B7100000000000000000000000000000000000000000000000000000000 PUSH0 MSTORE PUSH1 0x22 PUSH1 0x4 MSTORE PUSH1 0x24 PUSH0 REVERT JUMPDEST PUSH0 PUSH1 0x2 DUP3 DIV SWAP1 POP PUSH1 0x1 DUP3 AND DUP1 PUSH2 0x6F4 JUMPI PUSH1 0x7F DUP3 AND SWAP2 POP JUMPDEST PUSH1 0x20 DUP3 LT DUP2 SUB PUSH2 0x707 JUMPI PUSH2 0x706 PUSH2 0x6B0 JUMP JUMPDEST JUMPDEST POP SWAP2 SWAP1 POP JUMP JUMPDEST PUSH0 DUP2 SWAP1 POP DUP2 PUSH0 MSTORE PUSH1 0x20 PUSH0 KECCAK256 SWAP1 POP SWAP2 SWAP1 POP JUMP JUMPDEST PUSH0 PUSH1 0x20 PUSH1 0x1F DUP4 ADD DIV SWAP1 POP SWAP2 SWAP1 POP JUMP JUMPDEST PUSH0 DUP3 DUP3 SHL SWAP1 POP SWAP3 SWAP2 POP POP JUMP JUMPDEST PUSH0 PUSH1 0x8 DUP4 MUL PUSH2 0x769 PUSH32 0xFFFFFFFFFFFFFFFFFFFFFFFFFFFFFFFFFFFFFFFFFFFFFFFFFFFFFFFFFFFFFFFF DUP3 PUSH2 0x72E JUMP JUMPDEST PUSH2 0x773 DUP7 DUP4 PUSH2 0x72E JUMP JUMPDEST SWAP6 POP DUP1 NOT DUP5 AND SWAP4 POP DUP1 DUP7 AND DUP5 OR SWAP3 POP POP POP SWAP4 SWAP3 POP POP POP JUMP JUMPDEST PUSH0 DUP2 SWAP1 POP SWAP2 SWAP1 POP JUMP JUMPDEST PUSH0 PUSH2 0x7AE PUSH2 0x7A9 PUSH2 0x7A4 DUP5 PUSH2 0x3B7 JUMP JUMPDEST PUSH2 0x78B JUMP JUMPDEST PUSH2 0x3B7 JUMP JUMPDEST SWAP1 POP SWAP2 SWAP1 POP JUMP JUMPDEST PUSH0 DUP2 SWAP1 POP SWAP2 SWAP1 POP JUMP JUMPDEST PUSH2 0x7C7 DUP4 PUSH2 0x794 JUMP JUMPDEST PUSH2 0x7DB PUSH2 0x7D3 DUP3 PUSH2 0x7B5 JUMP JUMPDEST DUP5 DUP5 SLOAD PUSH2 0x73A JUMP JUMPDEST DUP3 SSTORE POP POP POP POP JUMP JUMPDEST PUSH0 SWAP1 JUMP JUMPDEST PUSH2 0x7EF PUSH2 0x7E3 JUMP JUMPDEST PUSH2 0x7FA DUP2 DUP5 DUP5 PUSH2 0x7BE JUMP JUMPDEST POP POP POP JUMP JUMPDEST JUMPDEST DUP2 DUP2 LT ISZERO PUSH2 0x81D JUMPI PUSH2 0x812 PUSH0 DUP3 PUSH2 0x7E7 JUMP JUMPDEST PUSH1 0x1 DUP2 ADD SWAP1 POP PUSH2 0x800 JUMP JUMPDEST POP POP JUMP JUMPDEST PUSH1 0x1F DUP3 GT ISZERO PUSH2 0x862 JUMPI PUSH2 0x833 DUP2 PUSH2 0x70D JUMP JUMPDEST PUSH2 0x83C DUP5 PUSH2 0x71F JUMP JUMPDEST DUP2 ADD PUSH1 0x20 DUP6 LT ISZERO PUSH2 0x84B JUMPI DUP2 SWAP1 POP JUMPDEST PUSH2 0x85F PUSH2 0x857 DUP6 PUSH2 0x71F JUMP JUMPDEST DUP4 ADD DUP3 PUSH2 0x7FF JUMP JUMPDEST POP POP JUMPDEST POP POP POP JUMP JUMPDEST PUSH0 DUP3 DUP3 SHR SWAP1 POP SWAP3 SWAP2 POP POP JUMP JUMPDEST PUSH0 PUSH2 0x882 PUSH0 NOT DUP5 PUSH1 0x8 MUL PUSH2 0x867 JUMP JUMPDEST NOT DUP1 DUP4 AND SWAP2 POP POP SWAP3 SWAP2 POP POP JUMP JUMPDEST PUSH0 PUSH2 0x89A DUP4 DUP4 PUSH2 0x873 JUMP JUMPDEST SWAP2 POP DUP3 PUSH1 0x2 MUL DUP3 OR SWAP1 POP SWAP3 SWAP2 POP POP JUMP JUMPDEST PUSH2 0x8B3 DUP3 PUSH2 0x415 JUMP JUMPDEST PUSH8 0xFFFFFFFFFFFFFFFF DUP2 GT ISZERO PUSH2 0x8CC JUMPI PUSH2 0x8CB PUSH2 0x4F6 JUMP JUMPDEST JUMPDEST PUSH2 0x8D6 DUP3 SLOAD PUSH2 0x6DD JUMP JUMPDEST PUSH2 0x8E1 DUP3 DUP3 DUP6 PUSH2 0x821 JUMP JUMPDEST PUSH0 PUSH1 0x20 SWAP1 POP PUSH1 0x1F DUP4 GT PUSH1 0x1 DUP2 EQ PUSH2 0x912 JUMPI PUSH0 DUP5 ISZERO PUSH2 0x900 JUMPI DUP3 DUP8 ADD MLOAD SWAP1 POP JUMPDEST PUSH2 0x90A DUP6 DUP3 PUSH2 0x88F JUMP JUMPDEST DUP7 SSTORE POP PUSH2 0x971 JUMP JUMPDEST PUSH1 0x1F NOT DUP5 AND PUSH2 0x920 DUP7 PUSH2 0x70D JUMP JUMPDEST PUSH0 JUMPDEST DUP3 DUP2 LT ISZERO PUSH2 0x947 JUMPI DUP5 DUP10 ADD MLOAD DUP3 SSTORE PUSH1 0x1 DUP3 ADD SWAP2 POP PUSH1 0x20 DUP6 ADD SWAP5 POP PUSH1 0x20 DUP2 ADD SWAP1 POP PUSH2 0x922 JUMP JUMPDEST DUP7 DUP4 LT ISZERO PUSH2 0x964 JUMPI DUP5 DUP10 ADD MLOAD PUSH2 0x960 PUSH1 0x1F DUP10 AND DUP3 PUSH2 0x873 JUMP JUMPDEST DUP4 SSTORE POP JUMPDEST PUSH1 0x1 PUSH1 0x2 DUP9 MUL ADD DUP9 SSTORE POP POP POP JUMPDEST POP POP POP POP POP POP JUMP JUMPDEST PUSH0 DUP2 ISZERO ISZERO SWAP1 POP SWAP2 SWAP1 POP JUMP JUMPDEST PUSH2 0x98D DUP2 PUSH2 0x979 JUMP JUMPDEST DUP3 MSTORE POP POP JUMP JUMPDEST PUSH0 PUSH1 0x20 DUP3 ADD SWAP1 POP PUSH2 0x9A6 PUSH0 DUP4 ADD DUP5 PUSH2 0x984 JUMP JUMPDEST SWAP3 SWAP2 POP POP JUMP INVALID LOG2 PUSH5 0x6970667358 0x22 SLT KECCAK256 PUSH22 0xD7D9A77554E7B8346E167687DEFD9AB619CC424C0F1E 0xE7 RETURNDATACOPY SWAP13 DUP3 XOR EXTCODEHASH 0xDF 0x26 GT PUSH5 0x736F6C6343 STOP ADDMOD BYTE STOP CALLER "
				},
				"gasEstimates": {
					"creation": {
						"codeDepositCost": "506000",
						"executionCost": "24806",
						"totalCost": "530806"
					},
					"external": {
						"Simplilearn()": "2483",
						"getLearnerdetails(uint256)": "infinite",
						"learners(uint256)": "infinite",
						"setLearnerDetails(uint256,string,uint8)": "infinite"
					}
				},
				"methodIdentifiers": {
					"Simplilearn()": "44afd2ab",
					"getLearnerdetails(uint256)": "e98595dd",
					"learners(uint256)": "aa9e93f6",
					"setLearnerDetails(uint256,string,uint8)": "f535cfaa"
				}
			},
			"storageLayout": {
				"storage": [
					{
						"astId": 3,
						"contract": "contracts/bc class/const.sol:structSample",
						"label": "Simplilearn",
						"offset": 0,
						"slot": "0",
						"type": "t_address"
					},
					{
						"astId": 37,
						"contract": "contracts/bc class/const.sol:structSample",
						"label": "learners",
						"offset": 0,
						"slot": "1",
						"type": "t_mapping(t_uint256,t_struct(learner)32_storage)"
					}
				],
				"types": {
					"t_address": {
						"encoding": "inplace",
						"label": "address",
						"numberOfBytes": "20"
					},
					"t_mapping(t_uint256,t_struct(learner)32_storage)": {
						"encoding": "mapping",
						"key": "t_uint256",
						"label": "mapping(uint256 => struct structSample.learner)",
						"numberOfBytes": "32",
						"value": "t_struct(learner)32_storage"
					},
					"t_string_storage": {
						"encoding": "bytes",
						"label": "string",
						"numberOfBytes": "32"
					},
					"t_struct(learner)32_storage": {
						"encoding": "inplace",
						"label": "struct structSample.learner",
						"members": [
							{
								"astId": 29,
								"contract": "contracts/bc class/const.sol:structSample",
								"label": "name",
								"offset": 0,
								"slot": "0",
								"type": "t_string_storage"
							},
							{
								"astId": 31,
								"contract": "contracts/bc class/const.sol:structSample",
								"label": "age",
								"offset": 0,
								"slot": "1",
								"type": "t_uint8"
							}
						],
						"numberOfBytes": "64"
					},
					"t_uint256": {
						"encoding": "inplace",
						"label": "uint256",
						"numberOfBytes": "32"
					},
					"t_uint8": {
						"encoding": "inplace",
						"label": "uint8",
						"numberOfBytes": "1"
					}
				}
			},
			"userdoc": {
				"kind": "user",
				"methods": {},
				"version": 1
			}
		}
	}
}