{
	"contracts/logistics.sol": {
		"intellectualPropertyRegistry": {
			"abi": [
				{
					"inputs": [],
					"stateMutability": "nonpayable",
					"type": "constructor"
				},
				{
					"anonymous": false,
					"inputs": [
						{
							"indexed": true,
							"internalType": "uint256",
							"name": "id",
							"type": "uint256"
						},
						{
							"indexed": true,
							"internalType": "address",
							"name": "owner",
							"type": "address"
						}
					],
					"name": "IPRegistered",
					"type": "event"
				},
				{
					"anonymous": false,
					"inputs": [
						{
							"indexed": true,
							"internalType": "uint256",
							"name": "id",
							"type": "uint256"
						},
						{
							"indexed": true,
							"internalType": "address",
							"name": "verifier",
							"type": "address"
						}
					],
					"name": "IPVerified",
					"type": "event"
				},
				{
					"anonymous": false,
					"inputs": [
						{
							"indexed": true,
							"internalType": "uint256",
							"name": "id",
							"type": "uint256"
						},
						{
							"indexed": true,
							"internalType": "address",
							"name": "from",
							"type": "address"
						},
						{
							"indexed": true,
							"internalType": "address",
							"name": "to",
							"type": "address"
						}
					],
					"name": "OwnershipTransferred",
					"type": "event"
				},
				{
					"inputs": [],
					"name": "contractOwner",
					"outputs": [
						{
							"internalType": "address",
							"name": "",
							"type": "address"
						}
					],
					"stateMutability": "view",
					"type": "function"
				},
				{
					"inputs": [
						{
							"internalType": "uint256",
							"name": "_ipID",
							"type": "uint256"
						}
					],
					"name": "getIPDetails",
					"outputs": [
						{
							"internalType": "uint256",
							"name": "id",
							"type": "uint256"
						},
						{
							"internalType": "enum intellectualPropertyRegistry.IPType",
							"name": "ipType",
							"type": "uint8"
						},
						{
							"internalType": "string",
							"name": "description",
							"type": "string"
						},
						{
							"internalType": "address",
							"name": "currentOwner",
							"type": "address"
						},
						{
							"internalType": "bool",
							"name": "verified",
							"type": "bool"
						}
					],
					"stateMutability": "view",
					"type": "function"
				},
				{
					"inputs": [
						{
							"internalType": "uint256",
							"name": "_ipID",
							"type": "uint256"
						}
					],
					"name": "getOwnershipHistory",
					"outputs": [
						{
							"internalType": "address[]",
							"name": "",
							"type": "address[]"
						}
					],
					"stateMutability": "view",
					"type": "function"
				},
				{
					"inputs": [],
					"name": "ipCounter",
					"outputs": [
						{
							"internalType": "uint256",
							"name": "",
							"type": "uint256"
						}
					],
					"stateMutability": "view",
					"type": "function"
				},
				{
					"inputs": [
						{
							"internalType": "uint256",
							"name": "",
							"type": "uint256"
						}
					],
					"name": "ipRecords",
					"outputs": [
						{
							"internalType": "uint256",
							"name": "id",
							"type": "uint256"
						},
						{
							"internalType": "enum intellectualPropertyRegistry.IPType",
							"name": "ipType",
							"type": "uint8"
						},
						{
							"internalType": "string",
							"name": "description",
							"type": "string"
						},
						{
							"internalType": "address",
							"name": "currentOwner",
							"type": "address"
						},
						{
							"internalType": "bool",
							"name": "verified",
							"type": "bool"
						}
					],
					"stateMutability": "view",
					"type": "function"
				},
				{
					"inputs": [
						{
							"internalType": "uint8",
							"name": "_ipType",
							"type": "uint8"
						},
						{
							"internalType": "string",
							"name": "_description",
							"type": "string"
						}
					],
					"name": "registerIP",
					"outputs": [],
					"stateMutability": "nonpayable",
					"type": "function"
				},
				{
					"inputs": [
						{
							"internalType": "uint256",
							"name": "_ipID",
							"type": "uint256"
						},
						{
							"internalType": "address",
							"name": "_newOwner",
							"type": "address"
						}
					],
					"name": "transferOwnership",
					"outputs": [],
					"stateMutability": "nonpayable",
					"type": "function"
				},
				{
					"inputs": [
						{
							"internalType": "uint256",
							"name": "_ipID",
							"type": "uint256"
						}
					],
					"name": "verifyIP",
					"outputs": [],
					"stateMutability": "nonpayable",
					"type": "function"
				}
			],
			"devdoc": {
				"kind": "dev",
				"methods": {},
				"version": 1
			},
			"evm": {
				"assembly": "    /* \"contracts/logistics.sol\":58:3069  contract intellectualPropertyRegistry {... */\n  mstore(0x40, 0x80)\n    /* \"contracts/logistics.sol\":519:520  0 */\n  0x00\n    /* \"contracts/logistics.sol\":495:520  uint public ipCounter = 0 */\n  0x01\n  sstore\n    /* \"contracts/logistics.sol\":900:957  constructor() {... */\n  callvalue\n  dup1\n  iszero\n  tag_1\n  jumpi\n  0x00\n  dup1\n  revert\ntag_1:\n  pop\n    /* \"contracts/logistics.sol\":940:950  msg.sender */\n  caller\n    /* \"contracts/logistics.sol\":924:937  contractOwner */\n  0x00\n  dup1\n    /* \"contracts/logistics.sol\":924:950  contractOwner = msg.sender */\n  0x0100\n  exp\n  dup2\n  sload\n  dup2\n  0xffffffffffffffffffffffffffffffffffffffff\n  mul\n  not\n  and\n  swap1\n  dup4\n  0xffffffffffffffffffffffffffffffffffffffff\n  and\n  mul\n  or\n  swap1\n  sstore\n  pop\n    /* \"contracts/logistics.sol\":58:3069  contract intellectualPropertyRegistry {... */\n  dataSize(sub_0)\n  dup1\n  dataOffset(sub_0)\n  0x00\n  codecopy\n  0x00\n  return\nstop\n\nsub_0: assembly {\n        /* \"contracts/logistics.sol\":58:3069  contract intellectualPropertyRegistry {... */\n      mstore(0x40, 0x80)\n      callvalue\n      dup1\n      iszero\n      tag_1\n      jumpi\n      0x00\n      dup1\n      revert\n    tag_1:\n      pop\n      jumpi(tag_2, lt(calldatasize, 0x04))\n      shr(0xe0, calldataload(0x00))\n      dup1\n      0x52cff879\n      gt\n      tag_11\n      jumpi\n      dup1\n      0x52cff879\n      eq\n      tag_7\n      jumpi\n      dup1\n      0xce606ee0\n      eq\n      tag_8\n      jumpi\n      dup1\n      0xf1dbaccb\n      eq\n      tag_9\n      jumpi\n      dup1\n      0xfd9ed3a9\n      eq\n      tag_10\n      jumpi\n      jump(tag_2)\n    tag_11:\n      dup1\n      0x1e5c1c\n      eq\n      tag_3\n      jumpi\n      dup1\n      0x02c59bc6\n      eq\n      tag_4\n      jumpi\n      dup1\n      0x1feb4bfb\n      eq\n      tag_5\n      jumpi\n      dup1\n      0x29507f73\n      eq\n      tag_6\n      jumpi\n    tag_2:\n      0x00\n      dup1\n      revert\n        /* \"contracts/logistics.sol\":2373:2512  function verifyIP(uint _ipID) public onlyAdmin{... */\n    tag_3:\n      tag_12\n      0x04\n      dup1\n      calldatasize\n      sub\n      dup2\n      add\n      swap1\n      tag_13\n      swap2\n      swap1\n      tag_14\n      jump\t// in\n    tag_13:\n      tag_15\n      jump\t// in\n    tag_12:\n      stop\n        /* \"contracts/logistics.sol\":566:620  mapping(uint => intellectualProperty) public ipRecords */\n    tag_4:\n      tag_16\n      0x04\n      dup1\n      calldatasize\n      sub\n      dup2\n      add\n      swap1\n      tag_17\n      swap2\n      swap1\n      tag_14\n      jump\t// in\n    tag_17:\n      tag_18\n      jump\t// in\n    tag_16:\n      mload(0x40)\n      tag_19\n      swap6\n      swap5\n      swap4\n      swap3\n      swap2\n      swap1\n      tag_20\n      jump\t// in\n    tag_19:\n      mload(0x40)\n      dup1\n      swap2\n      sub\n      swap1\n      return\n        /* \"contracts/logistics.sol\":2551:2884  function getIPDetails(uint _ipID) public view returns(... */\n    tag_5:\n      tag_21\n      0x04\n      dup1\n      calldatasize\n      sub\n      dup2\n      add\n      swap1\n      tag_22\n      swap2\n      swap1\n      tag_14\n      jump\t// in\n    tag_22:\n      tag_23\n      jump\t// in\n    tag_21:\n      mload(0x40)\n      tag_24\n      swap6\n      swap5\n      swap4\n      swap3\n      swap2\n      swap1\n      tag_20\n      jump\t// in\n    tag_24:\n      mload(0x40)\n      dup1\n      swap2\n      sub\n      swap1\n      return\n        /* \"contracts/logistics.sol\":1931:2315  function transferOwnership(uint _ipID, address _newOwner) public onlyOwner(_ipID) {... */\n    tag_6:\n      tag_25\n      0x04\n      dup1\n      calldatasize\n      sub\n      dup2\n      add\n      swap1\n      tag_26\n      swap2\n      swap1\n      tag_27\n      jump\t// in\n    tag_26:\n      tag_28\n      jump\t// in\n    tag_25:\n      stop\n        /* \"contracts/logistics.sol\":495:520  uint public ipCounter = 0 */\n    tag_7:\n      tag_29\n      tag_30\n      jump\t// in\n    tag_29:\n      mload(0x40)\n      tag_31\n      swap2\n      swap1\n      tag_32\n      jump\t// in\n    tag_31:\n      mload(0x40)\n      dup1\n      swap2\n      sub\n      swap1\n      return\n        /* \"contracts/logistics.sol\":461:489  address public contractOwner */\n    tag_8:\n      tag_33\n      tag_34\n      jump\t// in\n    tag_33:\n      mload(0x40)\n      tag_35\n      swap2\n      swap1\n      tag_36\n      jump\t// in\n    tag_35:\n      mload(0x40)\n      dup1\n      swap2\n      sub\n      swap1\n      return\n        /* \"contracts/logistics.sol\":2930:3066  function getOwnershipHistory(uint _ipID) public view returns (address[] memory){... */\n    tag_9:\n      tag_37\n      0x04\n      dup1\n      calldatasize\n      sub\n      dup2\n      add\n      swap1\n      tag_38\n      swap2\n      swap1\n      tag_14\n      jump\t// in\n    tag_38:\n      tag_39\n      jump\t// in\n    tag_37:\n      mload(0x40)\n      tag_40\n      swap2\n      swap1\n      tag_41\n      jump\t// in\n    tag_40:\n      mload(0x40)\n      dup1\n      swap2\n      sub\n      swap1\n      return\n        /* \"contracts/logistics.sol\":1358:1870  function registerIP(uint8 _ipType, string memory _description) public {... */\n    tag_10:\n      tag_42\n      0x04\n      dup1\n      calldatasize\n      sub\n      dup2\n      add\n      swap1\n      tag_43\n      swap2\n      swap1\n      tag_44\n      jump\t// in\n    tag_43:\n      tag_45\n      jump\t// in\n    tag_42:\n      stop\n        /* \"contracts/logistics.sol\":2373:2512  function verifyIP(uint _ipID) public onlyAdmin{... */\n    tag_15:\n        /* \"contracts/logistics.sol\":1238:1251  contractOwner */\n      0x00\n      dup1\n      sload\n      swap1\n      0x0100\n      exp\n      swap1\n      div\n      0xffffffffffffffffffffffffffffffffffffffff\n      and\n        /* \"contracts/logistics.sol\":1226:1251  msg.sender==contractOwner */\n      0xffffffffffffffffffffffffffffffffffffffff\n      and\n        /* \"contracts/logistics.sol\":1226:1236  msg.sender */\n      caller\n        /* \"contracts/logistics.sol\":1226:1251  msg.sender==contractOwner */\n      0xffffffffffffffffffffffffffffffffffffffff\n      and\n      eq\n        /* \"contracts/logistics.sol\":1218:1271  require(msg.sender==contractOwner, \"Not authorized.\") */\n      tag_47\n      jumpi\n      mload(0x40)\n      0x08c379a000000000000000000000000000000000000000000000000000000000\n      dup2\n      mstore\n      0x04\n      add\n      tag_48\n      swap1\n      tag_49\n      jump\t// in\n    tag_48:\n      mload(0x40)\n      dup1\n      swap2\n      sub\n      swap1\n      revert\n    tag_47:\n        /* \"contracts/logistics.sol\":2457:2461  true */\n      0x01\n        /* \"contracts/logistics.sol\":2429:2438  ipRecords */\n      0x02\n        /* \"contracts/logistics.sol\":2429:2445  ipRecords[_ipID] */\n      0x00\n        /* \"contracts/logistics.sol\":2439:2444  _ipID */\n      dup4\n        /* \"contracts/logistics.sol\":2429:2445  ipRecords[_ipID] */\n      dup2\n      mstore\n      0x20\n      add\n      swap1\n      dup2\n      mstore\n      0x20\n      add\n      0x00\n      keccak256\n        /* \"contracts/logistics.sol\":2429:2454  ipRecords[_ipID].verified */\n      0x05\n      add\n      0x00\n        /* \"contracts/logistics.sol\":2429:2461  ipRecords[_ipID].verified = true */\n      0x0100\n      exp\n      dup2\n      sload\n      dup2\n      0xff\n      mul\n      not\n      and\n      swap1\n      dup4\n      iszero\n      iszero\n      mul\n      or\n      swap1\n      sstore\n      pop\n        /* \"contracts/logistics.sol\":2494:2504  msg.sender */\n      caller\n        /* \"contracts/logistics.sol\":2476:2505  IPVerified(_ipID, msg.sender) */\n      0xffffffffffffffffffffffffffffffffffffffff\n      and\n        /* \"contracts/logistics.sol\":2487:2492  _ipID */\n      dup2\n        /* \"contracts/logistics.sol\":2476:2505  IPVerified(_ipID, msg.sender) */\n      0x76ecd013710767654f52fb3745cfc70f66ad9c02fdcd90881e4f1c5e7c9b153e\n      mload(0x40)\n      mload(0x40)\n      dup1\n      swap2\n      sub\n      swap1\n      log3\n        /* \"contracts/logistics.sol\":2373:2512  function verifyIP(uint _ipID) public onlyAdmin{... */\n      pop\n      jump\t// out\n        /* \"contracts/logistics.sol\":566:620  mapping(uint => intellectualProperty) public ipRecords */\n    tag_18:\n      mstore(0x20, 0x02)\n      dup1\n      0x00\n      mstore\n      keccak256(0x00, 0x40)\n      0x00\n      swap2\n      pop\n      swap1\n      pop\n      dup1\n      0x00\n      add\n      sload\n      swap1\n      dup1\n      0x01\n      add\n      0x00\n      swap1\n      sload\n      swap1\n      0x0100\n      exp\n      swap1\n      div\n      0xff\n      and\n      swap1\n      dup1\n      0x02\n      add\n      dup1\n      sload\n      tag_51\n      swap1\n      tag_52\n      jump\t// in\n    tag_51:\n      dup1\n      0x1f\n      add\n      0x20\n      dup1\n      swap2\n      div\n      mul\n      0x20\n      add\n      mload(0x40)\n      swap1\n      dup2\n      add\n      0x40\n      mstore\n      dup1\n      swap3\n      swap2\n      swap1\n      dup2\n      dup2\n      mstore\n      0x20\n      add\n      dup3\n      dup1\n      sload\n      tag_53\n      swap1\n      tag_52\n      jump\t// in\n    tag_53:\n      dup1\n      iszero\n      tag_54\n      jumpi\n      dup1\n      0x1f\n      lt\n      tag_55\n      jumpi\n      0x0100\n      dup1\n      dup4\n      sload\n      div\n      mul\n      dup4\n      mstore\n      swap2\n      0x20\n      add\n      swap2\n      jump(tag_54)\n    tag_55:\n      dup3\n      add\n      swap2\n      swap1\n      0x00\n      mstore\n      keccak256(0x00, 0x20)\n      swap1\n    tag_56:\n      dup2\n      sload\n      dup2\n      mstore\n      swap1\n      0x01\n      add\n      swap1\n      0x20\n      add\n      dup1\n      dup4\n      gt\n      tag_56\n      jumpi\n      dup3\n      swap1\n      sub\n      0x1f\n      and\n      dup3\n      add\n      swap2\n    tag_54:\n      pop\n      pop\n      pop\n      pop\n      pop\n      swap1\n      dup1\n      0x03\n      add\n      0x00\n      swap1\n      sload\n      swap1\n      0x0100\n      exp\n      swap1\n      div\n      0xffffffffffffffffffffffffffffffffffffffff\n      and\n      swap1\n      dup1\n      0x05\n      add\n      0x00\n      swap1\n      sload\n      swap1\n      0x0100\n      exp\n      swap1\n      div\n      0xff\n      and\n      swap1\n      pop\n      dup6\n      jump\t// out\n        /* \"contracts/logistics.sol\":2551:2884  function getIPDetails(uint _ipID) public view returns(... */\n    tag_23:\n        /* \"contracts/logistics.sol\":2614:2621  uint id */\n      0x00\n        /* \"contracts/logistics.sol\":2631:2644  IPType ipType */\n      dup1\n        /* \"contracts/logistics.sol\":2654:2679  string memory description */\n      0x60\n        /* \"contracts/logistics.sol\":2689:2709  address currentOwner */\n      0x00\n        /* \"contracts/logistics.sol\":2719:2732  bool verified */\n      dup1\n        /* \"contracts/logistics.sol\":2749:2780  intellectualProperty storage ip */\n      0x00\n        /* \"contracts/logistics.sol\":2783:2792  ipRecords */\n      0x02\n        /* \"contracts/logistics.sol\":2783:2799  ipRecords[_ipID] */\n      0x00\n        /* \"contracts/logistics.sol\":2793:2798  _ipID */\n      dup9\n        /* \"contracts/logistics.sol\":2783:2799  ipRecords[_ipID] */\n      dup2\n      mstore\n      0x20\n      add\n      swap1\n      dup2\n      mstore\n      0x20\n      add\n      0x00\n      keccak256\n        /* \"contracts/logistics.sol\":2749:2799  intellectualProperty storage ip = ipRecords[_ipID] */\n      swap1\n      pop\n        /* \"contracts/logistics.sol\":2817:2819  id */\n      dup6\n        /* \"contracts/logistics.sol\":2821:2823  ip */\n      dup2\n        /* \"contracts/logistics.sol\":2821:2830  ip.ipType */\n      0x01\n      add\n      0x00\n      swap1\n      sload\n      swap1\n      0x0100\n      exp\n      swap1\n      div\n      0xff\n      and\n        /* \"contracts/logistics.sol\":2832:2834  ip */\n      dup3\n        /* \"contracts/logistics.sol\":2832:2846  ip.description */\n      0x02\n      add\n        /* \"contracts/logistics.sol\":2848:2850  ip */\n      dup4\n        /* \"contracts/logistics.sol\":2848:2863  ip.currentOwner */\n      0x03\n      add\n      0x00\n      swap1\n      sload\n      swap1\n      0x0100\n      exp\n      swap1\n      div\n      0xffffffffffffffffffffffffffffffffffffffff\n      and\n        /* \"contracts/logistics.sol\":2865:2867  ip */\n      dup5\n        /* \"contracts/logistics.sol\":2865:2876  ip.verified */\n      0x05\n      add\n      0x00\n      swap1\n      sload\n      swap1\n      0x0100\n      exp\n      swap1\n      div\n      0xff\n      and\n        /* \"contracts/logistics.sol\":2809:2877  return (id, ip.ipType, ip.description, ip.currentOwner, ip.verified) */\n      dup3\n      dup1\n      sload\n      tag_58\n      swap1\n      tag_52\n      jump\t// in\n    tag_58:\n      dup1\n      0x1f\n      add\n      0x20\n      dup1\n      swap2\n      div\n      mul\n      0x20\n      add\n      mload(0x40)\n      swap1\n      dup2\n      add\n      0x40\n      mstore\n      dup1\n      swap3\n      swap2\n      swap1\n      dup2\n      dup2\n      mstore\n      0x20\n      add\n      dup3\n      dup1\n      sload\n      tag_59\n      swap1\n      tag_52\n      jump\t// in\n    tag_59:\n      dup1\n      iszero\n      tag_60\n      jumpi\n      dup1\n      0x1f\n      lt\n      tag_61\n      jumpi\n      0x0100\n      dup1\n      dup4\n      sload\n      div\n      mul\n      dup4\n      mstore\n      swap2\n      0x20\n      add\n      swap2\n      jump(tag_60)\n    tag_61:\n      dup3\n      add\n      swap2\n      swap1\n      0x00\n      mstore\n      keccak256(0x00, 0x20)\n      swap1\n    tag_62:\n      dup2\n      sload\n      dup2\n      mstore\n      swap1\n      0x01\n      add\n      swap1\n      0x20\n      add\n      dup1\n      dup4\n      gt\n      tag_62\n      jumpi\n      dup3\n      swap1\n      sub\n      0x1f\n      and\n      dup3\n      add\n      swap2\n    tag_60:\n      pop\n      pop\n      pop\n      pop\n      pop\n      swap3\n      pop\n      swap6\n      pop\n      swap6\n      pop\n      swap6\n      pop\n      swap6\n      pop\n      swap6\n      pop\n      pop\n        /* \"contracts/logistics.sol\":2551:2884  function getIPDetails(uint _ipID) public view returns(... */\n      swap2\n      swap4\n      swap6\n      swap1\n      swap3\n      swap5\n      pop\n      jump\t// out\n        /* \"contracts/logistics.sol\":1931:2315  function transferOwnership(uint _ipID, address _newOwner) public onlyOwner(_ipID) {... */\n    tag_28:\n        /* \"contracts/logistics.sol\":2006:2011  _ipID */\n      dup2\n        /* \"contracts/logistics.sol\":1067:1076  ipRecords */\n      0x02\n        /* \"contracts/logistics.sol\":1067:1083  ipRecords[_ipID] */\n      0x00\n        /* \"contracts/logistics.sol\":1077:1082  _ipID */\n      dup3\n        /* \"contracts/logistics.sol\":1067:1083  ipRecords[_ipID] */\n      dup2\n      mstore\n      0x20\n      add\n      swap1\n      dup2\n      mstore\n      0x20\n      add\n      0x00\n      keccak256\n        /* \"contracts/logistics.sol\":1067:1096  ipRecords[_ipID].currentOwner */\n      0x03\n      add\n      0x00\n      swap1\n      sload\n      swap1\n      0x0100\n      exp\n      swap1\n      div\n      0xffffffffffffffffffffffffffffffffffffffff\n      and\n        /* \"contracts/logistics.sol\":1053:1096  msg.sender == ipRecords[_ipID].currentOwner */\n      0xffffffffffffffffffffffffffffffffffffffff\n      and\n        /* \"contracts/logistics.sol\":1053:1063  msg.sender */\n      caller\n        /* \"contracts/logistics.sol\":1053:1096  msg.sender == ipRecords[_ipID].currentOwner */\n      0xffffffffffffffffffffffffffffffffffffffff\n      and\n      eq\n        /* \"contracts/logistics.sol\":1045:1124  require(msg.sender == ipRecords[_ipID].currentOwner,\"Not the owner of this IP\") */\n      tag_64\n      jumpi\n      mload(0x40)\n      0x08c379a000000000000000000000000000000000000000000000000000000000\n      dup2\n      mstore\n      0x04\n      add\n      tag_65\n      swap1\n      tag_66\n      jump\t// in\n    tag_65:\n      mload(0x40)\n      dup1\n      swap2\n      sub\n      swap1\n      revert\n    tag_64:\n        /* \"contracts/logistics.sol\":2052:2053  0 */\n      0x00\n        /* \"contracts/logistics.sol\":2031:2054  _newOwner != address(0) */\n      0xffffffffffffffffffffffffffffffffffffffff\n      and\n        /* \"contracts/logistics.sol\":2031:2040  _newOwner */\n      dup3\n        /* \"contracts/logistics.sol\":2031:2054  _newOwner != address(0) */\n      0xffffffffffffffffffffffffffffffffffffffff\n      and\n      sub\n        /* \"contracts/logistics.sol\":2023:2076  require(_newOwner != address(0), 'Invalid new owner') */\n      tag_68\n      jumpi\n      mload(0x40)\n      0x08c379a000000000000000000000000000000000000000000000000000000000\n      dup2\n      mstore\n      0x04\n      add\n      tag_69\n      swap1\n      tag_70\n      jump\t// in\n    tag_69:\n      mload(0x40)\n      dup1\n      swap2\n      sub\n      swap1\n      revert\n    tag_68:\n        /* \"contracts/logistics.sol\":2086:2095  ipRecords */\n      0x02\n        /* \"contracts/logistics.sol\":2086:2102  ipRecords[_ipID] */\n      0x00\n        /* \"contracts/logistics.sol\":2096:2101  _ipID */\n      dup5\n        /* \"contracts/logistics.sol\":2086:2102  ipRecords[_ipID] */\n      dup2\n      mstore\n      0x20\n      add\n      swap1\n      dup2\n      mstore\n      0x20\n      add\n      0x00\n      keccak256\n        /* \"contracts/logistics.sol\":2086:2119  ipRecords[_ipID].ownershipHistory */\n      0x04\n      add\n        /* \"contracts/logistics.sol\":2125:2134  _newOwner */\n      dup3\n        /* \"contracts/logistics.sol\":2086:2135  ipRecords[_ipID].ownershipHistory.push(_newOwner) */\n      swap1\n      dup1\n      0x01\n      dup2\n      sload\n      add\n      dup1\n      dup3\n      sstore\n      dup1\n      swap2\n      pop\n      pop\n      0x01\n      swap1\n      sub\n      swap1\n      0x00\n      mstore\n      keccak256(0x00, 0x20)\n      add\n      0x00\n      swap1\n      swap2\n      swap1\n      swap2\n      swap1\n      swap2\n      0x0100\n      exp\n      dup2\n      sload\n      dup2\n      0xffffffffffffffffffffffffffffffffffffffff\n      mul\n      not\n      and\n      swap1\n      dup4\n      0xffffffffffffffffffffffffffffffffffffffff\n      and\n      mul\n      or\n      swap1\n      sstore\n      pop\n        /* \"contracts/logistics.sol\":2145:2161  address oldOwner */\n      0x00\n        /* \"contracts/logistics.sol\":2164:2173  ipRecords */\n      0x02\n        /* \"contracts/logistics.sol\":2164:2180  ipRecords[_ipID] */\n      0x00\n        /* \"contracts/logistics.sol\":2174:2179  _ipID */\n      dup6\n        /* \"contracts/logistics.sol\":2164:2180  ipRecords[_ipID] */\n      dup2\n      mstore\n      0x20\n      add\n      swap1\n      dup2\n      mstore\n      0x20\n      add\n      0x00\n      keccak256\n        /* \"contracts/logistics.sol\":2164:2193  ipRecords[_ipID].currentOwner */\n      0x03\n      add\n      0x00\n      swap1\n      sload\n      swap1\n      0x0100\n      exp\n      swap1\n      div\n      0xffffffffffffffffffffffffffffffffffffffff\n      and\n        /* \"contracts/logistics.sol\":2145:2193  address oldOwner = ipRecords[_ipID].currentOwner */\n      swap1\n      pop\n        /* \"contracts/logistics.sol\":2235:2244  _newOwner */\n      dup3\n        /* \"contracts/logistics.sol\":2203:2212  ipRecords */\n      0x02\n        /* \"contracts/logistics.sol\":2203:2219  ipRecords[_ipID] */\n      0x00\n        /* \"contracts/logistics.sol\":2213:2218  _ipID */\n      dup7\n        /* \"contracts/logistics.sol\":2203:2219  ipRecords[_ipID] */\n      dup2\n      mstore\n      0x20\n      add\n      swap1\n      dup2\n      mstore\n      0x20\n      add\n      0x00\n      keccak256\n        /* \"contracts/logistics.sol\":2203:2232  ipRecords[_ipID].currentOwner */\n      0x03\n      add\n      0x00\n        /* \"contracts/logistics.sol\":2203:2244  ipRecords[_ipID].currentOwner = _newOwner */\n      0x0100\n      exp\n      dup2\n      sload\n      dup2\n      0xffffffffffffffffffffffffffffffffffffffff\n      mul\n      not\n      and\n      swap1\n      dup4\n      0xffffffffffffffffffffffffffffffffffffffff\n      and\n      mul\n      or\n      swap1\n      sstore\n      pop\n        /* \"contracts/logistics.sol\":2298:2307  _newOwner */\n      dup3\n        /* \"contracts/logistics.sol\":2260:2308  OwnershipTransferred(_ipID, oldOwner, _newOwner) */\n      0xffffffffffffffffffffffffffffffffffffffff\n      and\n        /* \"contracts/logistics.sol\":2288:2296  oldOwner */\n      dup2\n        /* \"contracts/logistics.sol\":2260:2308  OwnershipTransferred(_ipID, oldOwner, _newOwner) */\n      0xffffffffffffffffffffffffffffffffffffffff\n      and\n        /* \"contracts/logistics.sol\":2281:2286  _ipID */\n      dup6\n        /* \"contracts/logistics.sol\":2260:2308  OwnershipTransferred(_ipID, oldOwner, _newOwner) */\n      0x16b85f49bf01212961345d3016c9a531894accf62eb7680f2045d79185cc0ec0\n      mload(0x40)\n      mload(0x40)\n      dup1\n      swap2\n      sub\n      swap1\n      log4\n        /* \"contracts/logistics.sol\":2013:2315  {... */\n      pop\n        /* \"contracts/logistics.sol\":1931:2315  function transferOwnership(uint _ipID, address _newOwner) public onlyOwner(_ipID) {... */\n      pop\n      pop\n      pop\n      jump\t// out\n        /* \"contracts/logistics.sol\":495:520  uint public ipCounter = 0 */\n    tag_30:\n      sload(0x01)\n      dup2\n      jump\t// out\n        /* \"contracts/logistics.sol\":461:489  address public contractOwner */\n    tag_34:\n      0x00\n      dup1\n      sload\n      swap1\n      0x0100\n      exp\n      swap1\n      div\n      0xffffffffffffffffffffffffffffffffffffffff\n      and\n      dup2\n      jump\t// out\n        /* \"contracts/logistics.sol\":2930:3066  function getOwnershipHistory(uint _ipID) public view returns (address[] memory){... */\n    tag_39:\n        /* \"contracts/logistics.sol\":2992:3008  address[] memory */\n      0x60\n        /* \"contracts/logistics.sol\":3026:3035  ipRecords */\n      0x02\n        /* \"contracts/logistics.sol\":3026:3042  ipRecords[_ipID] */\n      0x00\n        /* \"contracts/logistics.sol\":3036:3041  _ipID */\n      dup4\n        /* \"contracts/logistics.sol\":3026:3042  ipRecords[_ipID] */\n      dup2\n      mstore\n      0x20\n      add\n      swap1\n      dup2\n      mstore\n      0x20\n      add\n      0x00\n      keccak256\n        /* \"contracts/logistics.sol\":3026:3059  ipRecords[_ipID].ownershipHistory */\n      0x04\n      add\n        /* \"contracts/logistics.sol\":3019:3059  return ipRecords[_ipID].ownershipHistory */\n      dup1\n      sload\n      dup1\n      0x20\n      mul\n      0x20\n      add\n      mload(0x40)\n      swap1\n      dup2\n      add\n      0x40\n      mstore\n      dup1\n      swap3\n      swap2\n      swap1\n      dup2\n      dup2\n      mstore\n      0x20\n      add\n      dup3\n      dup1\n      sload\n      dup1\n      iszero\n      tag_73\n      jumpi\n      0x20\n      mul\n      dup3\n      add\n      swap2\n      swap1\n      0x00\n      mstore\n      keccak256(0x00, 0x20)\n      swap1\n    tag_74:\n      dup2\n      0x00\n      swap1\n      sload\n      swap1\n      0x0100\n      exp\n      swap1\n      div\n      0xffffffffffffffffffffffffffffffffffffffff\n      and\n      0xffffffffffffffffffffffffffffffffffffffff\n      and\n      dup2\n      mstore\n      0x20\n      add\n      swap1\n      0x01\n      add\n      swap1\n      dup1\n      dup4\n      gt\n      tag_74\n      jumpi\n    tag_73:\n      pop\n      pop\n      pop\n      pop\n      pop\n      swap1\n      pop\n        /* \"contracts/logistics.sol\":2930:3066  function getOwnershipHistory(uint _ipID) public view returns (address[] memory){... */\n      swap2\n      swap1\n      pop\n      jump\t// out\n        /* \"contracts/logistics.sol\":1358:1870  function registerIP(uint8 _ipType, string memory _description) public {... */\n    tag_45:\n        /* \"contracts/logistics.sol\":1464:1480  IPType.Trademark */\n      0x02\n        /* \"contracts/logistics.sol\":1458:1481  uint8(IPType.Trademark) */\n      dup1\n      dup2\n      gt\n      iszero\n      tag_76\n      jumpi\n      tag_77\n      tag_78\n      jump\t// in\n    tag_77:\n    tag_76:\n        /* \"contracts/logistics.sol\":1447:1481  _ipType <= uint8(IPType.Trademark) */\n      0xff\n      and\n        /* \"contracts/logistics.sol\":1447:1454  _ipType */\n      dup3\n        /* \"contracts/logistics.sol\":1447:1481  _ipType <= uint8(IPType.Trademark) */\n      0xff\n      and\n      gt\n      iszero\n        /* \"contracts/logistics.sol\":1439:1500  require(_ipType <= uint8(IPType.Trademark),\"Invalid IP Type\") */\n      tag_79\n      jumpi\n      mload(0x40)\n      0x08c379a000000000000000000000000000000000000000000000000000000000\n      dup2\n      mstore\n      0x04\n      add\n      tag_80\n      swap1\n      tag_81\n      jump\t// in\n    tag_80:\n      mload(0x40)\n      dup1\n      swap2\n      sub\n      swap1\n      revert\n    tag_79:\n        /* \"contracts/logistics.sol\":1512:1521  ipCounter */\n      0x01\n      0x00\n        /* \"contracts/logistics.sol\":1510:1521  ++ipCounter */\n      dup2\n      sload\n      tag_82\n      swap1\n      tag_83\n      jump\t// in\n    tag_82:\n      swap2\n      swap1\n      pop\n      dup2\n      swap1\n      sstore\n      pop\n        /* \"contracts/logistics.sol\":1531:1555  address[] memory history */\n      0x00\n        /* \"contracts/logistics.sol\":1572:1573  1 */\n      0x01\n        /* \"contracts/logistics.sol\":1558:1574  new address[](1) */\n      0xffffffffffffffff\n      dup2\n      gt\n      iszero\n      tag_84\n      jumpi\n      tag_85\n      tag_86\n      jump\t// in\n    tag_85:\n    tag_84:\n      mload(0x40)\n      swap1\n      dup1\n      dup3\n      mstore\n      dup1\n      0x20\n      mul\n      0x20\n      add\n      dup3\n      add\n      0x40\n      mstore\n      dup1\n      iszero\n      tag_87\n      jumpi\n      dup2\n      0x20\n      add\n      0x20\n      dup3\n      mul\n      dup1\n      calldatasize\n      dup4\n      calldatacopy\n      dup1\n      dup3\n      add\n      swap2\n      pop\n      pop\n      swap1\n      pop\n    tag_87:\n      pop\n        /* \"contracts/logistics.sol\":1531:1574  address[] memory history = new address[](1) */\n      swap1\n      pop\n        /* \"contracts/logistics.sol\":1597:1607  msg.sender */\n      caller\n        /* \"contracts/logistics.sol\":1584:1591  history */\n      dup2\n        /* \"contracts/logistics.sol\":1592:1593  0 */\n      0x00\n        /* \"contracts/logistics.sol\":1584:1594  history[0] */\n      dup2\n      mload\n      dup2\n      lt\n      tag_88\n      jumpi\n      tag_89\n      tag_90\n      jump\t// in\n    tag_89:\n    tag_88:\n      0x20\n      mul\n      0x20\n      add\n      add\n        /* \"contracts/logistics.sol\":1584:1607  history[0] = msg.sender */\n      swap1\n      0xffffffffffffffffffffffffffffffffffffffff\n      and\n      swap1\n      dup2\n      0xffffffffffffffffffffffffffffffffffffffff\n      and\n      dup2\n      mstore\n      pop\n      pop\n        /* \"contracts/logistics.sol\":1640:1812  intellectualProperty(... */\n      mload(0x40)\n      dup1\n      0xc0\n      add\n      0x40\n      mstore\n      dup1\n        /* \"contracts/logistics.sol\":1674:1683  ipCounter */\n      sload(0x01)\n        /* \"contracts/logistics.sol\":1640:1812  intellectualProperty(... */\n      dup2\n      mstore\n      0x20\n      add\n        /* \"contracts/logistics.sol\":1704:1711  _ipType */\n      dup5\n        /* \"contracts/logistics.sol\":1697:1712  IPType(_ipType) */\n      0xff\n      and\n      0x02\n      dup2\n      gt\n      iszero\n      tag_91\n      jumpi\n      tag_92\n      tag_78\n      jump\t// in\n    tag_92:\n    tag_91:\n        /* \"contracts/logistics.sol\":1640:1812  intellectualProperty(... */\n      0x02\n      dup2\n      gt\n      iszero\n      tag_93\n      jumpi\n      tag_94\n      tag_78\n      jump\t// in\n    tag_94:\n    tag_93:\n      dup2\n      mstore\n      0x20\n      add\n        /* \"contracts/logistics.sol\":1726:1738  _description */\n      dup4\n        /* \"contracts/logistics.sol\":1640:1812  intellectualProperty(... */\n      dup2\n      mstore\n      0x20\n      add\n        /* \"contracts/logistics.sol\":1752:1762  msg.sender */\n      caller\n        /* \"contracts/logistics.sol\":1640:1812  intellectualProperty(... */\n      0xffffffffffffffffffffffffffffffffffffffff\n      and\n      dup2\n      mstore\n      0x20\n      add\n        /* \"contracts/logistics.sol\":1776:1783  history */\n      dup3\n        /* \"contracts/logistics.sol\":1640:1812  intellectualProperty(... */\n      dup2\n      mstore\n      0x20\n      add\n        /* \"contracts/logistics.sol\":1797:1802  false */\n      0x00\n        /* \"contracts/logistics.sol\":1640:1812  intellectualProperty(... */\n      iszero\n      iszero\n      dup2\n      mstore\n      pop\n        /* \"contracts/logistics.sol\":1617:1626  ipRecords */\n      0x02\n        /* \"contracts/logistics.sol\":1617:1637  ipRecords[ipCounter] */\n      0x00\n        /* \"contracts/logistics.sol\":1627:1636  ipCounter */\n      sload(0x01)\n        /* \"contracts/logistics.sol\":1617:1637  ipRecords[ipCounter] */\n      dup2\n      mstore\n      0x20\n      add\n      swap1\n      dup2\n      mstore\n      0x20\n      add\n      0x00\n      keccak256\n        /* \"contracts/logistics.sol\":1617:1812  ipRecords[ipCounter] = intellectualProperty(... */\n      0x00\n      dup3\n      add\n      mload\n      dup2\n      0x00\n      add\n      sstore\n      0x20\n      dup3\n      add\n      mload\n      dup2\n      0x01\n      add\n      exp(0x0100, 0x00)\n      dup2\n      sload\n      dup2\n      0xff\n      mul\n      not\n      and\n      swap1\n      dup4\n      0x02\n      dup2\n      gt\n      iszero\n      tag_95\n      jumpi\n      tag_96\n      tag_78\n      jump\t// in\n    tag_96:\n    tag_95:\n      mul\n      or\n      swap1\n      sstore\n      pop\n      0x40\n      dup3\n      add\n      mload\n      dup2\n      0x02\n      add\n      swap1\n      dup2\n      tag_97\n      swap2\n      swap1\n      tag_98\n      jump\t// in\n    tag_97:\n      pop\n      0x60\n      dup3\n      add\n      mload\n      dup2\n      0x03\n      add\n      exp(0x0100, 0x00)\n      dup2\n      sload\n      dup2\n      0xffffffffffffffffffffffffffffffffffffffff\n      mul\n      not\n      and\n      swap1\n      dup4\n      0xffffffffffffffffffffffffffffffffffffffff\n      and\n      mul\n      or\n      swap1\n      sstore\n      pop\n      0x80\n      dup3\n      add\n      mload\n      dup2\n      0x04\n      add\n      swap1\n      dup1\n      mload\n      swap1\n      0x20\n      add\n      swap1\n      tag_99\n      swap3\n      swap2\n      swap1\n      tag_100\n      jump\t// in\n    tag_99:\n      pop\n      0xa0\n      dup3\n      add\n      mload\n      dup2\n      0x05\n      add\n      exp(0x0100, 0x00)\n      dup2\n      sload\n      dup2\n      0xff\n      mul\n      not\n      and\n      swap1\n      dup4\n      iszero\n      iszero\n      mul\n      or\n      swap1\n      sstore\n      pop\n      swap1\n      pop\n      pop\n        /* \"contracts/logistics.sol\":1852:1862  msg.sender */\n      caller\n        /* \"contracts/logistics.sol\":1828:1863  IPRegistered(ipCounter, msg.sender) */\n      0xffffffffffffffffffffffffffffffffffffffff\n      and\n        /* \"contracts/logistics.sol\":1841:1850  ipCounter */\n      sload(0x01)\n        /* \"contracts/logistics.sol\":1828:1863  IPRegistered(ipCounter, msg.sender) */\n      0x648163406997920c887ef548f40c15ae4a381833ea1a354567a97403d74b3bee\n      mload(0x40)\n      mload(0x40)\n      dup1\n      swap2\n      sub\n      swap1\n      log3\n        /* \"contracts/logistics.sol\":1428:1870  {... */\n      pop\n        /* \"contracts/logistics.sol\":1358:1870  function registerIP(uint8 _ipType, string memory _description) public {... */\n      pop\n      pop\n      jump\t// out\n    tag_100:\n      dup3\n      dup1\n      sload\n      dup3\n      dup3\n      sstore\n      swap1\n      0x00\n      mstore\n      keccak256(0x00, 0x20)\n      swap1\n      dup2\n      add\n      swap3\n      dup3\n      iszero\n      tag_101\n      jumpi\n      swap2\n      0x20\n      mul\n      dup3\n      add\n    tag_102:\n      dup3\n      dup2\n      gt\n      iszero\n      tag_103\n      jumpi\n      dup3\n      mload\n      dup3\n      exp(0x0100, 0x00)\n      dup2\n      sload\n      dup2\n      0xffffffffffffffffffffffffffffffffffffffff\n      mul\n      not\n      and\n      swap1\n      dup4\n      0xffffffffffffffffffffffffffffffffffffffff\n      and\n      mul\n      or\n      swap1\n      sstore\n      pop\n      swap2\n      0x20\n      add\n      swap2\n      swap1\n      0x01\n      add\n      swap1\n      jump(tag_102)\n    tag_103:\n    tag_101:\n      pop\n      swap1\n      pop\n      tag_104\n      swap2\n      swap1\n      tag_105\n      jump\t// in\n    tag_104:\n      pop\n      swap1\n      jump\t// out\n    tag_105:\n    tag_106:\n      dup1\n      dup3\n      gt\n      iszero\n      tag_107\n      jumpi\n      0x00\n      dup2\n      0x00\n      swap1\n      sstore\n      pop\n      0x01\n      add\n      jump(tag_106)\n    tag_107:\n      pop\n      swap1\n      jump\t// out\n        /* \"#utility.yul\":7:82   */\n    tag_108:\n        /* \"#utility.yul\":40:46   */\n      0x00\n        /* \"#utility.yul\":73:75   */\n      0x40\n        /* \"#utility.yul\":67:76   */\n      mload\n        /* \"#utility.yul\":57:76   */\n      swap1\n      pop\n        /* \"#utility.yul\":7:82   */\n      swap1\n      jump\t// out\n        /* \"#utility.yul\":88:205   */\n    tag_109:\n        /* \"#utility.yul\":197:198   */\n      0x00\n        /* \"#utility.yul\":194:195   */\n      dup1\n        /* \"#utility.yul\":187:199   */\n      revert\n        /* \"#utility.yul\":211:328   */\n    tag_110:\n        /* \"#utility.yul\":320:321   */\n      0x00\n        /* \"#utility.yul\":317:318   */\n      dup1\n        /* \"#utility.yul\":310:322   */\n      revert\n        /* \"#utility.yul\":334:411   */\n    tag_111:\n        /* \"#utility.yul\":371:378   */\n      0x00\n        /* \"#utility.yul\":400:405   */\n      dup2\n        /* \"#utility.yul\":389:405   */\n      swap1\n      pop\n        /* \"#utility.yul\":334:411   */\n      swap2\n      swap1\n      pop\n      jump\t// out\n        /* \"#utility.yul\":417:539   */\n    tag_112:\n        /* \"#utility.yul\":490:514   */\n      tag_180\n        /* \"#utility.yul\":508:513   */\n      dup2\n        /* \"#utility.yul\":490:514   */\n      tag_111\n      jump\t// in\n    tag_180:\n        /* \"#utility.yul\":483:488   */\n      dup2\n        /* \"#utility.yul\":480:515   */\n      eq\n        /* \"#utility.yul\":470:533   */\n      tag_181\n      jumpi\n        /* \"#utility.yul\":529:530   */\n      0x00\n        /* \"#utility.yul\":526:527   */\n      dup1\n        /* \"#utility.yul\":519:531   */\n      revert\n        /* \"#utility.yul\":470:533   */\n    tag_181:\n        /* \"#utility.yul\":417:539   */\n      pop\n      jump\t// out\n        /* \"#utility.yul\":545:684   */\n    tag_113:\n        /* \"#utility.yul\":591:596   */\n      0x00\n        /* \"#utility.yul\":629:635   */\n      dup2\n        /* \"#utility.yul\":616:636   */\n      calldataload\n        /* \"#utility.yul\":607:636   */\n      swap1\n      pop\n        /* \"#utility.yul\":645:678   */\n      tag_183\n        /* \"#utility.yul\":672:677   */\n      dup2\n        /* \"#utility.yul\":645:678   */\n      tag_112\n      jump\t// in\n    tag_183:\n        /* \"#utility.yul\":545:684   */\n      swap3\n      swap2\n      pop\n      pop\n      jump\t// out\n        /* \"#utility.yul\":690:1019   */\n    tag_14:\n        /* \"#utility.yul\":749:755   */\n      0x00\n        /* \"#utility.yul\":798:800   */\n      0x20\n        /* \"#utility.yul\":786:795   */\n      dup3\n        /* \"#utility.yul\":777:784   */\n      dup5\n        /* \"#utility.yul\":773:796   */\n      sub\n        /* \"#utility.yul\":769:801   */\n      slt\n        /* \"#utility.yul\":766:885   */\n      iszero\n      tag_185\n      jumpi\n        /* \"#utility.yul\":804:883   */\n      tag_186\n      tag_109\n      jump\t// in\n    tag_186:\n        /* \"#utility.yul\":766:885   */\n    tag_185:\n        /* \"#utility.yul\":924:925   */\n      0x00\n        /* \"#utility.yul\":949:1002   */\n      tag_187\n        /* \"#utility.yul\":994:1001   */\n      dup5\n        /* \"#utility.yul\":985:991   */\n      dup3\n        /* \"#utility.yul\":974:983   */\n      dup6\n        /* \"#utility.yul\":970:992   */\n      add\n        /* \"#utility.yul\":949:1002   */\n      tag_113\n      jump\t// in\n    tag_187:\n        /* \"#utility.yul\":939:1002   */\n      swap2\n      pop\n        /* \"#utility.yul\":895:1012   */\n      pop\n        /* \"#utility.yul\":690:1019   */\n      swap3\n      swap2\n      pop\n      pop\n      jump\t// out\n        /* \"#utility.yul\":1025:1143   */\n    tag_114:\n        /* \"#utility.yul\":1112:1136   */\n      tag_189\n        /* \"#utility.yul\":1130:1135   */\n      dup2\n        /* \"#utility.yul\":1112:1136   */\n      tag_111\n      jump\t// in\n    tag_189:\n        /* \"#utility.yul\":1107:1110   */\n      dup3\n        /* \"#utility.yul\":1100:1137   */\n      mstore\n        /* \"#utility.yul\":1025:1143   */\n      pop\n      pop\n      jump\t// out\n        /* \"#utility.yul\":1149:1329   */\n    tag_78:\n        /* \"#utility.yul\":1197:1274   */\n      0x4e487b7100000000000000000000000000000000000000000000000000000000\n        /* \"#utility.yul\":1194:1195   */\n      0x00\n        /* \"#utility.yul\":1187:1275   */\n      mstore\n        /* \"#utility.yul\":1294:1298   */\n      0x21\n        /* \"#utility.yul\":1291:1292   */\n      0x04\n        /* \"#utility.yul\":1284:1299   */\n      mstore\n        /* \"#utility.yul\":1318:1322   */\n      0x24\n        /* \"#utility.yul\":1315:1316   */\n      0x00\n        /* \"#utility.yul\":1308:1323   */\n      revert\n        /* \"#utility.yul\":1335:1448   */\n    tag_115:\n        /* \"#utility.yul\":1416:1417   */\n      0x03\n        /* \"#utility.yul\":1409:1414   */\n      dup2\n        /* \"#utility.yul\":1406:1418   */\n      lt\n        /* \"#utility.yul\":1396:1442   */\n      tag_192\n      jumpi\n        /* \"#utility.yul\":1422:1440   */\n      tag_193\n      tag_78\n      jump\t// in\n    tag_193:\n        /* \"#utility.yul\":1396:1442   */\n    tag_192:\n        /* \"#utility.yul\":1335:1448   */\n      pop\n      jump\t// out\n        /* \"#utility.yul\":1454:1581   */\n    tag_116:\n        /* \"#utility.yul\":1499:1506   */\n      0x00\n        /* \"#utility.yul\":1528:1533   */\n      dup2\n        /* \"#utility.yul\":1517:1533   */\n      swap1\n      pop\n        /* \"#utility.yul\":1534:1575   */\n      tag_195\n        /* \"#utility.yul\":1569:1574   */\n      dup3\n        /* \"#utility.yul\":1534:1575   */\n      tag_115\n      jump\t// in\n    tag_195:\n        /* \"#utility.yul\":1454:1581   */\n      swap2\n      swap1\n      pop\n      jump\t// out\n        /* \"#utility.yul\":1587:1714   */\n    tag_117:\n        /* \"#utility.yul\":1643:1652   */\n      0x00\n        /* \"#utility.yul\":1676:1708   */\n      tag_197\n        /* \"#utility.yul\":1702:1707   */\n      dup3\n        /* \"#utility.yul\":1676:1708   */\n      tag_116\n      jump\t// in\n    tag_197:\n        /* \"#utility.yul\":1663:1708   */\n      swap1\n      pop\n        /* \"#utility.yul\":1587:1714   */\n      swap2\n      swap1\n      pop\n      jump\t// out\n        /* \"#utility.yul\":1720:1863   */\n    tag_118:\n        /* \"#utility.yul\":1813:1856   */\n      tag_199\n        /* \"#utility.yul\":1850:1855   */\n      dup2\n        /* \"#utility.yul\":1813:1856   */\n      tag_117\n      jump\t// in\n    tag_199:\n        /* \"#utility.yul\":1808:1811   */\n      dup3\n        /* \"#utility.yul\":1801:1857   */\n      mstore\n        /* \"#utility.yul\":1720:1863   */\n      pop\n      pop\n      jump\t// out\n        /* \"#utility.yul\":1869:1968   */\n    tag_119:\n        /* \"#utility.yul\":1921:1927   */\n      0x00\n        /* \"#utility.yul\":1955:1960   */\n      dup2\n        /* \"#utility.yul\":1949:1961   */\n      mload\n        /* \"#utility.yul\":1939:1961   */\n      swap1\n      pop\n        /* \"#utility.yul\":1869:1968   */\n      swap2\n      swap1\n      pop\n      jump\t// out\n        /* \"#utility.yul\":1974:2143   */\n    tag_120:\n        /* \"#utility.yul\":2058:2069   */\n      0x00\n        /* \"#utility.yul\":2092:2098   */\n      dup3\n        /* \"#utility.yul\":2087:2090   */\n      dup3\n        /* \"#utility.yul\":2080:2099   */\n      mstore\n        /* \"#utility.yul\":2132:2136   */\n      0x20\n        /* \"#utility.yul\":2127:2130   */\n      dup3\n        /* \"#utility.yul\":2123:2137   */\n      add\n        /* \"#utility.yul\":2108:2137   */\n      swap1\n      pop\n        /* \"#utility.yul\":1974:2143   */\n      swap3\n      swap2\n      pop\n      pop\n      jump\t// out\n        /* \"#utility.yul\":2149:2288   */\n    tag_121:\n        /* \"#utility.yul\":2238:2244   */\n      dup3\n        /* \"#utility.yul\":2233:2236   */\n      dup2\n        /* \"#utility.yul\":2228:2231   */\n      dup4\n        /* \"#utility.yul\":2222:2245   */\n      mcopy\n        /* \"#utility.yul\":2279:2280   */\n      0x00\n        /* \"#utility.yul\":2270:2276   */\n      dup4\n        /* \"#utility.yul\":2265:2268   */\n      dup4\n        /* \"#utility.yul\":2261:2277   */\n      add\n        /* \"#utility.yul\":2254:2281   */\n      mstore\n        /* \"#utility.yul\":2149:2288   */\n      pop\n      pop\n      pop\n      jump\t// out\n        /* \"#utility.yul\":2294:2396   */\n    tag_122:\n        /* \"#utility.yul\":2335:2341   */\n      0x00\n        /* \"#utility.yul\":2386:2388   */\n      0x1f\n        /* \"#utility.yul\":2382:2389   */\n      not\n        /* \"#utility.yul\":2377:2379   */\n      0x1f\n        /* \"#utility.yul\":2370:2375   */\n      dup4\n        /* \"#utility.yul\":2366:2380   */\n      add\n        /* \"#utility.yul\":2362:2390   */\n      and\n        /* \"#utility.yul\":2352:2390   */\n      swap1\n      pop\n        /* \"#utility.yul\":2294:2396   */\n      swap2\n      swap1\n      pop\n      jump\t// out\n        /* \"#utility.yul\":2402:2779   */\n    tag_123:\n        /* \"#utility.yul\":2490:2493   */\n      0x00\n        /* \"#utility.yul\":2518:2557   */\n      tag_205\n        /* \"#utility.yul\":2551:2556   */\n      dup3\n        /* \"#utility.yul\":2518:2557   */\n      tag_119\n      jump\t// in\n    tag_205:\n        /* \"#utility.yul\":2573:2644   */\n      tag_206\n        /* \"#utility.yul\":2637:2643   */\n      dup2\n        /* \"#utility.yul\":2632:2635   */\n      dup6\n        /* \"#utility.yul\":2573:2644   */\n      tag_120\n      jump\t// in\n    tag_206:\n        /* \"#utility.yul\":2566:2644   */\n      swap4\n      pop\n        /* \"#utility.yul\":2653:2718   */\n      tag_207\n        /* \"#utility.yul\":2711:2717   */\n      dup2\n        /* \"#utility.yul\":2706:2709   */\n      dup6\n        /* \"#utility.yul\":2699:2703   */\n      0x20\n        /* \"#utility.yul\":2692:2697   */\n      dup7\n        /* \"#utility.yul\":2688:2704   */\n      add\n        /* \"#utility.yul\":2653:2718   */\n      tag_121\n      jump\t// in\n    tag_207:\n        /* \"#utility.yul\":2743:2772   */\n      tag_208\n        /* \"#utility.yul\":2765:2771   */\n      dup2\n        /* \"#utility.yul\":2743:2772   */\n      tag_122\n      jump\t// in\n    tag_208:\n        /* \"#utility.yul\":2738:2741   */\n      dup5\n        /* \"#utility.yul\":2734:2773   */\n      add\n        /* \"#utility.yul\":2727:2773   */\n      swap2\n      pop\n        /* \"#utility.yul\":2494:2779   */\n      pop\n        /* \"#utility.yul\":2402:2779   */\n      swap3\n      swap2\n      pop\n      pop\n      jump\t// out\n        /* \"#utility.yul\":2785:2911   */\n    tag_124:\n        /* \"#utility.yul\":2822:2829   */\n      0x00\n        /* \"#utility.yul\":2862:2904   */\n      0xffffffffffffffffffffffffffffffffffffffff\n        /* \"#utility.yul\":2855:2860   */\n      dup3\n        /* \"#utility.yul\":2851:2905   */\n      and\n        /* \"#utility.yul\":2840:2905   */\n      swap1\n      pop\n        /* \"#utility.yul\":2785:2911   */\n      swap2\n      swap1\n      pop\n      jump\t// out\n        /* \"#utility.yul\":2917:3013   */\n    tag_125:\n        /* \"#utility.yul\":2954:2961   */\n      0x00\n        /* \"#utility.yul\":2983:3007   */\n      tag_211\n        /* \"#utility.yul\":3001:3006   */\n      dup3\n        /* \"#utility.yul\":2983:3007   */\n      tag_124\n      jump\t// in\n    tag_211:\n        /* \"#utility.yul\":2972:3007   */\n      swap1\n      pop\n        /* \"#utility.yul\":2917:3013   */\n      swap2\n      swap1\n      pop\n      jump\t// out\n        /* \"#utility.yul\":3019:3137   */\n    tag_126:\n        /* \"#utility.yul\":3106:3130   */\n      tag_213\n        /* \"#utility.yul\":3124:3129   */\n      dup2\n        /* \"#utility.yul\":3106:3130   */\n      tag_125\n      jump\t// in\n    tag_213:\n        /* \"#utility.yul\":3101:3104   */\n      dup3\n        /* \"#utility.yul\":3094:3131   */\n      mstore\n        /* \"#utility.yul\":3019:3137   */\n      pop\n      pop\n      jump\t// out\n        /* \"#utility.yul\":3143:3233   */\n    tag_127:\n        /* \"#utility.yul\":3177:3184   */\n      0x00\n        /* \"#utility.yul\":3220:3225   */\n      dup2\n        /* \"#utility.yul\":3213:3226   */\n      iszero\n        /* \"#utility.yul\":3206:3227   */\n      iszero\n        /* \"#utility.yul\":3195:3227   */\n      swap1\n      pop\n        /* \"#utility.yul\":3143:3233   */\n      swap2\n      swap1\n      pop\n      jump\t// out\n        /* \"#utility.yul\":3239:3348   */\n    tag_128:\n        /* \"#utility.yul\":3320:3341   */\n      tag_216\n        /* \"#utility.yul\":3335:3340   */\n      dup2\n        /* \"#utility.yul\":3320:3341   */\n      tag_127\n      jump\t// in\n    tag_216:\n        /* \"#utility.yul\":3315:3318   */\n      dup3\n        /* \"#utility.yul\":3308:3342   */\n      mstore\n        /* \"#utility.yul\":3239:3348   */\n      pop\n      pop\n      jump\t// out\n        /* \"#utility.yul\":3354:4109   */\n    tag_20:\n        /* \"#utility.yul\":3579:3583   */\n      0x00\n        /* \"#utility.yul\":3617:3620   */\n      0xa0\n        /* \"#utility.yul\":3606:3615   */\n      dup3\n        /* \"#utility.yul\":3602:3621   */\n      add\n        /* \"#utility.yul\":3594:3621   */\n      swap1\n      pop\n        /* \"#utility.yul\":3631:3702   */\n      tag_218\n        /* \"#utility.yul\":3699:3700   */\n      0x00\n        /* \"#utility.yul\":3688:3697   */\n      dup4\n        /* \"#utility.yul\":3684:3701   */\n      add\n        /* \"#utility.yul\":3675:3681   */\n      dup9\n        /* \"#utility.yul\":3631:3702   */\n      tag_114\n      jump\t// in\n    tag_218:\n        /* \"#utility.yul\":3712:3790   */\n      tag_219\n        /* \"#utility.yul\":3786:3788   */\n      0x20\n        /* \"#utility.yul\":3775:3784   */\n      dup4\n        /* \"#utility.yul\":3771:3789   */\n      add\n        /* \"#utility.yul\":3762:3768   */\n      dup8\n        /* \"#utility.yul\":3712:3790   */\n      tag_118\n      jump\t// in\n    tag_219:\n        /* \"#utility.yul\":3837:3846   */\n      dup2\n        /* \"#utility.yul\":3831:3835   */\n      dup2\n        /* \"#utility.yul\":3827:3847   */\n      sub\n        /* \"#utility.yul\":3822:3824   */\n      0x40\n        /* \"#utility.yul\":3811:3820   */\n      dup4\n        /* \"#utility.yul\":3807:3825   */\n      add\n        /* \"#utility.yul\":3800:3848   */\n      mstore\n        /* \"#utility.yul\":3865:3943   */\n      tag_220\n        /* \"#utility.yul\":3938:3942   */\n      dup2\n        /* \"#utility.yul\":3929:3935   */\n      dup7\n        /* \"#utility.yul\":3865:3943   */\n      tag_123\n      jump\t// in\n    tag_220:\n        /* \"#utility.yul\":3857:3943   */\n      swap1\n      pop\n        /* \"#utility.yul\":3953:4025   */\n      tag_221\n        /* \"#utility.yul\":4021:4023   */\n      0x60\n        /* \"#utility.yul\":4010:4019   */\n      dup4\n        /* \"#utility.yul\":4006:4024   */\n      add\n        /* \"#utility.yul\":3997:4003   */\n      dup6\n        /* \"#utility.yul\":3953:4025   */\n      tag_126\n      jump\t// in\n    tag_221:\n        /* \"#utility.yul\":4035:4102   */\n      tag_222\n        /* \"#utility.yul\":4097:4100   */\n      0x80\n        /* \"#utility.yul\":4086:4095   */\n      dup4\n        /* \"#utility.yul\":4082:4101   */\n      add\n        /* \"#utility.yul\":4073:4079   */\n      dup5\n        /* \"#utility.yul\":4035:4102   */\n      tag_128\n      jump\t// in\n    tag_222:\n        /* \"#utility.yul\":3354:4109   */\n      swap7\n      swap6\n      pop\n      pop\n      pop\n      pop\n      pop\n      pop\n      jump\t// out\n        /* \"#utility.yul\":4115:4237   */\n    tag_129:\n        /* \"#utility.yul\":4188:4212   */\n      tag_224\n        /* \"#utility.yul\":4206:4211   */\n      dup2\n        /* \"#utility.yul\":4188:4212   */\n      tag_125\n      jump\t// in\n    tag_224:\n        /* \"#utility.yul\":4181:4186   */\n      dup2\n        /* \"#utility.yul\":4178:4213   */\n      eq\n        /* \"#utility.yul\":4168:4231   */\n      tag_225\n      jumpi\n        /* \"#utility.yul\":4227:4228   */\n      0x00\n        /* \"#utility.yul\":4224:4225   */\n      dup1\n        /* \"#utility.yul\":4217:4229   */\n      revert\n        /* \"#utility.yul\":4168:4231   */\n    tag_225:\n        /* \"#utility.yul\":4115:4237   */\n      pop\n      jump\t// out\n        /* \"#utility.yul\":4243:4382   */\n    tag_130:\n        /* \"#utility.yul\":4289:4294   */\n      0x00\n        /* \"#utility.yul\":4327:4333   */\n      dup2\n        /* \"#utility.yul\":4314:4334   */\n      calldataload\n        /* \"#utility.yul\":4305:4334   */\n      swap1\n      pop\n        /* \"#utility.yul\":4343:4376   */\n      tag_227\n        /* \"#utility.yul\":4370:4375   */\n      dup2\n        /* \"#utility.yul\":4343:4376   */\n      tag_129\n      jump\t// in\n    tag_227:\n        /* \"#utility.yul\":4243:4382   */\n      swap3\n      swap2\n      pop\n      pop\n      jump\t// out\n        /* \"#utility.yul\":4388:4862   */\n    tag_27:\n        /* \"#utility.yul\":4456:4462   */\n      0x00\n        /* \"#utility.yul\":4464:4470   */\n      dup1\n        /* \"#utility.yul\":4513:4515   */\n      0x40\n        /* \"#utility.yul\":4501:4510   */\n      dup4\n        /* \"#utility.yul\":4492:4499   */\n      dup6\n        /* \"#utility.yul\":4488:4511   */\n      sub\n        /* \"#utility.yul\":4484:4516   */\n      slt\n        /* \"#utility.yul\":4481:4600   */\n      iszero\n      tag_229\n      jumpi\n        /* \"#utility.yul\":4519:4598   */\n      tag_230\n      tag_109\n      jump\t// in\n    tag_230:\n        /* \"#utility.yul\":4481:4600   */\n    tag_229:\n        /* \"#utility.yul\":4639:4640   */\n      0x00\n        /* \"#utility.yul\":4664:4717   */\n      tag_231\n        /* \"#utility.yul\":4709:4716   */\n      dup6\n        /* \"#utility.yul\":4700:4706   */\n      dup3\n        /* \"#utility.yul\":4689:4698   */\n      dup7\n        /* \"#utility.yul\":4685:4707   */\n      add\n        /* \"#utility.yul\":4664:4717   */\n      tag_113\n      jump\t// in\n    tag_231:\n        /* \"#utility.yul\":4654:4717   */\n      swap3\n      pop\n        /* \"#utility.yul\":4610:4727   */\n      pop\n        /* \"#utility.yul\":4766:4768   */\n      0x20\n        /* \"#utility.yul\":4792:4845   */\n      tag_232\n        /* \"#utility.yul\":4837:4844   */\n      dup6\n        /* \"#utility.yul\":4828:4834   */\n      dup3\n        /* \"#utility.yul\":4817:4826   */\n      dup7\n        /* \"#utility.yul\":4813:4835   */\n      add\n        /* \"#utility.yul\":4792:4845   */\n      tag_130\n      jump\t// in\n    tag_232:\n        /* \"#utility.yul\":4782:4845   */\n      swap2\n      pop\n        /* \"#utility.yul\":4737:4855   */\n      pop\n        /* \"#utility.yul\":4388:4862   */\n      swap3\n      pop\n      swap3\n      swap1\n      pop\n      jump\t// out\n        /* \"#utility.yul\":4868:5090   */\n    tag_32:\n        /* \"#utility.yul\":4961:4965   */\n      0x00\n        /* \"#utility.yul\":4999:5001   */\n      0x20\n        /* \"#utility.yul\":4988:4997   */\n      dup3\n        /* \"#utility.yul\":4984:5002   */\n      add\n        /* \"#utility.yul\":4976:5002   */\n      swap1\n      pop\n        /* \"#utility.yul\":5012:5083   */\n      tag_234\n        /* \"#utility.yul\":5080:5081   */\n      0x00\n        /* \"#utility.yul\":5069:5078   */\n      dup4\n        /* \"#utility.yul\":5065:5082   */\n      add\n        /* \"#utility.yul\":5056:5062   */\n      dup5\n        /* \"#utility.yul\":5012:5083   */\n      tag_114\n      jump\t// in\n    tag_234:\n        /* \"#utility.yul\":4868:5090   */\n      swap3\n      swap2\n      pop\n      pop\n      jump\t// out\n        /* \"#utility.yul\":5096:5318   */\n    tag_36:\n        /* \"#utility.yul\":5189:5193   */\n      0x00\n        /* \"#utility.yul\":5227:5229   */\n      0x20\n        /* \"#utility.yul\":5216:5225   */\n      dup3\n        /* \"#utility.yul\":5212:5230   */\n      add\n        /* \"#utility.yul\":5204:5230   */\n      swap1\n      pop\n        /* \"#utility.yul\":5240:5311   */\n      tag_236\n        /* \"#utility.yul\":5308:5309   */\n      0x00\n        /* \"#utility.yul\":5297:5306   */\n      dup4\n        /* \"#utility.yul\":5293:5310   */\n      add\n        /* \"#utility.yul\":5284:5290   */\n      dup5\n        /* \"#utility.yul\":5240:5311   */\n      tag_126\n      jump\t// in\n    tag_236:\n        /* \"#utility.yul\":5096:5318   */\n      swap3\n      swap2\n      pop\n      pop\n      jump\t// out\n        /* \"#utility.yul\":5324:5438   */\n    tag_131:\n        /* \"#utility.yul\":5391:5397   */\n      0x00\n        /* \"#utility.yul\":5425:5430   */\n      dup2\n        /* \"#utility.yul\":5419:5431   */\n      mload\n        /* \"#utility.yul\":5409:5431   */\n      swap1\n      pop\n        /* \"#utility.yul\":5324:5438   */\n      swap2\n      swap1\n      pop\n      jump\t// out\n        /* \"#utility.yul\":5444:5628   */\n    tag_132:\n        /* \"#utility.yul\":5543:5554   */\n      0x00\n        /* \"#utility.yul\":5577:5583   */\n      dup3\n        /* \"#utility.yul\":5572:5575   */\n      dup3\n        /* \"#utility.yul\":5565:5584   */\n      mstore\n        /* \"#utility.yul\":5617:5621   */\n      0x20\n        /* \"#utility.yul\":5612:5615   */\n      dup3\n        /* \"#utility.yul\":5608:5622   */\n      add\n        /* \"#utility.yul\":5593:5622   */\n      swap1\n      pop\n        /* \"#utility.yul\":5444:5628   */\n      swap3\n      swap2\n      pop\n      pop\n      jump\t// out\n        /* \"#utility.yul\":5634:5766   */\n    tag_133:\n        /* \"#utility.yul\":5701:5705   */\n      0x00\n        /* \"#utility.yul\":5724:5727   */\n      dup2\n        /* \"#utility.yul\":5716:5727   */\n      swap1\n      pop\n        /* \"#utility.yul\":5754:5758   */\n      0x20\n        /* \"#utility.yul\":5749:5752   */\n      dup3\n        /* \"#utility.yul\":5745:5759   */\n      add\n        /* \"#utility.yul\":5737:5759   */\n      swap1\n      pop\n        /* \"#utility.yul\":5634:5766   */\n      swap2\n      swap1\n      pop\n      jump\t// out\n        /* \"#utility.yul\":5772:5880   */\n    tag_134:\n        /* \"#utility.yul\":5849:5873   */\n      tag_241\n        /* \"#utility.yul\":5867:5872   */\n      dup2\n        /* \"#utility.yul\":5849:5873   */\n      tag_125\n      jump\t// in\n    tag_241:\n        /* \"#utility.yul\":5844:5847   */\n      dup3\n        /* \"#utility.yul\":5837:5874   */\n      mstore\n        /* \"#utility.yul\":5772:5880   */\n      pop\n      pop\n      jump\t// out\n        /* \"#utility.yul\":5886:6065   */\n    tag_135:\n        /* \"#utility.yul\":5955:5965   */\n      0x00\n        /* \"#utility.yul\":5976:6022   */\n      tag_243\n        /* \"#utility.yul\":6018:6021   */\n      dup4\n        /* \"#utility.yul\":6010:6016   */\n      dup4\n        /* \"#utility.yul\":5976:6022   */\n      tag_134\n      jump\t// in\n    tag_243:\n        /* \"#utility.yul\":6054:6058   */\n      0x20\n        /* \"#utility.yul\":6049:6052   */\n      dup4\n        /* \"#utility.yul\":6045:6059   */\n      add\n        /* \"#utility.yul\":6031:6059   */\n      swap1\n      pop\n        /* \"#utility.yul\":5886:6065   */\n      swap3\n      swap2\n      pop\n      pop\n      jump\t// out\n        /* \"#utility.yul\":6071:6184   */\n    tag_136:\n        /* \"#utility.yul\":6141:6145   */\n      0x00\n        /* \"#utility.yul\":6173:6177   */\n      0x20\n        /* \"#utility.yul\":6168:6171   */\n      dup3\n        /* \"#utility.yul\":6164:6178   */\n      add\n        /* \"#utility.yul\":6156:6178   */\n      swap1\n      pop\n        /* \"#utility.yul\":6071:6184   */\n      swap2\n      swap1\n      pop\n      jump\t// out\n        /* \"#utility.yul\":6220:6952   */\n    tag_137:\n        /* \"#utility.yul\":6339:6342   */\n      0x00\n        /* \"#utility.yul\":6368:6422   */\n      tag_246\n        /* \"#utility.yul\":6416:6421   */\n      dup3\n        /* \"#utility.yul\":6368:6422   */\n      tag_131\n      jump\t// in\n    tag_246:\n        /* \"#utility.yul\":6438:6524   */\n      tag_247\n        /* \"#utility.yul\":6517:6523   */\n      dup2\n        /* \"#utility.yul\":6512:6515   */\n      dup6\n        /* \"#utility.yul\":6438:6524   */\n      tag_132\n      jump\t// in\n    tag_247:\n        /* \"#utility.yul\":6431:6524   */\n      swap4\n      pop\n        /* \"#utility.yul\":6548:6604   */\n      tag_248\n        /* \"#utility.yul\":6598:6603   */\n      dup4\n        /* \"#utility.yul\":6548:6604   */\n      tag_133\n      jump\t// in\n    tag_248:\n        /* \"#utility.yul\":6627:6634   */\n      dup1\n        /* \"#utility.yul\":6658:6659   */\n      0x00\n        /* \"#utility.yul\":6643:6927   */\n    tag_249:\n        /* \"#utility.yul\":6668:6674   */\n      dup4\n        /* \"#utility.yul\":6665:6666   */\n      dup2\n        /* \"#utility.yul\":6662:6675   */\n      lt\n        /* \"#utility.yul\":6643:6927   */\n      iszero\n      tag_251\n      jumpi\n        /* \"#utility.yul\":6744:6750   */\n      dup2\n        /* \"#utility.yul\":6738:6751   */\n      mload\n        /* \"#utility.yul\":6771:6834   */\n      tag_252\n        /* \"#utility.yul\":6830:6833   */\n      dup9\n        /* \"#utility.yul\":6815:6828   */\n      dup3\n        /* \"#utility.yul\":6771:6834   */\n      tag_135\n      jump\t// in\n    tag_252:\n        /* \"#utility.yul\":6764:6834   */\n      swap8\n      pop\n        /* \"#utility.yul\":6857:6917   */\n      tag_253\n        /* \"#utility.yul\":6910:6916   */\n      dup4\n        /* \"#utility.yul\":6857:6917   */\n      tag_136\n      jump\t// in\n    tag_253:\n        /* \"#utility.yul\":6847:6917   */\n      swap3\n      pop\n        /* \"#utility.yul\":6703:6927   */\n      pop\n        /* \"#utility.yul\":6690:6691   */\n      0x01\n        /* \"#utility.yul\":6687:6688   */\n      dup2\n        /* \"#utility.yul\":6683:6692   */\n      add\n        /* \"#utility.yul\":6678:6692   */\n      swap1\n      pop\n        /* \"#utility.yul\":6643:6927   */\n      jump(tag_249)\n    tag_251:\n        /* \"#utility.yul\":6647:6661   */\n      pop\n        /* \"#utility.yul\":6943:6946   */\n      dup6\n        /* \"#utility.yul\":6936:6946   */\n      swap4\n      pop\n        /* \"#utility.yul\":6344:6952   */\n      pop\n      pop\n      pop\n        /* \"#utility.yul\":6220:6952   */\n      swap3\n      swap2\n      pop\n      pop\n      jump\t// out\n        /* \"#utility.yul\":6958:7331   */\n    tag_41:\n        /* \"#utility.yul\":7101:7105   */\n      0x00\n        /* \"#utility.yul\":7139:7141   */\n      0x20\n        /* \"#utility.yul\":7128:7137   */\n      dup3\n        /* \"#utility.yul\":7124:7142   */\n      add\n        /* \"#utility.yul\":7116:7142   */\n      swap1\n      pop\n        /* \"#utility.yul\":7188:7197   */\n      dup2\n        /* \"#utility.yul\":7182:7186   */\n      dup2\n        /* \"#utility.yul\":7178:7198   */\n      sub\n        /* \"#utility.yul\":7174:7175   */\n      0x00\n        /* \"#utility.yul\":7163:7172   */\n      dup4\n        /* \"#utility.yul\":7159:7176   */\n      add\n        /* \"#utility.yul\":7152:7199   */\n      mstore\n        /* \"#utility.yul\":7216:7324   */\n      tag_255\n        /* \"#utility.yul\":7319:7323   */\n      dup2\n        /* \"#utility.yul\":7310:7316   */\n      dup5\n        /* \"#utility.yul\":7216:7324   */\n      tag_137\n      jump\t// in\n    tag_255:\n        /* \"#utility.yul\":7208:7324   */\n      swap1\n      pop\n        /* \"#utility.yul\":6958:7331   */\n      swap3\n      swap2\n      pop\n      pop\n      jump\t// out\n        /* \"#utility.yul\":7337:7423   */\n    tag_138:\n        /* \"#utility.yul\":7372:7379   */\n      0x00\n        /* \"#utility.yul\":7412:7416   */\n      0xff\n        /* \"#utility.yul\":7405:7410   */\n      dup3\n        /* \"#utility.yul\":7401:7417   */\n      and\n        /* \"#utility.yul\":7390:7417   */\n      swap1\n      pop\n        /* \"#utility.yul\":7337:7423   */\n      swap2\n      swap1\n      pop\n      jump\t// out\n        /* \"#utility.yul\":7429:7547   */\n    tag_139:\n        /* \"#utility.yul\":7500:7522   */\n      tag_258\n        /* \"#utility.yul\":7516:7521   */\n      dup2\n        /* \"#utility.yul\":7500:7522   */\n      tag_138\n      jump\t// in\n    tag_258:\n        /* \"#utility.yul\":7493:7498   */\n      dup2\n        /* \"#utility.yul\":7490:7523   */\n      eq\n        /* \"#utility.yul\":7480:7541   */\n      tag_259\n      jumpi\n        /* \"#utility.yul\":7537:7538   */\n      0x00\n        /* \"#utility.yul\":7534:7535   */\n      dup1\n        /* \"#utility.yul\":7527:7539   */\n      revert\n        /* \"#utility.yul\":7480:7541   */\n    tag_259:\n        /* \"#utility.yul\":7429:7547   */\n      pop\n      jump\t// out\n        /* \"#utility.yul\":7553:7688   */\n    tag_140:\n        /* \"#utility.yul\":7597:7602   */\n      0x00\n        /* \"#utility.yul\":7635:7641   */\n      dup2\n        /* \"#utility.yul\":7622:7642   */\n      calldataload\n        /* \"#utility.yul\":7613:7642   */\n      swap1\n      pop\n        /* \"#utility.yul\":7651:7682   */\n      tag_261\n        /* \"#utility.yul\":7676:7681   */\n      dup2\n        /* \"#utility.yul\":7651:7682   */\n      tag_139\n      jump\t// in\n    tag_261:\n        /* \"#utility.yul\":7553:7688   */\n      swap3\n      swap2\n      pop\n      pop\n      jump\t// out\n        /* \"#utility.yul\":7694:7811   */\n    tag_141:\n        /* \"#utility.yul\":7803:7804   */\n      0x00\n        /* \"#utility.yul\":7800:7801   */\n      dup1\n        /* \"#utility.yul\":7793:7805   */\n      revert\n        /* \"#utility.yul\":7817:7934   */\n    tag_142:\n        /* \"#utility.yul\":7926:7927   */\n      0x00\n        /* \"#utility.yul\":7923:7924   */\n      dup1\n        /* \"#utility.yul\":7916:7928   */\n      revert\n        /* \"#utility.yul\":7940:8120   */\n    tag_86:\n        /* \"#utility.yul\":7988:8065   */\n      0x4e487b7100000000000000000000000000000000000000000000000000000000\n        /* \"#utility.yul\":7985:7986   */\n      0x00\n        /* \"#utility.yul\":7978:8066   */\n      mstore\n        /* \"#utility.yul\":8085:8089   */\n      0x41\n        /* \"#utility.yul\":8082:8083   */\n      0x04\n        /* \"#utility.yul\":8075:8090   */\n      mstore\n        /* \"#utility.yul\":8109:8113   */\n      0x24\n        /* \"#utility.yul\":8106:8107   */\n      0x00\n        /* \"#utility.yul\":8099:8114   */\n      revert\n        /* \"#utility.yul\":8126:8407   */\n    tag_143:\n        /* \"#utility.yul\":8209:8236   */\n      tag_266\n        /* \"#utility.yul\":8231:8235   */\n      dup3\n        /* \"#utility.yul\":8209:8236   */\n      tag_122\n      jump\t// in\n    tag_266:\n        /* \"#utility.yul\":8201:8207   */\n      dup2\n        /* \"#utility.yul\":8197:8237   */\n      add\n        /* \"#utility.yul\":8339:8345   */\n      dup2\n        /* \"#utility.yul\":8327:8337   */\n      dup2\n        /* \"#utility.yul\":8324:8346   */\n      lt\n        /* \"#utility.yul\":8303:8321   */\n      0xffffffffffffffff\n        /* \"#utility.yul\":8291:8301   */\n      dup3\n        /* \"#utility.yul\":8288:8322   */\n      gt\n        /* \"#utility.yul\":8285:8347   */\n      or\n        /* \"#utility.yul\":8282:8370   */\n      iszero\n      tag_267\n      jumpi\n        /* \"#utility.yul\":8350:8368   */\n      tag_268\n      tag_86\n      jump\t// in\n    tag_268:\n        /* \"#utility.yul\":8282:8370   */\n    tag_267:\n        /* \"#utility.yul\":8390:8400   */\n      dup1\n        /* \"#utility.yul\":8386:8388   */\n      0x40\n        /* \"#utility.yul\":8379:8401   */\n      mstore\n        /* \"#utility.yul\":8169:8407   */\n      pop\n        /* \"#utility.yul\":8126:8407   */\n      pop\n      pop\n      jump\t// out\n        /* \"#utility.yul\":8413:8542   */\n    tag_144:\n        /* \"#utility.yul\":8447:8453   */\n      0x00\n        /* \"#utility.yul\":8474:8494   */\n      tag_270\n      tag_108\n      jump\t// in\n    tag_270:\n        /* \"#utility.yul\":8464:8494   */\n      swap1\n      pop\n        /* \"#utility.yul\":8503:8536   */\n      tag_271\n        /* \"#utility.yul\":8531:8535   */\n      dup3\n        /* \"#utility.yul\":8523:8529   */\n      dup3\n        /* \"#utility.yul\":8503:8536   */\n      tag_143\n      jump\t// in\n    tag_271:\n        /* \"#utility.yul\":8413:8542   */\n      swap2\n      swap1\n      pop\n      jump\t// out\n        /* \"#utility.yul\":8548:8856   */\n    tag_145:\n        /* \"#utility.yul\":8610:8614   */\n      0x00\n        /* \"#utility.yul\":8700:8718   */\n      0xffffffffffffffff\n        /* \"#utility.yul\":8692:8698   */\n      dup3\n        /* \"#utility.yul\":8689:8719   */\n      gt\n        /* \"#utility.yul\":8686:8742   */\n      iszero\n      tag_273\n      jumpi\n        /* \"#utility.yul\":8722:8740   */\n      tag_274\n      tag_86\n      jump\t// in\n    tag_274:\n        /* \"#utility.yul\":8686:8742   */\n    tag_273:\n        /* \"#utility.yul\":8760:8789   */\n      tag_275\n        /* \"#utility.yul\":8782:8788   */\n      dup3\n        /* \"#utility.yul\":8760:8789   */\n      tag_122\n      jump\t// in\n    tag_275:\n        /* \"#utility.yul\":8752:8789   */\n      swap1\n      pop\n        /* \"#utility.yul\":8844:8848   */\n      0x20\n        /* \"#utility.yul\":8838:8842   */\n      dup2\n        /* \"#utility.yul\":8834:8849   */\n      add\n        /* \"#utility.yul\":8826:8849   */\n      swap1\n      pop\n        /* \"#utility.yul\":8548:8856   */\n      swap2\n      swap1\n      pop\n      jump\t// out\n        /* \"#utility.yul\":8862:9010   */\n    tag_146:\n        /* \"#utility.yul\":8960:8966   */\n      dup3\n        /* \"#utility.yul\":8955:8958   */\n      dup2\n        /* \"#utility.yul\":8950:8953   */\n      dup4\n        /* \"#utility.yul\":8937:8967   */\n      calldatacopy\n        /* \"#utility.yul\":9001:9002   */\n      0x00\n        /* \"#utility.yul\":8992:8998   */\n      dup4\n        /* \"#utility.yul\":8987:8990   */\n      dup4\n        /* \"#utility.yul\":8983:8999   */\n      add\n        /* \"#utility.yul\":8976:9003   */\n      mstore\n        /* \"#utility.yul\":8862:9010   */\n      pop\n      pop\n      pop\n      jump\t// out\n        /* \"#utility.yul\":9016:9441   */\n    tag_147:\n        /* \"#utility.yul\":9094:9099   */\n      0x00\n        /* \"#utility.yul\":9119:9185   */\n      tag_278\n        /* \"#utility.yul\":9135:9184   */\n      tag_279\n        /* \"#utility.yul\":9177:9183   */\n      dup5\n        /* \"#utility.yul\":9135:9184   */\n      tag_145\n      jump\t// in\n    tag_279:\n        /* \"#utility.yul\":9119:9185   */\n      tag_144\n      jump\t// in\n    tag_278:\n        /* \"#utility.yul\":9110:9185   */\n      swap1\n      pop\n        /* \"#utility.yul\":9208:9214   */\n      dup3\n        /* \"#utility.yul\":9201:9206   */\n      dup2\n        /* \"#utility.yul\":9194:9215   */\n      mstore\n        /* \"#utility.yul\":9246:9250   */\n      0x20\n        /* \"#utility.yul\":9239:9244   */\n      dup2\n        /* \"#utility.yul\":9235:9251   */\n      add\n        /* \"#utility.yul\":9284:9287   */\n      dup5\n        /* \"#utility.yul\":9275:9281   */\n      dup5\n        /* \"#utility.yul\":9270:9273   */\n      dup5\n        /* \"#utility.yul\":9266:9282   */\n      add\n        /* \"#utility.yul\":9263:9288   */\n      gt\n        /* \"#utility.yul\":9260:9372   */\n      iszero\n      tag_280\n      jumpi\n        /* \"#utility.yul\":9291:9370   */\n      tag_281\n      tag_142\n      jump\t// in\n    tag_281:\n        /* \"#utility.yul\":9260:9372   */\n    tag_280:\n        /* \"#utility.yul\":9381:9435   */\n      tag_282\n        /* \"#utility.yul\":9428:9434   */\n      dup5\n        /* \"#utility.yul\":9423:9426   */\n      dup3\n        /* \"#utility.yul\":9418:9421   */\n      dup6\n        /* \"#utility.yul\":9381:9435   */\n      tag_146\n      jump\t// in\n    tag_282:\n        /* \"#utility.yul\":9100:9441   */\n      pop\n        /* \"#utility.yul\":9016:9441   */\n      swap4\n      swap3\n      pop\n      pop\n      pop\n      jump\t// out\n        /* \"#utility.yul\":9461:9801   */\n    tag_148:\n        /* \"#utility.yul\":9517:9522   */\n      0x00\n        /* \"#utility.yul\":9566:9569   */\n      dup3\n        /* \"#utility.yul\":9559:9563   */\n      0x1f\n        /* \"#utility.yul\":9551:9557   */\n      dup4\n        /* \"#utility.yul\":9547:9564   */\n      add\n        /* \"#utility.yul\":9543:9570   */\n      slt\n        /* \"#utility.yul\":9533:9655   */\n      tag_284\n      jumpi\n        /* \"#utility.yul\":9574:9653   */\n      tag_285\n      tag_141\n      jump\t// in\n    tag_285:\n        /* \"#utility.yul\":9533:9655   */\n    tag_284:\n        /* \"#utility.yul\":9691:9697   */\n      dup2\n        /* \"#utility.yul\":9678:9698   */\n      calldataload\n        /* \"#utility.yul\":9716:9795   */\n      tag_286\n        /* \"#utility.yul\":9791:9794   */\n      dup5\n        /* \"#utility.yul\":9783:9789   */\n      dup3\n        /* \"#utility.yul\":9776:9780   */\n      0x20\n        /* \"#utility.yul\":9768:9774   */\n      dup7\n        /* \"#utility.yul\":9764:9781   */\n      add\n        /* \"#utility.yul\":9716:9795   */\n      tag_147\n      jump\t// in\n    tag_286:\n        /* \"#utility.yul\":9707:9795   */\n      swap2\n      pop\n        /* \"#utility.yul\":9523:9801   */\n      pop\n        /* \"#utility.yul\":9461:9801   */\n      swap3\n      swap2\n      pop\n      pop\n      jump\t// out\n        /* \"#utility.yul\":9807:10457   */\n    tag_44:\n        /* \"#utility.yul\":9883:9889   */\n      0x00\n        /* \"#utility.yul\":9891:9897   */\n      dup1\n        /* \"#utility.yul\":9940:9942   */\n      0x40\n        /* \"#utility.yul\":9928:9937   */\n      dup4\n        /* \"#utility.yul\":9919:9926   */\n      dup6\n        /* \"#utility.yul\":9915:9938   */\n      sub\n        /* \"#utility.yul\":9911:9943   */\n      slt\n        /* \"#utility.yul\":9908:10027   */\n      iszero\n      tag_288\n      jumpi\n        /* \"#utility.yul\":9946:10025   */\n      tag_289\n      tag_109\n      jump\t// in\n    tag_289:\n        /* \"#utility.yul\":9908:10027   */\n    tag_288:\n        /* \"#utility.yul\":10066:10067   */\n      0x00\n        /* \"#utility.yul\":10091:10142   */\n      tag_290\n        /* \"#utility.yul\":10134:10141   */\n      dup6\n        /* \"#utility.yul\":10125:10131   */\n      dup3\n        /* \"#utility.yul\":10114:10123   */\n      dup7\n        /* \"#utility.yul\":10110:10132   */\n      add\n        /* \"#utility.yul\":10091:10142   */\n      tag_140\n      jump\t// in\n    tag_290:\n        /* \"#utility.yul\":10081:10142   */\n      swap3\n      pop\n        /* \"#utility.yul\":10037:10152   */\n      pop\n        /* \"#utility.yul\":10219:10221   */\n      0x20\n        /* \"#utility.yul\":10208:10217   */\n      dup4\n        /* \"#utility.yul\":10204:10222   */\n      add\n        /* \"#utility.yul\":10191:10223   */\n      calldataload\n        /* \"#utility.yul\":10250:10268   */\n      0xffffffffffffffff\n        /* \"#utility.yul\":10242:10248   */\n      dup2\n        /* \"#utility.yul\":10239:10269   */\n      gt\n        /* \"#utility.yul\":10236:10353   */\n      iszero\n      tag_291\n      jumpi\n        /* \"#utility.yul\":10272:10351   */\n      tag_292\n      tag_110\n      jump\t// in\n    tag_292:\n        /* \"#utility.yul\":10236:10353   */\n    tag_291:\n        /* \"#utility.yul\":10377:10440   */\n      tag_293\n        /* \"#utility.yul\":10432:10439   */\n      dup6\n        /* \"#utility.yul\":10423:10429   */\n      dup3\n        /* \"#utility.yul\":10412:10421   */\n      dup7\n        /* \"#utility.yul\":10408:10430   */\n      add\n        /* \"#utility.yul\":10377:10440   */\n      tag_148\n      jump\t// in\n    tag_293:\n        /* \"#utility.yul\":10367:10440   */\n      swap2\n      pop\n        /* \"#utility.yul\":10162:10450   */\n      pop\n        /* \"#utility.yul\":9807:10457   */\n      swap3\n      pop\n      swap3\n      swap1\n      pop\n      jump\t// out\n        /* \"#utility.yul\":10463:10628   */\n    tag_149:\n        /* \"#utility.yul\":10603:10620   */\n      0x4e6f7420617574686f72697a65642e0000000000000000000000000000000000\n        /* \"#utility.yul\":10599:10600   */\n      0x00\n        /* \"#utility.yul\":10591:10597   */\n      dup3\n        /* \"#utility.yul\":10587:10601   */\n      add\n        /* \"#utility.yul\":10580:10621   */\n      mstore\n        /* \"#utility.yul\":10463:10628   */\n      pop\n      jump\t// out\n        /* \"#utility.yul\":10634:11000   */\n    tag_150:\n        /* \"#utility.yul\":10776:10779   */\n      0x00\n        /* \"#utility.yul\":10797:10864   */\n      tag_296\n        /* \"#utility.yul\":10861:10863   */\n      0x0f\n        /* \"#utility.yul\":10856:10859   */\n      dup4\n        /* \"#utility.yul\":10797:10864   */\n      tag_120\n      jump\t// in\n    tag_296:\n        /* \"#utility.yul\":10790:10864   */\n      swap2\n      pop\n        /* \"#utility.yul\":10873:10966   */\n      tag_297\n        /* \"#utility.yul\":10962:10965   */\n      dup3\n        /* \"#utility.yul\":10873:10966   */\n      tag_149\n      jump\t// in\n    tag_297:\n        /* \"#utility.yul\":10991:10993   */\n      0x20\n        /* \"#utility.yul\":10986:10989   */\n      dup3\n        /* \"#utility.yul\":10982:10994   */\n      add\n        /* \"#utility.yul\":10975:10994   */\n      swap1\n      pop\n        /* \"#utility.yul\":10634:11000   */\n      swap2\n      swap1\n      pop\n      jump\t// out\n        /* \"#utility.yul\":11006:11425   */\n    tag_49:\n        /* \"#utility.yul\":11172:11176   */\n      0x00\n        /* \"#utility.yul\":11210:11212   */\n      0x20\n        /* \"#utility.yul\":11199:11208   */\n      dup3\n        /* \"#utility.yul\":11195:11213   */\n      add\n        /* \"#utility.yul\":11187:11213   */\n      swap1\n      pop\n        /* \"#utility.yul\":11259:11268   */\n      dup2\n        /* \"#utility.yul\":11253:11257   */\n      dup2\n        /* \"#utility.yul\":11249:11269   */\n      sub\n        /* \"#utility.yul\":11245:11246   */\n      0x00\n        /* \"#utility.yul\":11234:11243   */\n      dup4\n        /* \"#utility.yul\":11230:11247   */\n      add\n        /* \"#utility.yul\":11223:11270   */\n      mstore\n        /* \"#utility.yul\":11287:11418   */\n      tag_299\n        /* \"#utility.yul\":11413:11417   */\n      dup2\n        /* \"#utility.yul\":11287:11418   */\n      tag_150\n      jump\t// in\n    tag_299:\n        /* \"#utility.yul\":11279:11418   */\n      swap1\n      pop\n        /* \"#utility.yul\":11006:11425   */\n      swap2\n      swap1\n      pop\n      jump\t// out\n        /* \"#utility.yul\":11431:11611   */\n    tag_151:\n        /* \"#utility.yul\":11479:11556   */\n      0x4e487b7100000000000000000000000000000000000000000000000000000000\n        /* \"#utility.yul\":11476:11477   */\n      0x00\n        /* \"#utility.yul\":11469:11557   */\n      mstore\n        /* \"#utility.yul\":11576:11580   */\n      0x22\n        /* \"#utility.yul\":11573:11574   */\n      0x04\n        /* \"#utility.yul\":11566:11581   */\n      mstore\n        /* \"#utility.yul\":11600:11604   */\n      0x24\n        /* \"#utility.yul\":11597:11598   */\n      0x00\n        /* \"#utility.yul\":11590:11605   */\n      revert\n        /* \"#utility.yul\":11617:11937   */\n    tag_52:\n        /* \"#utility.yul\":11661:11667   */\n      0x00\n        /* \"#utility.yul\":11698:11699   */\n      0x02\n        /* \"#utility.yul\":11692:11696   */\n      dup3\n        /* \"#utility.yul\":11688:11700   */\n      div\n        /* \"#utility.yul\":11678:11700   */\n      swap1\n      pop\n        /* \"#utility.yul\":11745:11746   */\n      0x01\n        /* \"#utility.yul\":11739:11743   */\n      dup3\n        /* \"#utility.yul\":11735:11747   */\n      and\n        /* \"#utility.yul\":11766:11784   */\n      dup1\n        /* \"#utility.yul\":11756:11837   */\n      tag_302\n      jumpi\n        /* \"#utility.yul\":11822:11826   */\n      0x7f\n        /* \"#utility.yul\":11814:11820   */\n      dup3\n        /* \"#utility.yul\":11810:11827   */\n      and\n        /* \"#utility.yul\":11800:11827   */\n      swap2\n      pop\n        /* \"#utility.yul\":11756:11837   */\n    tag_302:\n        /* \"#utility.yul\":11884:11886   */\n      0x20\n        /* \"#utility.yul\":11876:11882   */\n      dup3\n        /* \"#utility.yul\":11873:11887   */\n      lt\n        /* \"#utility.yul\":11853:11871   */\n      dup2\n        /* \"#utility.yul\":11850:11888   */\n      sub\n        /* \"#utility.yul\":11847:11931   */\n      tag_303\n      jumpi\n        /* \"#utility.yul\":11903:11921   */\n      tag_304\n      tag_151\n      jump\t// in\n    tag_304:\n        /* \"#utility.yul\":11847:11931   */\n    tag_303:\n        /* \"#utility.yul\":11668:11937   */\n      pop\n        /* \"#utility.yul\":11617:11937   */\n      swap2\n      swap1\n      pop\n      jump\t// out\n        /* \"#utility.yul\":11943:12117   */\n    tag_152:\n        /* \"#utility.yul\":12083:12109   */\n      0x4e6f7420746865206f776e6572206f6620746869732049500000000000000000\n        /* \"#utility.yul\":12079:12080   */\n      0x00\n        /* \"#utility.yul\":12071:12077   */\n      dup3\n        /* \"#utility.yul\":12067:12081   */\n      add\n        /* \"#utility.yul\":12060:12110   */\n      mstore\n        /* \"#utility.yul\":11943:12117   */\n      pop\n      jump\t// out\n        /* \"#utility.yul\":12123:12489   */\n    tag_153:\n        /* \"#utility.yul\":12265:12268   */\n      0x00\n        /* \"#utility.yul\":12286:12353   */\n      tag_307\n        /* \"#utility.yul\":12350:12352   */\n      0x18\n        /* \"#utility.yul\":12345:12348   */\n      dup4\n        /* \"#utility.yul\":12286:12353   */\n      tag_120\n      jump\t// in\n    tag_307:\n        /* \"#utility.yul\":12279:12353   */\n      swap2\n      pop\n        /* \"#utility.yul\":12362:12455   */\n      tag_308\n        /* \"#utility.yul\":12451:12454   */\n      dup3\n        /* \"#utility.yul\":12362:12455   */\n      tag_152\n      jump\t// in\n    tag_308:\n        /* \"#utility.yul\":12480:12482   */\n      0x20\n        /* \"#utility.yul\":12475:12478   */\n      dup3\n        /* \"#utility.yul\":12471:12483   */\n      add\n        /* \"#utility.yul\":12464:12483   */\n      swap1\n      pop\n        /* \"#utility.yul\":12123:12489   */\n      swap2\n      swap1\n      pop\n      jump\t// out\n        /* \"#utility.yul\":12495:12914   */\n    tag_66:\n        /* \"#utility.yul\":12661:12665   */\n      0x00\n        /* \"#utility.yul\":12699:12701   */\n      0x20\n        /* \"#utility.yul\":12688:12697   */\n      dup3\n        /* \"#utility.yul\":12684:12702   */\n      add\n        /* \"#utility.yul\":12676:12702   */\n      swap1\n      pop\n        /* \"#utility.yul\":12748:12757   */\n      dup2\n        /* \"#utility.yul\":12742:12746   */\n      dup2\n        /* \"#utility.yul\":12738:12758   */\n      sub\n        /* \"#utility.yul\":12734:12735   */\n      0x00\n        /* \"#utility.yul\":12723:12732   */\n      dup4\n        /* \"#utility.yul\":12719:12736   */\n      add\n        /* \"#utility.yul\":12712:12759   */\n      mstore\n        /* \"#utility.yul\":12776:12907   */\n      tag_310\n        /* \"#utility.yul\":12902:12906   */\n      dup2\n        /* \"#utility.yul\":12776:12907   */\n      tag_153\n      jump\t// in\n    tag_310:\n        /* \"#utility.yul\":12768:12907   */\n      swap1\n      pop\n        /* \"#utility.yul\":12495:12914   */\n      swap2\n      swap1\n      pop\n      jump\t// out\n        /* \"#utility.yul\":12920:13087   */\n    tag_154:\n        /* \"#utility.yul\":13060:13079   */\n      0x496e76616c6964206e6577206f776e6572000000000000000000000000000000\n        /* \"#utility.yul\":13056:13057   */\n      0x00\n        /* \"#utility.yul\":13048:13054   */\n      dup3\n        /* \"#utility.yul\":13044:13058   */\n      add\n        /* \"#utility.yul\":13037:13080   */\n      mstore\n        /* \"#utility.yul\":12920:13087   */\n      pop\n      jump\t// out\n        /* \"#utility.yul\":13093:13459   */\n    tag_155:\n        /* \"#utility.yul\":13235:13238   */\n      0x00\n        /* \"#utility.yul\":13256:13323   */\n      tag_313\n        /* \"#utility.yul\":13320:13322   */\n      0x11\n        /* \"#utility.yul\":13315:13318   */\n      dup4\n        /* \"#utility.yul\":13256:13323   */\n      tag_120\n      jump\t// in\n    tag_313:\n        /* \"#utility.yul\":13249:13323   */\n      swap2\n      pop\n        /* \"#utility.yul\":13332:13425   */\n      tag_314\n        /* \"#utility.yul\":13421:13424   */\n      dup3\n        /* \"#utility.yul\":13332:13425   */\n      tag_154\n      jump\t// in\n    tag_314:\n        /* \"#utility.yul\":13450:13452   */\n      0x20\n        /* \"#utility.yul\":13445:13448   */\n      dup3\n        /* \"#utility.yul\":13441:13453   */\n      add\n        /* \"#utility.yul\":13434:13453   */\n      swap1\n      pop\n        /* \"#utility.yul\":13093:13459   */\n      swap2\n      swap1\n      pop\n      jump\t// out\n        /* \"#utility.yul\":13465:13884   */\n    tag_70:\n        /* \"#utility.yul\":13631:13635   */\n      0x00\n        /* \"#utility.yul\":13669:13671   */\n      0x20\n        /* \"#utility.yul\":13658:13667   */\n      dup3\n        /* \"#utility.yul\":13654:13672   */\n      add\n        /* \"#utility.yul\":13646:13672   */\n      swap1\n      pop\n        /* \"#utility.yul\":13718:13727   */\n      dup2\n        /* \"#utility.yul\":13712:13716   */\n      dup2\n        /* \"#utility.yul\":13708:13728   */\n      sub\n        /* \"#utility.yul\":13704:13705   */\n      0x00\n        /* \"#utility.yul\":13693:13702   */\n      dup4\n        /* \"#utility.yul\":13689:13706   */\n      add\n        /* \"#utility.yul\":13682:13729   */\n      mstore\n        /* \"#utility.yul\":13746:13877   */\n      tag_316\n        /* \"#utility.yul\":13872:13876   */\n      dup2\n        /* \"#utility.yul\":13746:13877   */\n      tag_155\n      jump\t// in\n    tag_316:\n        /* \"#utility.yul\":13738:13877   */\n      swap1\n      pop\n        /* \"#utility.yul\":13465:13884   */\n      swap2\n      swap1\n      pop\n      jump\t// out\n        /* \"#utility.yul\":13890:14055   */\n    tag_156:\n        /* \"#utility.yul\":14030:14047   */\n      0x496e76616c696420495020547970650000000000000000000000000000000000\n        /* \"#utility.yul\":14026:14027   */\n      0x00\n        /* \"#utility.yul\":14018:14024   */\n      dup3\n        /* \"#utility.yul\":14014:14028   */\n      add\n        /* \"#utility.yul\":14007:14048   */\n      mstore\n        /* \"#utility.yul\":13890:14055   */\n      pop\n      jump\t// out\n        /* \"#utility.yul\":14061:14427   */\n    tag_157:\n        /* \"#utility.yul\":14203:14206   */\n      0x00\n        /* \"#utility.yul\":14224:14291   */\n      tag_319\n        /* \"#utility.yul\":14288:14290   */\n      0x0f\n        /* \"#utility.yul\":14283:14286   */\n      dup4\n        /* \"#utility.yul\":14224:14291   */\n      tag_120\n      jump\t// in\n    tag_319:\n        /* \"#utility.yul\":14217:14291   */\n      swap2\n      pop\n        /* \"#utility.yul\":14300:14393   */\n      tag_320\n        /* \"#utility.yul\":14389:14392   */\n      dup3\n        /* \"#utility.yul\":14300:14393   */\n      tag_156\n      jump\t// in\n    tag_320:\n        /* \"#utility.yul\":14418:14420   */\n      0x20\n        /* \"#utility.yul\":14413:14416   */\n      dup3\n        /* \"#utility.yul\":14409:14421   */\n      add\n        /* \"#utility.yul\":14402:14421   */\n      swap1\n      pop\n        /* \"#utility.yul\":14061:14427   */\n      swap2\n      swap1\n      pop\n      jump\t// out\n        /* \"#utility.yul\":14433:14852   */\n    tag_81:\n        /* \"#utility.yul\":14599:14603   */\n      0x00\n        /* \"#utility.yul\":14637:14639   */\n      0x20\n        /* \"#utility.yul\":14626:14635   */\n      dup3\n        /* \"#utility.yul\":14622:14640   */\n      add\n        /* \"#utility.yul\":14614:14640   */\n      swap1\n      pop\n        /* \"#utility.yul\":14686:14695   */\n      dup2\n        /* \"#utility.yul\":14680:14684   */\n      dup2\n        /* \"#utility.yul\":14676:14696   */\n      sub\n        /* \"#utility.yul\":14672:14673   */\n      0x00\n        /* \"#utility.yul\":14661:14670   */\n      dup4\n        /* \"#utility.yul\":14657:14674   */\n      add\n        /* \"#utility.yul\":14650:14697   */\n      mstore\n        /* \"#utility.yul\":14714:14845   */\n      tag_322\n        /* \"#utility.yul\":14840:14844   */\n      dup2\n        /* \"#utility.yul\":14714:14845   */\n      tag_157\n      jump\t// in\n    tag_322:\n        /* \"#utility.yul\":14706:14845   */\n      swap1\n      pop\n        /* \"#utility.yul\":14433:14852   */\n      swap2\n      swap1\n      pop\n      jump\t// out\n        /* \"#utility.yul\":14858:15038   */\n    tag_158:\n        /* \"#utility.yul\":14906:14983   */\n      0x4e487b7100000000000000000000000000000000000000000000000000000000\n        /* \"#utility.yul\":14903:14904   */\n      0x00\n        /* \"#utility.yul\":14896:14984   */\n      mstore\n        /* \"#utility.yul\":15003:15007   */\n      0x11\n        /* \"#utility.yul\":15000:15001   */\n      0x04\n        /* \"#utility.yul\":14993:15008   */\n      mstore\n        /* \"#utility.yul\":15027:15031   */\n      0x24\n        /* \"#utility.yul\":15024:15025   */\n      0x00\n        /* \"#utility.yul\":15017:15032   */\n      revert\n        /* \"#utility.yul\":15044:15277   */\n    tag_83:\n        /* \"#utility.yul\":15083:15086   */\n      0x00\n        /* \"#utility.yul\":15106:15130   */\n      tag_325\n        /* \"#utility.yul\":15124:15129   */\n      dup3\n        /* \"#utility.yul\":15106:15130   */\n      tag_111\n      jump\t// in\n    tag_325:\n        /* \"#utility.yul\":15097:15130   */\n      swap2\n      pop\n        /* \"#utility.yul\":15152:15218   */\n      0xffffffffffffffffffffffffffffffffffffffffffffffffffffffffffffffff\n        /* \"#utility.yul\":15145:15150   */\n      dup3\n        /* \"#utility.yul\":15142:15219   */\n      sub\n        /* \"#utility.yul\":15139:15242   */\n      tag_326\n      jumpi\n        /* \"#utility.yul\":15222:15240   */\n      tag_327\n      tag_158\n      jump\t// in\n    tag_327:\n        /* \"#utility.yul\":15139:15242   */\n    tag_326:\n        /* \"#utility.yul\":15269:15270   */\n      0x01\n        /* \"#utility.yul\":15262:15267   */\n      dup3\n        /* \"#utility.yul\":15258:15271   */\n      add\n        /* \"#utility.yul\":15251:15271   */\n      swap1\n      pop\n        /* \"#utility.yul\":15044:15277   */\n      swap2\n      swap1\n      pop\n      jump\t// out\n        /* \"#utility.yul\":15283:15463   */\n    tag_90:\n        /* \"#utility.yul\":15331:15408   */\n      0x4e487b7100000000000000000000000000000000000000000000000000000000\n        /* \"#utility.yul\":15328:15329   */\n      0x00\n        /* \"#utility.yul\":15321:15409   */\n      mstore\n        /* \"#utility.yul\":15428:15432   */\n      0x32\n        /* \"#utility.yul\":15425:15426   */\n      0x04\n        /* \"#utility.yul\":15418:15433   */\n      mstore\n        /* \"#utility.yul\":15452:15456   */\n      0x24\n        /* \"#utility.yul\":15449:15450   */\n      0x00\n        /* \"#utility.yul\":15442:15457   */\n      revert\n        /* \"#utility.yul\":15469:15610   */\n    tag_159:\n        /* \"#utility.yul\":15518:15522   */\n      0x00\n        /* \"#utility.yul\":15541:15544   */\n      dup2\n        /* \"#utility.yul\":15533:15544   */\n      swap1\n      pop\n        /* \"#utility.yul\":15564:15567   */\n      dup2\n        /* \"#utility.yul\":15561:15562   */\n      0x00\n        /* \"#utility.yul\":15554:15568   */\n      mstore\n        /* \"#utility.yul\":15598:15602   */\n      0x20\n        /* \"#utility.yul\":15595:15596   */\n      0x00\n        /* \"#utility.yul\":15585:15603   */\n      keccak256\n        /* \"#utility.yul\":15577:15603   */\n      swap1\n      pop\n        /* \"#utility.yul\":15469:15610   */\n      swap2\n      swap1\n      pop\n      jump\t// out\n        /* \"#utility.yul\":15616:15709   */\n    tag_160:\n        /* \"#utility.yul\":15653:15659   */\n      0x00\n        /* \"#utility.yul\":15700:15702   */\n      0x20\n        /* \"#utility.yul\":15695:15697   */\n      0x1f\n        /* \"#utility.yul\":15688:15693   */\n      dup4\n        /* \"#utility.yul\":15684:15698   */\n      add\n        /* \"#utility.yul\":15680:15703   */\n      div\n        /* \"#utility.yul\":15670:15703   */\n      swap1\n      pop\n        /* \"#utility.yul\":15616:15709   */\n      swap2\n      swap1\n      pop\n      jump\t// out\n        /* \"#utility.yul\":15715:15822   */\n    tag_161:\n        /* \"#utility.yul\":15759:15767   */\n      0x00\n        /* \"#utility.yul\":15809:15814   */\n      dup3\n        /* \"#utility.yul\":15803:15807   */\n      dup3\n        /* \"#utility.yul\":15799:15815   */\n      shl\n        /* \"#utility.yul\":15778:15815   */\n      swap1\n      pop\n        /* \"#utility.yul\":15715:15822   */\n      swap3\n      swap2\n      pop\n      pop\n      jump\t// out\n        /* \"#utility.yul\":15828:16221   */\n    tag_162:\n        /* \"#utility.yul\":15897:15903   */\n      0x00\n        /* \"#utility.yul\":15947:15948   */\n      0x08\n        /* \"#utility.yul\":15935:15945   */\n      dup4\n        /* \"#utility.yul\":15931:15949   */\n      mul\n        /* \"#utility.yul\":15970:16067   */\n      tag_333\n        /* \"#utility.yul\":16000:16066   */\n      0xffffffffffffffffffffffffffffffffffffffffffffffffffffffffffffffff\n        /* \"#utility.yul\":15989:15998   */\n      dup3\n        /* \"#utility.yul\":15970:16067   */\n      tag_161\n      jump\t// in\n    tag_333:\n        /* \"#utility.yul\":16088:16127   */\n      tag_334\n        /* \"#utility.yul\":16118:16126   */\n      dup7\n        /* \"#utility.yul\":16107:16116   */\n      dup4\n        /* \"#utility.yul\":16088:16127   */\n      tag_161\n      jump\t// in\n    tag_334:\n        /* \"#utility.yul\":16076:16127   */\n      swap6\n      pop\n        /* \"#utility.yul\":16160:16164   */\n      dup1\n        /* \"#utility.yul\":16156:16165   */\n      not\n        /* \"#utility.yul\":16149:16154   */\n      dup5\n        /* \"#utility.yul\":16145:16166   */\n      and\n        /* \"#utility.yul\":16136:16166   */\n      swap4\n      pop\n        /* \"#utility.yul\":16209:16213   */\n      dup1\n        /* \"#utility.yul\":16199:16207   */\n      dup7\n        /* \"#utility.yul\":16195:16214   */\n      and\n        /* \"#utility.yul\":16188:16193   */\n      dup5\n        /* \"#utility.yul\":16185:16215   */\n      or\n        /* \"#utility.yul\":16175:16215   */\n      swap3\n      pop\n        /* \"#utility.yul\":15904:16221   */\n      pop\n      pop\n        /* \"#utility.yul\":15828:16221   */\n      swap4\n      swap3\n      pop\n      pop\n      pop\n      jump\t// out\n        /* \"#utility.yul\":16227:16287   */\n    tag_163:\n        /* \"#utility.yul\":16255:16258   */\n      0x00\n        /* \"#utility.yul\":16276:16281   */\n      dup2\n        /* \"#utility.yul\":16269:16281   */\n      swap1\n      pop\n        /* \"#utility.yul\":16227:16287   */\n      swap2\n      swap1\n      pop\n      jump\t// out\n        /* \"#utility.yul\":16293:16435   */\n    tag_164:\n        /* \"#utility.yul\":16343:16352   */\n      0x00\n        /* \"#utility.yul\":16376:16429   */\n      tag_337\n        /* \"#utility.yul\":16394:16428   */\n      tag_338\n        /* \"#utility.yul\":16403:16427   */\n      tag_339\n        /* \"#utility.yul\":16421:16426   */\n      dup5\n        /* \"#utility.yul\":16403:16427   */\n      tag_111\n      jump\t// in\n    tag_339:\n        /* \"#utility.yul\":16394:16428   */\n      tag_163\n      jump\t// in\n    tag_338:\n        /* \"#utility.yul\":16376:16429   */\n      tag_111\n      jump\t// in\n    tag_337:\n        /* \"#utility.yul\":16363:16429   */\n      swap1\n      pop\n        /* \"#utility.yul\":16293:16435   */\n      swap2\n      swap1\n      pop\n      jump\t// out\n        /* \"#utility.yul\":16441:16516   */\n    tag_165:\n        /* \"#utility.yul\":16484:16487   */\n      0x00\n        /* \"#utility.yul\":16505:16510   */\n      dup2\n        /* \"#utility.yul\":16498:16510   */\n      swap1\n      pop\n        /* \"#utility.yul\":16441:16516   */\n      swap2\n      swap1\n      pop\n      jump\t// out\n        /* \"#utility.yul\":16522:16791   */\n    tag_166:\n        /* \"#utility.yul\":16632:16671   */\n      tag_342\n        /* \"#utility.yul\":16663:16670   */\n      dup4\n        /* \"#utility.yul\":16632:16671   */\n      tag_164\n      jump\t// in\n    tag_342:\n        /* \"#utility.yul\":16693:16784   */\n      tag_343\n        /* \"#utility.yul\":16742:16783   */\n      tag_344\n        /* \"#utility.yul\":16766:16782   */\n      dup3\n        /* \"#utility.yul\":16742:16783   */\n      tag_165\n      jump\t// in\n    tag_344:\n        /* \"#utility.yul\":16734:16740   */\n      dup5\n        /* \"#utility.yul\":16727:16731   */\n      dup5\n        /* \"#utility.yul\":16721:16732   */\n      sload\n        /* \"#utility.yul\":16693:16784   */\n      tag_162\n      jump\t// in\n    tag_343:\n        /* \"#utility.yul\":16687:16691   */\n      dup3\n        /* \"#utility.yul\":16680:16785   */\n      sstore\n        /* \"#utility.yul\":16598:16791   */\n      pop\n        /* \"#utility.yul\":16522:16791   */\n      pop\n      pop\n      pop\n      jump\t// out\n        /* \"#utility.yul\":16797:16870   */\n    tag_167:\n        /* \"#utility.yul\":16842:16845   */\n      0x00\n        /* \"#utility.yul\":16797:16870   */\n      swap1\n      jump\t// out\n        /* \"#utility.yul\":16876:17065   */\n    tag_168:\n        /* \"#utility.yul\":16953:16985   */\n      tag_347\n      tag_167\n      jump\t// in\n    tag_347:\n        /* \"#utility.yul\":16994:17059   */\n      tag_348\n        /* \"#utility.yul\":17052:17058   */\n      dup2\n        /* \"#utility.yul\":17044:17050   */\n      dup5\n        /* \"#utility.yul\":17038:17042   */\n      dup5\n        /* \"#utility.yul\":16994:17059   */\n      tag_166\n      jump\t// in\n    tag_348:\n        /* \"#utility.yul\":16929:17065   */\n      pop\n        /* \"#utility.yul\":16876:17065   */\n      pop\n      pop\n      jump\t// out\n        /* \"#utility.yul\":17071:17257   */\n    tag_169:\n        /* \"#utility.yul\":17131:17251   */\n    tag_350:\n        /* \"#utility.yul\":17148:17151   */\n      dup2\n        /* \"#utility.yul\":17141:17146   */\n      dup2\n        /* \"#utility.yul\":17138:17152   */\n      lt\n        /* \"#utility.yul\":17131:17251   */\n      iszero\n      tag_352\n      jumpi\n        /* \"#utility.yul\":17202:17241   */\n      tag_353\n        /* \"#utility.yul\":17239:17240   */\n      0x00\n        /* \"#utility.yul\":17232:17237   */\n      dup3\n        /* \"#utility.yul\":17202:17241   */\n      tag_168\n      jump\t// in\n    tag_353:\n        /* \"#utility.yul\":17175:17176   */\n      0x01\n        /* \"#utility.yul\":17168:17173   */\n      dup2\n        /* \"#utility.yul\":17164:17177   */\n      add\n        /* \"#utility.yul\":17155:17177   */\n      swap1\n      pop\n        /* \"#utility.yul\":17131:17251   */\n      jump(tag_350)\n    tag_352:\n        /* \"#utility.yul\":17071:17257   */\n      pop\n      pop\n      jump\t// out\n        /* \"#utility.yul\":17263:17806   */\n    tag_170:\n        /* \"#utility.yul\":17364:17366   */\n      0x1f\n        /* \"#utility.yul\":17359:17362   */\n      dup3\n        /* \"#utility.yul\":17356:17367   */\n      gt\n        /* \"#utility.yul\":17353:17799   */\n      iszero\n      tag_355\n      jumpi\n        /* \"#utility.yul\":17398:17436   */\n      tag_356\n        /* \"#utility.yul\":17430:17435   */\n      dup2\n        /* \"#utility.yul\":17398:17436   */\n      tag_159\n      jump\t// in\n    tag_356:\n        /* \"#utility.yul\":17482:17511   */\n      tag_357\n        /* \"#utility.yul\":17500:17510   */\n      dup5\n        /* \"#utility.yul\":17482:17511   */\n      tag_160\n      jump\t// in\n    tag_357:\n        /* \"#utility.yul\":17472:17480   */\n      dup2\n        /* \"#utility.yul\":17468:17512   */\n      add\n        /* \"#utility.yul\":17665:17667   */\n      0x20\n        /* \"#utility.yul\":17653:17663   */\n      dup6\n        /* \"#utility.yul\":17650:17668   */\n      lt\n        /* \"#utility.yul\":17647:17696   */\n      iszero\n      tag_358\n      jumpi\n        /* \"#utility.yul\":17686:17694   */\n      dup2\n        /* \"#utility.yul\":17671:17694   */\n      swap1\n      pop\n        /* \"#utility.yul\":17647:17696   */\n    tag_358:\n        /* \"#utility.yul\":17709:17789   */\n      tag_359\n        /* \"#utility.yul\":17765:17787   */\n      tag_360\n        /* \"#utility.yul\":17783:17786   */\n      dup6\n        /* \"#utility.yul\":17765:17787   */\n      tag_160\n      jump\t// in\n    tag_360:\n        /* \"#utility.yul\":17755:17763   */\n      dup4\n        /* \"#utility.yul\":17751:17788   */\n      add\n        /* \"#utility.yul\":17738:17749   */\n      dup3\n        /* \"#utility.yul\":17709:17789   */\n      tag_169\n      jump\t// in\n    tag_359:\n        /* \"#utility.yul\":17368:17799   */\n      pop\n      pop\n        /* \"#utility.yul\":17353:17799   */\n    tag_355:\n        /* \"#utility.yul\":17263:17806   */\n      pop\n      pop\n      pop\n      jump\t// out\n        /* \"#utility.yul\":17812:17929   */\n    tag_171:\n        /* \"#utility.yul\":17866:17874   */\n      0x00\n        /* \"#utility.yul\":17916:17921   */\n      dup3\n        /* \"#utility.yul\":17910:17914   */\n      dup3\n        /* \"#utility.yul\":17906:17922   */\n      shr\n        /* \"#utility.yul\":17885:17922   */\n      swap1\n      pop\n        /* \"#utility.yul\":17812:17929   */\n      swap3\n      swap2\n      pop\n      pop\n      jump\t// out\n        /* \"#utility.yul\":17935:18104   */\n    tag_172:\n        /* \"#utility.yul\":17979:17985   */\n      0x00\n        /* \"#utility.yul\":18012:18063   */\n      tag_363\n        /* \"#utility.yul\":18060:18061   */\n      0x00\n        /* \"#utility.yul\":18056:18062   */\n      not\n        /* \"#utility.yul\":18048:18053   */\n      dup5\n        /* \"#utility.yul\":18045:18046   */\n      0x08\n        /* \"#utility.yul\":18041:18054   */\n      mul\n        /* \"#utility.yul\":18012:18063   */\n      tag_171\n      jump\t// in\n    tag_363:\n        /* \"#utility.yul\":18008:18064   */\n      not\n        /* \"#utility.yul\":18093:18097   */\n      dup1\n        /* \"#utility.yul\":18087:18091   */\n      dup4\n        /* \"#utility.yul\":18083:18098   */\n      and\n        /* \"#utility.yul\":18073:18098   */\n      swap2\n      pop\n        /* \"#utility.yul\":17986:18104   */\n      pop\n        /* \"#utility.yul\":17935:18104   */\n      swap3\n      swap2\n      pop\n      pop\n      jump\t// out\n        /* \"#utility.yul\":18109:18404   */\n    tag_173:\n        /* \"#utility.yul\":18185:18189   */\n      0x00\n        /* \"#utility.yul\":18331:18360   */\n      tag_365\n        /* \"#utility.yul\":18356:18359   */\n      dup4\n        /* \"#utility.yul\":18350:18354   */\n      dup4\n        /* \"#utility.yul\":18331:18360   */\n      tag_172\n      jump\t// in\n    tag_365:\n        /* \"#utility.yul\":18323:18360   */\n      swap2\n      pop\n        /* \"#utility.yul\":18393:18396   */\n      dup3\n        /* \"#utility.yul\":18390:18391   */\n      0x02\n        /* \"#utility.yul\":18386:18397   */\n      mul\n        /* \"#utility.yul\":18380:18384   */\n      dup3\n        /* \"#utility.yul\":18377:18398   */\n      or\n        /* \"#utility.yul\":18369:18398   */\n      swap1\n      pop\n        /* \"#utility.yul\":18109:18404   */\n      swap3\n      swap2\n      pop\n      pop\n      jump\t// out\n        /* \"#utility.yul\":18409:19804   */\n    tag_98:\n        /* \"#utility.yul\":18526:18563   */\n      tag_367\n        /* \"#utility.yul\":18559:18562   */\n      dup3\n        /* \"#utility.yul\":18526:18563   */\n      tag_119\n      jump\t// in\n    tag_367:\n        /* \"#utility.yul\":18628:18646   */\n      0xffffffffffffffff\n        /* \"#utility.yul\":18620:18626   */\n      dup2\n        /* \"#utility.yul\":18617:18647   */\n      gt\n        /* \"#utility.yul\":18614:18670   */\n      iszero\n      tag_368\n      jumpi\n        /* \"#utility.yul\":18650:18668   */\n      tag_369\n      tag_86\n      jump\t// in\n    tag_369:\n        /* \"#utility.yul\":18614:18670   */\n    tag_368:\n        /* \"#utility.yul\":18694:18732   */\n      tag_370\n        /* \"#utility.yul\":18726:18730   */\n      dup3\n        /* \"#utility.yul\":18720:18731   */\n      sload\n        /* \"#utility.yul\":18694:18732   */\n      tag_52\n      jump\t// in\n    tag_370:\n        /* \"#utility.yul\":18779:18846   */\n      tag_371\n        /* \"#utility.yul\":18839:18845   */\n      dup3\n        /* \"#utility.yul\":18831:18837   */\n      dup3\n        /* \"#utility.yul\":18825:18829   */\n      dup6\n        /* \"#utility.yul\":18779:18846   */\n      tag_170\n      jump\t// in\n    tag_371:\n        /* \"#utility.yul\":18873:18874   */\n      0x00\n        /* \"#utility.yul\":18897:18901   */\n      0x20\n        /* \"#utility.yul\":18884:18901   */\n      swap1\n      pop\n        /* \"#utility.yul\":18929:18931   */\n      0x1f\n        /* \"#utility.yul\":18921:18927   */\n      dup4\n        /* \"#utility.yul\":18918:18932   */\n      gt\n        /* \"#utility.yul\":18946:18947   */\n      0x01\n        /* \"#utility.yul\":18941:19559   */\n      dup2\n      eq\n      tag_373\n      jumpi\n        /* \"#utility.yul\":19603:19604   */\n      0x00\n        /* \"#utility.yul\":19620:19626   */\n      dup5\n        /* \"#utility.yul\":19617:19694   */\n      iszero\n      tag_374\n      jumpi\n        /* \"#utility.yul\":19669:19678   */\n      dup3\n        /* \"#utility.yul\":19664:19667   */\n      dup8\n        /* \"#utility.yul\":19660:19679   */\n      add\n        /* \"#utility.yul\":19654:19680   */\n      mload\n        /* \"#utility.yul\":19645:19680   */\n      swap1\n      pop\n        /* \"#utility.yul\":19617:19694   */\n    tag_374:\n        /* \"#utility.yul\":19720:19787   */\n      tag_375\n        /* \"#utility.yul\":19780:19786   */\n      dup6\n        /* \"#utility.yul\":19773:19778   */\n      dup3\n        /* \"#utility.yul\":19720:19787   */\n      tag_173\n      jump\t// in\n    tag_375:\n        /* \"#utility.yul\":19714:19718   */\n      dup7\n        /* \"#utility.yul\":19707:19788   */\n      sstore\n        /* \"#utility.yul\":19576:19798   */\n      pop\n        /* \"#utility.yul\":18911:19798   */\n      jump(tag_372)\n        /* \"#utility.yul\":18941:19559   */\n    tag_373:\n        /* \"#utility.yul\":18993:18997   */\n      0x1f\n        /* \"#utility.yul\":18989:18998   */\n      not\n        /* \"#utility.yul\":18981:18987   */\n      dup5\n        /* \"#utility.yul\":18977:18999   */\n      and\n        /* \"#utility.yul\":19027:19064   */\n      tag_376\n        /* \"#utility.yul\":19059:19063   */\n      dup7\n        /* \"#utility.yul\":19027:19064   */\n      tag_159\n      jump\t// in\n    tag_376:\n        /* \"#utility.yul\":19086:19087   */\n      0x00\n        /* \"#utility.yul\":19100:19308   */\n    tag_377:\n        /* \"#utility.yul\":19114:19121   */\n      dup3\n        /* \"#utility.yul\":19111:19112   */\n      dup2\n        /* \"#utility.yul\":19108:19122   */\n      lt\n        /* \"#utility.yul\":19100:19308   */\n      iszero\n      tag_379\n      jumpi\n        /* \"#utility.yul\":19193:19202   */\n      dup5\n        /* \"#utility.yul\":19188:19191   */\n      dup10\n        /* \"#utility.yul\":19184:19203   */\n      add\n        /* \"#utility.yul\":19178:19204   */\n      mload\n        /* \"#utility.yul\":19170:19176   */\n      dup3\n        /* \"#utility.yul\":19163:19205   */\n      sstore\n        /* \"#utility.yul\":19244:19245   */\n      0x01\n        /* \"#utility.yul\":19236:19242   */\n      dup3\n        /* \"#utility.yul\":19232:19246   */\n      add\n        /* \"#utility.yul\":19222:19246   */\n      swap2\n      pop\n        /* \"#utility.yul\":19291:19293   */\n      0x20\n        /* \"#utility.yul\":19280:19289   */\n      dup6\n        /* \"#utility.yul\":19276:19294   */\n      add\n        /* \"#utility.yul\":19263:19294   */\n      swap5\n      pop\n        /* \"#utility.yul\":19137:19141   */\n      0x20\n        /* \"#utility.yul\":19134:19135   */\n      dup2\n        /* \"#utility.yul\":19130:19142   */\n      add\n        /* \"#utility.yul\":19125:19142   */\n      swap1\n      pop\n        /* \"#utility.yul\":19100:19308   */\n      jump(tag_377)\n    tag_379:\n        /* \"#utility.yul\":19336:19342   */\n      dup7\n        /* \"#utility.yul\":19327:19334   */\n      dup4\n        /* \"#utility.yul\":19324:19343   */\n      lt\n        /* \"#utility.yul\":19321:19500   */\n      iszero\n      tag_380\n      jumpi\n        /* \"#utility.yul\":19394:19403   */\n      dup5\n        /* \"#utility.yul\":19389:19392   */\n      dup10\n        /* \"#utility.yul\":19385:19404   */\n      add\n        /* \"#utility.yul\":19379:19405   */\n      mload\n        /* \"#utility.yul\":19437:19485   */\n      tag_381\n        /* \"#utility.yul\":19479:19483   */\n      0x1f\n        /* \"#utility.yul\":19471:19477   */\n      dup10\n        /* \"#utility.yul\":19467:19484   */\n      and\n        /* \"#utility.yul\":19456:19465   */\n      dup3\n        /* \"#utility.yul\":19437:19485   */\n      tag_172\n      jump\t// in\n    tag_381:\n        /* \"#utility.yul\":19429:19435   */\n      dup4\n        /* \"#utility.yul\":19422:19486   */\n      sstore\n        /* \"#utility.yul\":19344:19500   */\n      pop\n        /* \"#utility.yul\":19321:19500   */\n    tag_380:\n        /* \"#utility.yul\":19546:19547   */\n      0x01\n        /* \"#utility.yul\":19542:19543   */\n      0x02\n        /* \"#utility.yul\":19534:19540   */\n      dup9\n        /* \"#utility.yul\":19530:19544   */\n      mul\n        /* \"#utility.yul\":19526:19548   */\n      add\n        /* \"#utility.yul\":19520:19524   */\n      dup9\n        /* \"#utility.yul\":19513:19549   */\n      sstore\n        /* \"#utility.yul\":18948:19559   */\n      pop\n      pop\n      pop\n        /* \"#utility.yul\":18911:19798   */\n    tag_372:\n      pop\n        /* \"#utility.yul\":18501:19804   */\n      pop\n      pop\n      pop\n        /* \"#utility.yul\":18409:19804   */\n      pop\n      pop\n      jump\t// out\n\n    auxdata: 0xa2646970667358221220645af3d7703d20ad0a012d5d20dd883a868c9a7f6d970d950edf0d88adca1a0264736f6c634300081a0033\n}\n",
				"bytecode": {
					"linkReferences": {},
					"object": "60806040525f6001553480156012575f80fd5b50335f806101000a81548173ffffffffffffffffffffffffffffffffffffffff021916908373ffffffffffffffffffffffffffffffffffffffff1602179055506115a18061005f5f395ff3fe608060405234801561000f575f80fd5b5060043610610085575f3560e01c806352cff8791161005957806352cff87914610129578063ce606ee014610147578063f1dbaccb14610165578063fd9ed3a91461019557610085565b80621e5c1c1461008957806302c59bc6146100a55780631feb4bfb146100d957806329507f731461010d575b5f80fd5b6100a3600480360381019061009e9190610b66565b6101b1565b005b6100bf60048036038101906100ba9190610b66565b6102b1565b6040516100d0959493929190610cdc565b60405180910390f35b6100f360048036038101906100ee9190610b66565b6103a0565b604051610104959493929190610cdc565b60405180910390f35b61012760048036038101906101229190610d5e565b6104a3565b005b61013161070f565b60405161013e9190610d9c565b60405180910390f35b61014f610715565b60405161015c9190610db5565b60405180910390f35b61017f600480360381019061017a9190610b66565b610738565b60405161018c9190610e85565b60405180910390f35b6101af60048036038101906101aa9190611007565b6107d7565b005b5f8054906101000a900473ffffffffffffffffffffffffffffffffffffffff1673ffffffffffffffffffffffffffffffffffffffff163373ffffffffffffffffffffffffffffffffffffffff161461023e576040517f08c379a0000000000000000000000000000000000000000000000000000000008152600401610235906110ab565b60405180910390fd5b600160025f8381526020019081526020015f206005015f6101000a81548160ff0219169083151502179055503373ffffffffffffffffffffffffffffffffffffffff16817f76ecd013710767654f52fb3745cfc70f66ad9c02fdcd90881e4f1c5e7c9b153e60405160405180910390a350565b6002602052805f5260405f205f91509050805f015490806001015f9054906101000a900460ff16908060020180546102e8906110f6565b80601f0160208091040260200160405190810160405280929190818152602001828054610314906110f6565b801561035f5780601f106103365761010080835404028352916020019161035f565b820191905f5260205f20905b81548152906001019060200180831161034257829003601f168201915b505050505090806003015f9054906101000a900473ffffffffffffffffffffffffffffffffffffffff1690806005015f9054906101000a900460ff16905085565b5f8060605f805f60025f8881526020019081526020015f20905085816001015f9054906101000a900460ff1682600201836003015f9054906101000a900473ffffffffffffffffffffffffffffffffffffffff16846005015f9054906101000a900460ff16828054610411906110f6565b80601f016020809104026020016040519081016040528092919081815260200182805461043d906110f6565b80156104885780601f1061045f57610100808354040283529160200191610488565b820191905f5260205f20905b81548152906001019060200180831161046b57829003601f168201915b50505050509250955095509550955095505091939590929450565b8160025f8281526020019081526020015f206003015f9054906101000a900473ffffffffffffffffffffffffffffffffffffffff1673ffffffffffffffffffffffffffffffffffffffff163373ffffffffffffffffffffffffffffffffffffffff1614610545576040517f08c379a000000000000000000000000000000000000000000000000000000000815260040161053c90611170565b60405180910390fd5b5f73ffffffffffffffffffffffffffffffffffffffff168273ffffffffffffffffffffffffffffffffffffffff16036105b3576040517f08c379a00000000000000000000000000000000000000000000000000000000081526004016105aa906111d8565b60405180910390fd5b60025f8481526020019081526020015f2060040182908060018154018082558091505060019003905f5260205f20015f9091909190916101000a81548173ffffffffffffffffffffffffffffffffffffffff021916908373ffffffffffffffffffffffffffffffffffffffff1602179055505f60025f8581526020019081526020015f206003015f9054906101000a900473ffffffffffffffffffffffffffffffffffffffff1690508260025f8681526020019081526020015f206003015f6101000a81548173ffffffffffffffffffffffffffffffffffffffff021916908373ffffffffffffffffffffffffffffffffffffffff1602179055508273ffffffffffffffffffffffffffffffffffffffff168173ffffffffffffffffffffffffffffffffffffffff16857f16b85f49bf01212961345d3016c9a531894accf62eb7680f2045d79185cc0ec060405160405180910390a450505050565b60015481565b5f8054906101000a900473ffffffffffffffffffffffffffffffffffffffff1681565b606060025f8381526020019081526020015f206004018054806020026020016040519081016040528092919081815260200182805480156107cb57602002820191905f5260205f20905b815f9054906101000a900473ffffffffffffffffffffffffffffffffffffffff1673ffffffffffffffffffffffffffffffffffffffff1681526020019060010190808311610782575b50505050509050919050565b6002808111156107ea576107e9610ba0565b5b60ff168260ff161115610832576040517f08c379a000000000000000000000000000000000000000000000000000000000815260040161082990611240565b60405180910390fd5b60015f81546108409061128b565b919050819055505f600167ffffffffffffffff81111561086357610862610ee3565b5b6040519080825280602002602001820160405280156108915781602001602082028036833780820191505090505b50905033815f815181106108a8576108a76112d2565b5b602002602001019073ffffffffffffffffffffffffffffffffffffffff16908173ffffffffffffffffffffffffffffffffffffffff16815250506040518060c0016040528060015481526020018460ff16600281111561090b5761090a610ba0565b5b600281111561091d5761091c610ba0565b5b81526020018381526020013373ffffffffffffffffffffffffffffffffffffffff1681526020018281526020015f151581525060025f60015481526020019081526020015f205f820151815f01556020820151816001015f6101000a81548160ff0219169083600281111561099557610994610ba0565b5b021790555060408201518160020190816109af919061149c565b506060820151816003015f6101000a81548173ffffffffffffffffffffffffffffffffffffffff021916908373ffffffffffffffffffffffffffffffffffffffff1602179055506080820151816004019080519060200190610a12929190610a80565b5060a0820151816005015f6101000a81548160ff0219169083151502179055509050503373ffffffffffffffffffffffffffffffffffffffff166001547f648163406997920c887ef548f40c15ae4a381833ea1a354567a97403d74b3bee60405160405180910390a3505050565b828054828255905f5260205f20908101928215610af6579160200282015b82811115610af5578251825f6101000a81548173ffffffffffffffffffffffffffffffffffffffff021916908373ffffffffffffffffffffffffffffffffffffffff16021790555091602001919060010190610a9e565b5b509050610b039190610b07565b5090565b5b80821115610b1e575f815f905550600101610b08565b5090565b5f604051905090565b5f80fd5b5f80fd5b5f819050919050565b610b4581610b33565b8114610b4f575f80fd5b50565b5f81359050610b6081610b3c565b92915050565b5f60208284031215610b7b57610b7a610b2b565b5b5f610b8884828501610b52565b91505092915050565b610b9a81610b33565b82525050565b7f4e487b71000000000000000000000000000000000000000000000000000000005f52602160045260245ffd5b60038110610bde57610bdd610ba0565b5b50565b5f819050610bee82610bcd565b919050565b5f610bfd82610be1565b9050919050565b610c0d81610bf3565b82525050565b5f81519050919050565b5f82825260208201905092915050565b8281835e5f83830152505050565b5f601f19601f8301169050919050565b5f610c5582610c13565b610c5f8185610c1d565b9350610c6f818560208601610c2d565b610c7881610c3b565b840191505092915050565b5f73ffffffffffffffffffffffffffffffffffffffff82169050919050565b5f610cac82610c83565b9050919050565b610cbc81610ca2565b82525050565b5f8115159050919050565b610cd681610cc2565b82525050565b5f60a082019050610cef5f830188610b91565b610cfc6020830187610c04565b8181036040830152610d0e8186610c4b565b9050610d1d6060830185610cb3565b610d2a6080830184610ccd565b9695505050505050565b610d3d81610ca2565b8114610d47575f80fd5b50565b5f81359050610d5881610d34565b92915050565b5f8060408385031215610d7457610d73610b2b565b5b5f610d8185828601610b52565b9250506020610d9285828601610d4a565b9150509250929050565b5f602082019050610daf5f830184610b91565b92915050565b5f602082019050610dc85f830184610cb3565b92915050565b5f81519050919050565b5f82825260208201905092915050565b5f819050602082019050919050565b610e0081610ca2565b82525050565b5f610e118383610df7565b60208301905092915050565b5f602082019050919050565b5f610e3382610dce565b610e3d8185610dd8565b9350610e4883610de8565b805f5b83811015610e78578151610e5f8882610e06565b9750610e6a83610e1d565b925050600181019050610e4b565b5085935050505092915050565b5f6020820190508181035f830152610e9d8184610e29565b905092915050565b5f60ff82169050919050565b610eba81610ea5565b8114610ec4575f80fd5b50565b5f81359050610ed581610eb1565b92915050565b5f80fd5b5f80fd5b7f4e487b71000000000000000000000000000000000000000000000000000000005f52604160045260245ffd5b610f1982610c3b565b810181811067ffffffffffffffff82111715610f3857610f37610ee3565b5b80604052505050565b5f610f4a610b22565b9050610f568282610f10565b919050565b5f67ffffffffffffffff821115610f7557610f74610ee3565b5b610f7e82610c3b565b9050602081019050919050565b828183375f83830152505050565b5f610fab610fa684610f5b565b610f41565b905082815260208101848484011115610fc757610fc6610edf565b5b610fd2848285610f8b565b509392505050565b5f82601f830112610fee57610fed610edb565b5b8135610ffe848260208601610f99565b91505092915050565b5f806040838503121561101d5761101c610b2b565b5b5f61102a85828601610ec7565b925050602083013567ffffffffffffffff81111561104b5761104a610b2f565b5b61105785828601610fda565b9150509250929050565b7f4e6f7420617574686f72697a65642e00000000000000000000000000000000005f82015250565b5f611095600f83610c1d565b91506110a082611061565b602082019050919050565b5f6020820190508181035f8301526110c281611089565b9050919050565b7f4e487b71000000000000000000000000000000000000000000000000000000005f52602260045260245ffd5b5f600282049050600182168061110d57607f821691505b6020821081036111205761111f6110c9565b5b50919050565b7f4e6f7420746865206f776e6572206f66207468697320495000000000000000005f82015250565b5f61115a601883610c1d565b915061116582611126565b602082019050919050565b5f6020820190508181035f8301526111878161114e565b9050919050565b7f496e76616c6964206e6577206f776e65720000000000000000000000000000005f82015250565b5f6111c2601183610c1d565b91506111cd8261118e565b602082019050919050565b5f6020820190508181035f8301526111ef816111b6565b9050919050565b7f496e76616c6964204950205479706500000000000000000000000000000000005f82015250565b5f61122a600f83610c1d565b9150611235826111f6565b602082019050919050565b5f6020820190508181035f8301526112578161121e565b9050919050565b7f4e487b71000000000000000000000000000000000000000000000000000000005f52601160045260245ffd5b5f61129582610b33565b91507fffffffffffffffffffffffffffffffffffffffffffffffffffffffffffffffff82036112c7576112c661125e565b5b600182019050919050565b7f4e487b71000000000000000000000000000000000000000000000000000000005f52603260045260245ffd5b5f819050815f5260205f209050919050565b5f6020601f8301049050919050565b5f82821b905092915050565b5f6008830261135b7fffffffffffffffffffffffffffffffffffffffffffffffffffffffffffffffff82611320565b6113658683611320565b95508019841693508086168417925050509392505050565b5f819050919050565b5f6113a061139b61139684610b33565b61137d565b610b33565b9050919050565b5f819050919050565b6113b983611386565b6113cd6113c5826113a7565b84845461132c565b825550505050565b5f90565b6113e16113d5565b6113ec8184846113b0565b505050565b5b8181101561140f576114045f826113d9565b6001810190506113f2565b5050565b601f82111561145457611425816112ff565b61142e84611311565b8101602085101561143d578190505b61145161144985611311565b8301826113f1565b50505b505050565b5f82821c905092915050565b5f6114745f1984600802611459565b1980831691505092915050565b5f61148c8383611465565b9150826002028217905092915050565b6114a582610c13565b67ffffffffffffffff8111156114be576114bd610ee3565b5b6114c882546110f6565b6114d3828285611413565b5f60209050601f831160018114611504575f84156114f2578287015190505b6114fc8582611481565b865550611563565b601f198416611512866112ff565b5f5b8281101561153957848901518255600182019150602085019450602081019050611514565b868310156115565784890151611552601f891682611465565b8355505b6001600288020188555050505b50505050505056fea2646970667358221220645af3d7703d20ad0a012d5d20dd883a868c9a7f6d970d950edf0d88adca1a0264736f6c634300081a0033",
					"opcodes": "PUSH1 0x80 PUSH1 0x40 MSTORE PUSH0 PUSH1 0x1 SSTORE CALLVALUE DUP1 ISZERO PUSH1 0x12 JUMPI PUSH0 DUP1 REVERT JUMPDEST POP CALLER PUSH0 DUP1 PUSH2 0x100 EXP DUP2 SLOAD DUP2 PUSH20 0xFFFFFFFFFFFFFFFFFFFFFFFFFFFFFFFFFFFFFFFF MUL NOT AND SWAP1 DUP4 PUSH20 0xFFFFFFFFFFFFFFFFFFFFFFFFFFFFFFFFFFFFFFFF AND MUL OR SWAP1 SSTORE POP PUSH2 0x15A1 DUP1 PUSH2 0x5F PUSH0 CODECOPY PUSH0 RETURN INVALID PUSH1 0x80 PUSH1 0x40 MSTORE CALLVALUE DUP1 ISZERO PUSH2 0xF JUMPI PUSH0 DUP1 REVERT JUMPDEST POP PUSH1 0x4 CALLDATASIZE LT PUSH2 0x85 JUMPI PUSH0 CALLDATALOAD PUSH1 0xE0 SHR DUP1 PUSH4 0x52CFF879 GT PUSH2 0x59 JUMPI DUP1 PUSH4 0x52CFF879 EQ PUSH2 0x129 JUMPI DUP1 PUSH4 0xCE606EE0 EQ PUSH2 0x147 JUMPI DUP1 PUSH4 0xF1DBACCB EQ PUSH2 0x165 JUMPI DUP1 PUSH4 0xFD9ED3A9 EQ PUSH2 0x195 JUMPI PUSH2 0x85 JUMP JUMPDEST DUP1 PUSH3 0x1E5C1C EQ PUSH2 0x89 JUMPI DUP1 PUSH4 0x2C59BC6 EQ PUSH2 0xA5 JUMPI DUP1 PUSH4 0x1FEB4BFB EQ PUSH2 0xD9 JUMPI DUP1 PUSH4 0x29507F73 EQ PUSH2 0x10D JUMPI JUMPDEST PUSH0 DUP1 REVERT JUMPDEST PUSH2 0xA3 PUSH1 0x4 DUP1 CALLDATASIZE SUB DUP2 ADD SWAP1 PUSH2 0x9E SWAP2 SWAP1 PUSH2 0xB66 JUMP JUMPDEST PUSH2 0x1B1 JUMP JUMPDEST STOP JUMPDEST PUSH2 0xBF PUSH1 0x4 DUP1 CALLDATASIZE SUB DUP2 ADD SWAP1 PUSH2 0xBA SWAP2 SWAP1 PUSH2 0xB66 JUMP JUMPDEST PUSH2 0x2B1 JUMP JUMPDEST PUSH1 0x40 MLOAD PUSH2 0xD0 SWAP6 SWAP5 SWAP4 SWAP3 SWAP2 SWAP1 PUSH2 0xCDC JUMP JUMPDEST PUSH1 0x40 MLOAD DUP1 SWAP2 SUB SWAP1 RETURN JUMPDEST PUSH2 0xF3 PUSH1 0x4 DUP1 CALLDATASIZE SUB DUP2 ADD SWAP1 PUSH2 0xEE SWAP2 SWAP1 PUSH2 0xB66 JUMP JUMPDEST PUSH2 0x3A0 JUMP JUMPDEST PUSH1 0x40 MLOAD PUSH2 0x104 SWAP6 SWAP5 SWAP4 SWAP3 SWAP2 SWAP1 PUSH2 0xCDC JUMP JUMPDEST PUSH1 0x40 MLOAD DUP1 SWAP2 SUB SWAP1 RETURN JUMPDEST PUSH2 0x127 PUSH1 0x4 DUP1 CALLDATASIZE SUB DUP2 ADD SWAP1 PUSH2 0x122 SWAP2 SWAP1 PUSH2 0xD5E JUMP JUMPDEST PUSH2 0x4A3 JUMP JUMPDEST STOP JUMPDEST PUSH2 0x131 PUSH2 0x70F JUMP JUMPDEST PUSH1 0x40 MLOAD PUSH2 0x13E SWAP2 SWAP1 PUSH2 0xD9C JUMP JUMPDEST PUSH1 0x40 MLOAD DUP1 SWAP2 SUB SWAP1 RETURN JUMPDEST PUSH2 0x14F PUSH2 0x715 JUMP JUMPDEST PUSH1 0x40 MLOAD PUSH2 0x15C SWAP2 SWAP1 PUSH2 0xDB5 JUMP JUMPDEST PUSH1 0x40 MLOAD DUP1 SWAP2 SUB SWAP1 RETURN JUMPDEST PUSH2 0x17F PUSH1 0x4 DUP1 CALLDATASIZE SUB DUP2 ADD SWAP1 PUSH2 0x17A SWAP2 SWAP1 PUSH2 0xB66 JUMP JUMPDEST PUSH2 0x738 JUMP JUMPDEST PUSH1 0x40 MLOAD PUSH2 0x18C SWAP2 SWAP1 PUSH2 0xE85 JUMP JUMPDEST PUSH1 0x40 MLOAD DUP1 SWAP2 SUB SWAP1 RETURN JUMPDEST PUSH2 0x1AF PUSH1 0x4 DUP1 CALLDATASIZE SUB DUP2 ADD SWAP1 PUSH2 0x1AA SWAP2 SWAP1 PUSH2 0x1007 JUMP JUMPDEST PUSH2 0x7D7 JUMP JUMPDEST STOP JUMPDEST PUSH0 DUP1 SLOAD SWAP1 PUSH2 0x100 EXP SWAP1 DIV PUSH20 0xFFFFFFFFFFFFFFFFFFFFFFFFFFFFFFFFFFFFFFFF AND PUSH20 0xFFFFFFFFFFFFFFFFFFFFFFFFFFFFFFFFFFFFFFFF AND CALLER PUSH20 0xFFFFFFFFFFFFFFFFFFFFFFFFFFFFFFFFFFFFFFFF AND EQ PUSH2 0x23E JUMPI PUSH1 0x40 MLOAD PUSH32 0x8C379A000000000000000000000000000000000000000000000000000000000 DUP2 MSTORE PUSH1 0x4 ADD PUSH2 0x235 SWAP1 PUSH2 0x10AB JUMP JUMPDEST PUSH1 0x40 MLOAD DUP1 SWAP2 SUB SWAP1 REVERT JUMPDEST PUSH1 0x1 PUSH1 0x2 PUSH0 DUP4 DUP2 MSTORE PUSH1 0x20 ADD SWAP1 DUP2 MSTORE PUSH1 0x20 ADD PUSH0 KECCAK256 PUSH1 0x5 ADD PUSH0 PUSH2 0x100 EXP DUP2 SLOAD DUP2 PUSH1 0xFF MUL NOT AND SWAP1 DUP4 ISZERO ISZERO MUL OR SWAP1 SSTORE POP CALLER PUSH20 0xFFFFFFFFFFFFFFFFFFFFFFFFFFFFFFFFFFFFFFFF AND DUP2 PUSH32 0x76ECD013710767654F52FB3745CFC70F66AD9C02FDCD90881E4F1C5E7C9B153E PUSH1 0x40 MLOAD PUSH1 0x40 MLOAD DUP1 SWAP2 SUB SWAP1 LOG3 POP JUMP JUMPDEST PUSH1 0x2 PUSH1 0x20 MSTORE DUP1 PUSH0 MSTORE PUSH1 0x40 PUSH0 KECCAK256 PUSH0 SWAP2 POP SWAP1 POP DUP1 PUSH0 ADD SLOAD SWAP1 DUP1 PUSH1 0x1 ADD PUSH0 SWAP1 SLOAD SWAP1 PUSH2 0x100 EXP SWAP1 DIV PUSH1 0xFF AND SWAP1 DUP1 PUSH1 0x2 ADD DUP1 SLOAD PUSH2 0x2E8 SWAP1 PUSH2 0x10F6 JUMP JUMPDEST DUP1 PUSH1 0x1F ADD PUSH1 0x20 DUP1 SWAP2 DIV MUL PUSH1 0x20 ADD PUSH1 0x40 MLOAD SWAP1 DUP2 ADD PUSH1 0x40 MSTORE DUP1 SWAP3 SWAP2 SWAP1 DUP2 DUP2 MSTORE PUSH1 0x20 ADD DUP3 DUP1 SLOAD PUSH2 0x314 SWAP1 PUSH2 0x10F6 JUMP JUMPDEST DUP1 ISZERO PUSH2 0x35F JUMPI DUP1 PUSH1 0x1F LT PUSH2 0x336 JUMPI PUSH2 0x100 DUP1 DUP4 SLOAD DIV MUL DUP4 MSTORE SWAP2 PUSH1 0x20 ADD SWAP2 PUSH2 0x35F JUMP JUMPDEST DUP3 ADD SWAP2 SWAP1 PUSH0 MSTORE PUSH1 0x20 PUSH0 KECCAK256 SWAP1 JUMPDEST DUP2 SLOAD DUP2 MSTORE SWAP1 PUSH1 0x1 ADD SWAP1 PUSH1 0x20 ADD DUP1 DUP4 GT PUSH2 0x342 JUMPI DUP3 SWAP1 SUB PUSH1 0x1F AND DUP3 ADD SWAP2 JUMPDEST POP POP POP POP POP SWAP1 DUP1 PUSH1 0x3 ADD PUSH0 SWAP1 SLOAD SWAP1 PUSH2 0x100 EXP SWAP1 DIV PUSH20 0xFFFFFFFFFFFFFFFFFFFFFFFFFFFFFFFFFFFFFFFF AND SWAP1 DUP1 PUSH1 0x5 ADD PUSH0 SWAP1 SLOAD SWAP1 PUSH2 0x100 EXP SWAP1 DIV PUSH1 0xFF AND SWAP1 POP DUP6 JUMP JUMPDEST PUSH0 DUP1 PUSH1 0x60 PUSH0 DUP1 PUSH0 PUSH1 0x2 PUSH0 DUP9 DUP2 MSTORE PUSH1 0x20 ADD SWAP1 DUP2 MSTORE PUSH1 0x20 ADD PUSH0 KECCAK256 SWAP1 POP DUP6 DUP2 PUSH1 0x1 ADD PUSH0 SWAP1 SLOAD SWAP1 PUSH2 0x100 EXP SWAP1 DIV PUSH1 0xFF AND DUP3 PUSH1 0x2 ADD DUP4 PUSH1 0x3 ADD PUSH0 SWAP1 SLOAD SWAP1 PUSH2 0x100 EXP SWAP1 DIV PUSH20 0xFFFFFFFFFFFFFFFFFFFFFFFFFFFFFFFFFFFFFFFF AND DUP5 PUSH1 0x5 ADD PUSH0 SWAP1 SLOAD SWAP1 PUSH2 0x100 EXP SWAP1 DIV PUSH1 0xFF AND DUP3 DUP1 SLOAD PUSH2 0x411 SWAP1 PUSH2 0x10F6 JUMP JUMPDEST DUP1 PUSH1 0x1F ADD PUSH1 0x20 DUP1 SWAP2 DIV MUL PUSH1 0x20 ADD PUSH1 0x40 MLOAD SWAP1 DUP2 ADD PUSH1 0x40 MSTORE DUP1 SWAP3 SWAP2 SWAP1 DUP2 DUP2 MSTORE PUSH1 0x20 ADD DUP3 DUP1 SLOAD PUSH2 0x43D SWAP1 PUSH2 0x10F6 JUMP JUMPDEST DUP1 ISZERO PUSH2 0x488 JUMPI DUP1 PUSH1 0x1F LT PUSH2 0x45F JUMPI PUSH2 0x100 DUP1 DUP4 SLOAD DIV MUL DUP4 MSTORE SWAP2 PUSH1 0x20 ADD SWAP2 PUSH2 0x488 JUMP JUMPDEST DUP3 ADD SWAP2 SWAP1 PUSH0 MSTORE PUSH1 0x20 PUSH0 KECCAK256 SWAP1 JUMPDEST DUP2 SLOAD DUP2 MSTORE SWAP1 PUSH1 0x1 ADD SWAP1 PUSH1 0x20 ADD DUP1 DUP4 GT PUSH2 0x46B JUMPI DUP3 SWAP1 SUB PUSH1 0x1F AND DUP3 ADD SWAP2 JUMPDEST POP POP POP POP POP SWAP3 POP SWAP6 POP SWAP6 POP SWAP6 POP SWAP6 POP SWAP6 POP POP SWAP2 SWAP4 SWAP6 SWAP1 SWAP3 SWAP5 POP JUMP JUMPDEST DUP2 PUSH1 0x2 PUSH0 DUP3 DUP2 MSTORE PUSH1 0x20 ADD SWAP1 DUP2 MSTORE PUSH1 0x20 ADD PUSH0 KECCAK256 PUSH1 0x3 ADD PUSH0 SWAP1 SLOAD SWAP1 PUSH2 0x100 EXP SWAP1 DIV PUSH20 0xFFFFFFFFFFFFFFFFFFFFFFFFFFFFFFFFFFFFFFFF AND PUSH20 0xFFFFFFFFFFFFFFFFFFFFFFFFFFFFFFFFFFFFFFFF AND CALLER PUSH20 0xFFFFFFFFFFFFFFFFFFFFFFFFFFFFFFFFFFFFFFFF AND EQ PUSH2 0x545 JUMPI PUSH1 0x40 MLOAD PUSH32 0x8C379A000000000000000000000000000000000000000000000000000000000 DUP2 MSTORE PUSH1 0x4 ADD PUSH2 0x53C SWAP1 PUSH2 0x1170 JUMP JUMPDEST PUSH1 0x40 MLOAD DUP1 SWAP2 SUB SWAP1 REVERT JUMPDEST PUSH0 PUSH20 0xFFFFFFFFFFFFFFFFFFFFFFFFFFFFFFFFFFFFFFFF AND DUP3 PUSH20 0xFFFFFFFFFFFFFFFFFFFFFFFFFFFFFFFFFFFFFFFF AND SUB PUSH2 0x5B3 JUMPI PUSH1 0x40 MLOAD PUSH32 0x8C379A000000000000000000000000000000000000000000000000000000000 DUP2 MSTORE PUSH1 0x4 ADD PUSH2 0x5AA SWAP1 PUSH2 0x11D8 JUMP JUMPDEST PUSH1 0x40 MLOAD DUP1 SWAP2 SUB SWAP1 REVERT JUMPDEST PUSH1 0x2 PUSH0 DUP5 DUP2 MSTORE PUSH1 0x20 ADD SWAP1 DUP2 MSTORE PUSH1 0x20 ADD PUSH0 KECCAK256 PUSH1 0x4 ADD DUP3 SWAP1 DUP1 PUSH1 0x1 DUP2 SLOAD ADD DUP1 DUP3 SSTORE DUP1 SWAP2 POP POP PUSH1 0x1 SWAP1 SUB SWAP1 PUSH0 MSTORE PUSH1 0x20 PUSH0 KECCAK256 ADD PUSH0 SWAP1 SWAP2 SWAP1 SWAP2 SWAP1 SWAP2 PUSH2 0x100 EXP DUP2 SLOAD DUP2 PUSH20 0xFFFFFFFFFFFFFFFFFFFFFFFFFFFFFFFFFFFFFFFF MUL NOT AND SWAP1 DUP4 PUSH20 0xFFFFFFFFFFFFFFFFFFFFFFFFFFFFFFFFFFFFFFFF AND MUL OR SWAP1 SSTORE POP PUSH0 PUSH1 0x2 PUSH0 DUP6 DUP2 MSTORE PUSH1 0x20 ADD SWAP1 DUP2 MSTORE PUSH1 0x20 ADD PUSH0 KECCAK256 PUSH1 0x3 ADD PUSH0 SWAP1 SLOAD SWAP1 PUSH2 0x100 EXP SWAP1 DIV PUSH20 0xFFFFFFFFFFFFFFFFFFFFFFFFFFFFFFFFFFFFFFFF AND SWAP1 POP DUP3 PUSH1 0x2 PUSH0 DUP7 DUP2 MSTORE PUSH1 0x20 ADD SWAP1 DUP2 MSTORE PUSH1 0x20 ADD PUSH0 KECCAK256 PUSH1 0x3 ADD PUSH0 PUSH2 0x100 EXP DUP2 SLOAD DUP2 PUSH20 0xFFFFFFFFFFFFFFFFFFFFFFFFFFFFFFFFFFFFFFFF MUL NOT AND SWAP1 DUP4 PUSH20 0xFFFFFFFFFFFFFFFFFFFFFFFFFFFFFFFFFFFFFFFF AND MUL OR SWAP1 SSTORE POP DUP3 PUSH20 0xFFFFFFFFFFFFFFFFFFFFFFFFFFFFFFFFFFFFFFFF AND DUP2 PUSH20 0xFFFFFFFFFFFFFFFFFFFFFFFFFFFFFFFFFFFFFFFF AND DUP6 PUSH32 0x16B85F49BF01212961345D3016C9A531894ACCF62EB7680F2045D79185CC0EC0 PUSH1 0x40 MLOAD PUSH1 0x40 MLOAD DUP1 SWAP2 SUB SWAP1 LOG4 POP POP POP POP JUMP JUMPDEST PUSH1 0x1 SLOAD DUP2 JUMP JUMPDEST PUSH0 DUP1 SLOAD SWAP1 PUSH2 0x100 EXP SWAP1 DIV PUSH20 0xFFFFFFFFFFFFFFFFFFFFFFFFFFFFFFFFFFFFFFFF AND DUP2 JUMP JUMPDEST PUSH1 0x60 PUSH1 0x2 PUSH0 DUP4 DUP2 MSTORE PUSH1 0x20 ADD SWAP1 DUP2 MSTORE PUSH1 0x20 ADD PUSH0 KECCAK256 PUSH1 0x4 ADD DUP1 SLOAD DUP1 PUSH1 0x20 MUL PUSH1 0x20 ADD PUSH1 0x40 MLOAD SWAP1 DUP2 ADD PUSH1 0x40 MSTORE DUP1 SWAP3 SWAP2 SWAP1 DUP2 DUP2 MSTORE PUSH1 0x20 ADD DUP3 DUP1 SLOAD DUP1 ISZERO PUSH2 0x7CB JUMPI PUSH1 0x20 MUL DUP3 ADD SWAP2 SWAP1 PUSH0 MSTORE PUSH1 0x20 PUSH0 KECCAK256 SWAP1 JUMPDEST DUP2 PUSH0 SWAP1 SLOAD SWAP1 PUSH2 0x100 EXP SWAP1 DIV PUSH20 0xFFFFFFFFFFFFFFFFFFFFFFFFFFFFFFFFFFFFFFFF AND PUSH20 0xFFFFFFFFFFFFFFFFFFFFFFFFFFFFFFFFFFFFFFFF AND DUP2 MSTORE PUSH1 0x20 ADD SWAP1 PUSH1 0x1 ADD SWAP1 DUP1 DUP4 GT PUSH2 0x782 JUMPI JUMPDEST POP POP POP POP POP SWAP1 POP SWAP2 SWAP1 POP JUMP JUMPDEST PUSH1 0x2 DUP1 DUP2 GT ISZERO PUSH2 0x7EA JUMPI PUSH2 0x7E9 PUSH2 0xBA0 JUMP JUMPDEST JUMPDEST PUSH1 0xFF AND DUP3 PUSH1 0xFF AND GT ISZERO PUSH2 0x832 JUMPI PUSH1 0x40 MLOAD PUSH32 0x8C379A000000000000000000000000000000000000000000000000000000000 DUP2 MSTORE PUSH1 0x4 ADD PUSH2 0x829 SWAP1 PUSH2 0x1240 JUMP JUMPDEST PUSH1 0x40 MLOAD DUP1 SWAP2 SUB SWAP1 REVERT JUMPDEST PUSH1 0x1 PUSH0 DUP2 SLOAD PUSH2 0x840 SWAP1 PUSH2 0x128B JUMP JUMPDEST SWAP2 SWAP1 POP DUP2 SWAP1 SSTORE POP PUSH0 PUSH1 0x1 PUSH8 0xFFFFFFFFFFFFFFFF DUP2 GT ISZERO PUSH2 0x863 JUMPI PUSH2 0x862 PUSH2 0xEE3 JUMP JUMPDEST JUMPDEST PUSH1 0x40 MLOAD SWAP1 DUP1 DUP3 MSTORE DUP1 PUSH1 0x20 MUL PUSH1 0x20 ADD DUP3 ADD PUSH1 0x40 MSTORE DUP1 ISZERO PUSH2 0x891 JUMPI DUP2 PUSH1 0x20 ADD PUSH1 0x20 DUP3 MUL DUP1 CALLDATASIZE DUP4 CALLDATACOPY DUP1 DUP3 ADD SWAP2 POP POP SWAP1 POP JUMPDEST POP SWAP1 POP CALLER DUP2 PUSH0 DUP2 MLOAD DUP2 LT PUSH2 0x8A8 JUMPI PUSH2 0x8A7 PUSH2 0x12D2 JUMP JUMPDEST JUMPDEST PUSH1 0x20 MUL PUSH1 0x20 ADD ADD SWAP1 PUSH20 0xFFFFFFFFFFFFFFFFFFFFFFFFFFFFFFFFFFFFFFFF AND SWAP1 DUP2 PUSH20 0xFFFFFFFFFFFFFFFFFFFFFFFFFFFFFFFFFFFFFFFF AND DUP2 MSTORE POP POP PUSH1 0x40 MLOAD DUP1 PUSH1 0xC0 ADD PUSH1 0x40 MSTORE DUP1 PUSH1 0x1 SLOAD DUP2 MSTORE PUSH1 0x20 ADD DUP5 PUSH1 0xFF AND PUSH1 0x2 DUP2 GT ISZERO PUSH2 0x90B JUMPI PUSH2 0x90A PUSH2 0xBA0 JUMP JUMPDEST JUMPDEST PUSH1 0x2 DUP2 GT ISZERO PUSH2 0x91D JUMPI PUSH2 0x91C PUSH2 0xBA0 JUMP JUMPDEST JUMPDEST DUP2 MSTORE PUSH1 0x20 ADD DUP4 DUP2 MSTORE PUSH1 0x20 ADD CALLER PUSH20 0xFFFFFFFFFFFFFFFFFFFFFFFFFFFFFFFFFFFFFFFF AND DUP2 MSTORE PUSH1 0x20 ADD DUP3 DUP2 MSTORE PUSH1 0x20 ADD PUSH0 ISZERO ISZERO DUP2 MSTORE POP PUSH1 0x2 PUSH0 PUSH1 0x1 SLOAD DUP2 MSTORE PUSH1 0x20 ADD SWAP1 DUP2 MSTORE PUSH1 0x20 ADD PUSH0 KECCAK256 PUSH0 DUP3 ADD MLOAD DUP2 PUSH0 ADD SSTORE PUSH1 0x20 DUP3 ADD MLOAD DUP2 PUSH1 0x1 ADD PUSH0 PUSH2 0x100 EXP DUP2 SLOAD DUP2 PUSH1 0xFF MUL NOT AND SWAP1 DUP4 PUSH1 0x2 DUP2 GT ISZERO PUSH2 0x995 JUMPI PUSH2 0x994 PUSH2 0xBA0 JUMP JUMPDEST JUMPDEST MUL OR SWAP1 SSTORE POP PUSH1 0x40 DUP3 ADD MLOAD DUP2 PUSH1 0x2 ADD SWAP1 DUP2 PUSH2 0x9AF SWAP2 SWAP1 PUSH2 0x149C JUMP JUMPDEST POP PUSH1 0x60 DUP3 ADD MLOAD DUP2 PUSH1 0x3 ADD PUSH0 PUSH2 0x100 EXP DUP2 SLOAD DUP2 PUSH20 0xFFFFFFFFFFFFFFFFFFFFFFFFFFFFFFFFFFFFFFFF MUL NOT AND SWAP1 DUP4 PUSH20 0xFFFFFFFFFFFFFFFFFFFFFFFFFFFFFFFFFFFFFFFF AND MUL OR SWAP1 SSTORE POP PUSH1 0x80 DUP3 ADD MLOAD DUP2 PUSH1 0x4 ADD SWAP1 DUP1 MLOAD SWAP1 PUSH1 0x20 ADD SWAP1 PUSH2 0xA12 SWAP3 SWAP2 SWAP1 PUSH2 0xA80 JUMP JUMPDEST POP PUSH1 0xA0 DUP3 ADD MLOAD DUP2 PUSH1 0x5 ADD PUSH0 PUSH2 0x100 EXP DUP2 SLOAD DUP2 PUSH1 0xFF MUL NOT AND SWAP1 DUP4 ISZERO ISZERO MUL OR SWAP1 SSTORE POP SWAP1 POP POP CALLER PUSH20 0xFFFFFFFFFFFFFFFFFFFFFFFFFFFFFFFFFFFFFFFF AND PUSH1 0x1 SLOAD PUSH32 0x648163406997920C887EF548F40C15AE4A381833EA1A354567A97403D74B3BEE PUSH1 0x40 MLOAD PUSH1 0x40 MLOAD DUP1 SWAP2 SUB SWAP1 LOG3 POP POP POP JUMP JUMPDEST DUP3 DUP1 SLOAD DUP3 DUP3 SSTORE SWAP1 PUSH0 MSTORE PUSH1 0x20 PUSH0 KECCAK256 SWAP1 DUP2 ADD SWAP3 DUP3 ISZERO PUSH2 0xAF6 JUMPI SWAP2 PUSH1 0x20 MUL DUP3 ADD JUMPDEST DUP3 DUP2 GT ISZERO PUSH2 0xAF5 JUMPI DUP3 MLOAD DUP3 PUSH0 PUSH2 0x100 EXP DUP2 SLOAD DUP2 PUSH20 0xFFFFFFFFFFFFFFFFFFFFFFFFFFFFFFFFFFFFFFFF MUL NOT AND SWAP1 DUP4 PUSH20 0xFFFFFFFFFFFFFFFFFFFFFFFFFFFFFFFFFFFFFFFF AND MUL OR SWAP1 SSTORE POP SWAP2 PUSH1 0x20 ADD SWAP2 SWAP1 PUSH1 0x1 ADD SWAP1 PUSH2 0xA9E JUMP JUMPDEST JUMPDEST POP SWAP1 POP PUSH2 0xB03 SWAP2 SWAP1 PUSH2 0xB07 JUMP JUMPDEST POP SWAP1 JUMP JUMPDEST JUMPDEST DUP1 DUP3 GT ISZERO PUSH2 0xB1E JUMPI PUSH0 DUP2 PUSH0 SWAP1 SSTORE POP PUSH1 0x1 ADD PUSH2 0xB08 JUMP JUMPDEST POP SWAP1 JUMP JUMPDEST PUSH0 PUSH1 0x40 MLOAD SWAP1 POP SWAP1 JUMP JUMPDEST PUSH0 DUP1 REVERT JUMPDEST PUSH0 DUP1 REVERT JUMPDEST PUSH0 DUP2 SWAP1 POP SWAP2 SWAP1 POP JUMP JUMPDEST PUSH2 0xB45 DUP2 PUSH2 0xB33 JUMP JUMPDEST DUP2 EQ PUSH2 0xB4F JUMPI PUSH0 DUP1 REVERT JUMPDEST POP JUMP JUMPDEST PUSH0 DUP2 CALLDATALOAD SWAP1 POP PUSH2 0xB60 DUP2 PUSH2 0xB3C JUMP JUMPDEST SWAP3 SWAP2 POP POP JUMP JUMPDEST PUSH0 PUSH1 0x20 DUP3 DUP5 SUB SLT ISZERO PUSH2 0xB7B JUMPI PUSH2 0xB7A PUSH2 0xB2B JUMP JUMPDEST JUMPDEST PUSH0 PUSH2 0xB88 DUP5 DUP3 DUP6 ADD PUSH2 0xB52 JUMP JUMPDEST SWAP2 POP POP SWAP3 SWAP2 POP POP JUMP JUMPDEST PUSH2 0xB9A DUP2 PUSH2 0xB33 JUMP JUMPDEST DUP3 MSTORE POP POP JUMP JUMPDEST PUSH32 0x4E487B7100000000000000000000000000000000000000000000000000000000 PUSH0 MSTORE PUSH1 0x21 PUSH1 0x4 MSTORE PUSH1 0x24 PUSH0 REVERT JUMPDEST PUSH1 0x3 DUP2 LT PUSH2 0xBDE JUMPI PUSH2 0xBDD PUSH2 0xBA0 JUMP JUMPDEST JUMPDEST POP JUMP JUMPDEST PUSH0 DUP2 SWAP1 POP PUSH2 0xBEE DUP3 PUSH2 0xBCD JUMP JUMPDEST SWAP2 SWAP1 POP JUMP JUMPDEST PUSH0 PUSH2 0xBFD DUP3 PUSH2 0xBE1 JUMP JUMPDEST SWAP1 POP SWAP2 SWAP1 POP JUMP JUMPDEST PUSH2 0xC0D DUP2 PUSH2 0xBF3 JUMP JUMPDEST DUP3 MSTORE POP POP JUMP JUMPDEST PUSH0 DUP2 MLOAD SWAP1 POP SWAP2 SWAP1 POP JUMP JUMPDEST PUSH0 DUP3 DUP3 MSTORE PUSH1 0x20 DUP3 ADD SWAP1 POP SWAP3 SWAP2 POP POP JUMP JUMPDEST DUP3 DUP2 DUP4 MCOPY PUSH0 DUP4 DUP4 ADD MSTORE POP POP POP JUMP JUMPDEST PUSH0 PUSH1 0x1F NOT PUSH1 0x1F DUP4 ADD AND SWAP1 POP SWAP2 SWAP1 POP JUMP JUMPDEST PUSH0 PUSH2 0xC55 DUP3 PUSH2 0xC13 JUMP JUMPDEST PUSH2 0xC5F DUP2 DUP6 PUSH2 0xC1D JUMP JUMPDEST SWAP4 POP PUSH2 0xC6F DUP2 DUP6 PUSH1 0x20 DUP7 ADD PUSH2 0xC2D JUMP JUMPDEST PUSH2 0xC78 DUP2 PUSH2 0xC3B JUMP JUMPDEST DUP5 ADD SWAP2 POP POP SWAP3 SWAP2 POP POP JUMP JUMPDEST PUSH0 PUSH20 0xFFFFFFFFFFFFFFFFFFFFFFFFFFFFFFFFFFFFFFFF DUP3 AND SWAP1 POP SWAP2 SWAP1 POP JUMP JUMPDEST PUSH0 PUSH2 0xCAC DUP3 PUSH2 0xC83 JUMP JUMPDEST SWAP1 POP SWAP2 SWAP1 POP JUMP JUMPDEST PUSH2 0xCBC DUP2 PUSH2 0xCA2 JUMP JUMPDEST DUP3 MSTORE POP POP JUMP JUMPDEST PUSH0 DUP2 ISZERO ISZERO SWAP1 POP SWAP2 SWAP1 POP JUMP JUMPDEST PUSH2 0xCD6 DUP2 PUSH2 0xCC2 JUMP JUMPDEST DUP3 MSTORE POP POP JUMP JUMPDEST PUSH0 PUSH1 0xA0 DUP3 ADD SWAP1 POP PUSH2 0xCEF PUSH0 DUP4 ADD DUP9 PUSH2 0xB91 JUMP JUMPDEST PUSH2 0xCFC PUSH1 0x20 DUP4 ADD DUP8 PUSH2 0xC04 JUMP JUMPDEST DUP2 DUP2 SUB PUSH1 0x40 DUP4 ADD MSTORE PUSH2 0xD0E DUP2 DUP7 PUSH2 0xC4B JUMP JUMPDEST SWAP1 POP PUSH2 0xD1D PUSH1 0x60 DUP4 ADD DUP6 PUSH2 0xCB3 JUMP JUMPDEST PUSH2 0xD2A PUSH1 0x80 DUP4 ADD DUP5 PUSH2 0xCCD JUMP JUMPDEST SWAP7 SWAP6 POP POP POP POP POP POP JUMP JUMPDEST PUSH2 0xD3D DUP2 PUSH2 0xCA2 JUMP JUMPDEST DUP2 EQ PUSH2 0xD47 JUMPI PUSH0 DUP1 REVERT JUMPDEST POP JUMP JUMPDEST PUSH0 DUP2 CALLDATALOAD SWAP1 POP PUSH2 0xD58 DUP2 PUSH2 0xD34 JUMP JUMPDEST SWAP3 SWAP2 POP POP JUMP JUMPDEST PUSH0 DUP1 PUSH1 0x40 DUP4 DUP6 SUB SLT ISZERO PUSH2 0xD74 JUMPI PUSH2 0xD73 PUSH2 0xB2B JUMP JUMPDEST JUMPDEST PUSH0 PUSH2 0xD81 DUP6 DUP3 DUP7 ADD PUSH2 0xB52 JUMP JUMPDEST SWAP3 POP POP PUSH1 0x20 PUSH2 0xD92 DUP6 DUP3 DUP7 ADD PUSH2 0xD4A JUMP JUMPDEST SWAP2 POP POP SWAP3 POP SWAP3 SWAP1 POP JUMP JUMPDEST PUSH0 PUSH1 0x20 DUP3 ADD SWAP1 POP PUSH2 0xDAF PUSH0 DUP4 ADD DUP5 PUSH2 0xB91 JUMP JUMPDEST SWAP3 SWAP2 POP POP JUMP JUMPDEST PUSH0 PUSH1 0x20 DUP3 ADD SWAP1 POP PUSH2 0xDC8 PUSH0 DUP4 ADD DUP5 PUSH2 0xCB3 JUMP JUMPDEST SWAP3 SWAP2 POP POP JUMP JUMPDEST PUSH0 DUP2 MLOAD SWAP1 POP SWAP2 SWAP1 POP JUMP JUMPDEST PUSH0 DUP3 DUP3 MSTORE PUSH1 0x20 DUP3 ADD SWAP1 POP SWAP3 SWAP2 POP POP JUMP JUMPDEST PUSH0 DUP2 SWAP1 POP PUSH1 0x20 DUP3 ADD SWAP1 POP SWAP2 SWAP1 POP JUMP JUMPDEST PUSH2 0xE00 DUP2 PUSH2 0xCA2 JUMP JUMPDEST DUP3 MSTORE POP POP JUMP JUMPDEST PUSH0 PUSH2 0xE11 DUP4 DUP4 PUSH2 0xDF7 JUMP JUMPDEST PUSH1 0x20 DUP4 ADD SWAP1 POP SWAP3 SWAP2 POP POP JUMP JUMPDEST PUSH0 PUSH1 0x20 DUP3 ADD SWAP1 POP SWAP2 SWAP1 POP JUMP JUMPDEST PUSH0 PUSH2 0xE33 DUP3 PUSH2 0xDCE JUMP JUMPDEST PUSH2 0xE3D DUP2 DUP6 PUSH2 0xDD8 JUMP JUMPDEST SWAP4 POP PUSH2 0xE48 DUP4 PUSH2 0xDE8 JUMP JUMPDEST DUP1 PUSH0 JUMPDEST DUP4 DUP2 LT ISZERO PUSH2 0xE78 JUMPI DUP2 MLOAD PUSH2 0xE5F DUP9 DUP3 PUSH2 0xE06 JUMP JUMPDEST SWAP8 POP PUSH2 0xE6A DUP4 PUSH2 0xE1D JUMP JUMPDEST SWAP3 POP POP PUSH1 0x1 DUP2 ADD SWAP1 POP PUSH2 0xE4B JUMP JUMPDEST POP DUP6 SWAP4 POP POP POP POP SWAP3 SWAP2 POP POP JUMP JUMPDEST PUSH0 PUSH1 0x20 DUP3 ADD SWAP1 POP DUP2 DUP2 SUB PUSH0 DUP4 ADD MSTORE PUSH2 0xE9D DUP2 DUP5 PUSH2 0xE29 JUMP JUMPDEST SWAP1 POP SWAP3 SWAP2 POP POP JUMP JUMPDEST PUSH0 PUSH1 0xFF DUP3 AND SWAP1 POP SWAP2 SWAP1 POP JUMP JUMPDEST PUSH2 0xEBA DUP2 PUSH2 0xEA5 JUMP JUMPDEST DUP2 EQ PUSH2 0xEC4 JUMPI PUSH0 DUP1 REVERT JUMPDEST POP JUMP JUMPDEST PUSH0 DUP2 CALLDATALOAD SWAP1 POP PUSH2 0xED5 DUP2 PUSH2 0xEB1 JUMP JUMPDEST SWAP3 SWAP2 POP POP JUMP JUMPDEST PUSH0 DUP1 REVERT JUMPDEST PUSH0 DUP1 REVERT JUMPDEST PUSH32 0x4E487B7100000000000000000000000000000000000000000000000000000000 PUSH0 MSTORE PUSH1 0x41 PUSH1 0x4 MSTORE PUSH1 0x24 PUSH0 REVERT JUMPDEST PUSH2 0xF19 DUP3 PUSH2 0xC3B JUMP JUMPDEST DUP2 ADD DUP2 DUP2 LT PUSH8 0xFFFFFFFFFFFFFFFF DUP3 GT OR ISZERO PUSH2 0xF38 JUMPI PUSH2 0xF37 PUSH2 0xEE3 JUMP JUMPDEST JUMPDEST DUP1 PUSH1 0x40 MSTORE POP POP POP JUMP JUMPDEST PUSH0 PUSH2 0xF4A PUSH2 0xB22 JUMP JUMPDEST SWAP1 POP PUSH2 0xF56 DUP3 DUP3 PUSH2 0xF10 JUMP JUMPDEST SWAP2 SWAP1 POP JUMP JUMPDEST PUSH0 PUSH8 0xFFFFFFFFFFFFFFFF DUP3 GT ISZERO PUSH2 0xF75 JUMPI PUSH2 0xF74 PUSH2 0xEE3 JUMP JUMPDEST JUMPDEST PUSH2 0xF7E DUP3 PUSH2 0xC3B JUMP JUMPDEST SWAP1 POP PUSH1 0x20 DUP2 ADD SWAP1 POP SWAP2 SWAP1 POP JUMP JUMPDEST DUP3 DUP2 DUP4 CALLDATACOPY PUSH0 DUP4 DUP4 ADD MSTORE POP POP POP JUMP JUMPDEST PUSH0 PUSH2 0xFAB PUSH2 0xFA6 DUP5 PUSH2 0xF5B JUMP JUMPDEST PUSH2 0xF41 JUMP JUMPDEST SWAP1 POP DUP3 DUP2 MSTORE PUSH1 0x20 DUP2 ADD DUP5 DUP5 DUP5 ADD GT ISZERO PUSH2 0xFC7 JUMPI PUSH2 0xFC6 PUSH2 0xEDF JUMP JUMPDEST JUMPDEST PUSH2 0xFD2 DUP5 DUP3 DUP6 PUSH2 0xF8B JUMP JUMPDEST POP SWAP4 SWAP3 POP POP POP JUMP JUMPDEST PUSH0 DUP3 PUSH1 0x1F DUP4 ADD SLT PUSH2 0xFEE JUMPI PUSH2 0xFED PUSH2 0xEDB JUMP JUMPDEST JUMPDEST DUP2 CALLDATALOAD PUSH2 0xFFE DUP5 DUP3 PUSH1 0x20 DUP7 ADD PUSH2 0xF99 JUMP JUMPDEST SWAP2 POP POP SWAP3 SWAP2 POP POP JUMP JUMPDEST PUSH0 DUP1 PUSH1 0x40 DUP4 DUP6 SUB SLT ISZERO PUSH2 0x101D JUMPI PUSH2 0x101C PUSH2 0xB2B JUMP JUMPDEST JUMPDEST PUSH0 PUSH2 0x102A DUP6 DUP3 DUP7 ADD PUSH2 0xEC7 JUMP JUMPDEST SWAP3 POP POP PUSH1 0x20 DUP4 ADD CALLDATALOAD PUSH8 0xFFFFFFFFFFFFFFFF DUP2 GT ISZERO PUSH2 0x104B JUMPI PUSH2 0x104A PUSH2 0xB2F JUMP JUMPDEST JUMPDEST PUSH2 0x1057 DUP6 DUP3 DUP7 ADD PUSH2 0xFDA JUMP JUMPDEST SWAP2 POP POP SWAP3 POP SWAP3 SWAP1 POP JUMP JUMPDEST PUSH32 0x4E6F7420617574686F72697A65642E0000000000000000000000000000000000 PUSH0 DUP3 ADD MSTORE POP JUMP JUMPDEST PUSH0 PUSH2 0x1095 PUSH1 0xF DUP4 PUSH2 0xC1D JUMP JUMPDEST SWAP2 POP PUSH2 0x10A0 DUP3 PUSH2 0x1061 JUMP JUMPDEST PUSH1 0x20 DUP3 ADD SWAP1 POP SWAP2 SWAP1 POP JUMP JUMPDEST PUSH0 PUSH1 0x20 DUP3 ADD SWAP1 POP DUP2 DUP2 SUB PUSH0 DUP4 ADD MSTORE PUSH2 0x10C2 DUP2 PUSH2 0x1089 JUMP JUMPDEST SWAP1 POP SWAP2 SWAP1 POP JUMP JUMPDEST PUSH32 0x4E487B7100000000000000000000000000000000000000000000000000000000 PUSH0 MSTORE PUSH1 0x22 PUSH1 0x4 MSTORE PUSH1 0x24 PUSH0 REVERT JUMPDEST PUSH0 PUSH1 0x2 DUP3 DIV SWAP1 POP PUSH1 0x1 DUP3 AND DUP1 PUSH2 0x110D JUMPI PUSH1 0x7F DUP3 AND SWAP2 POP JUMPDEST PUSH1 0x20 DUP3 LT DUP2 SUB PUSH2 0x1120 JUMPI PUSH2 0x111F PUSH2 0x10C9 JUMP JUMPDEST JUMPDEST POP SWAP2 SWAP1 POP JUMP JUMPDEST PUSH32 0x4E6F7420746865206F776E6572206F6620746869732049500000000000000000 PUSH0 DUP3 ADD MSTORE POP JUMP JUMPDEST PUSH0 PUSH2 0x115A PUSH1 0x18 DUP4 PUSH2 0xC1D JUMP JUMPDEST SWAP2 POP PUSH2 0x1165 DUP3 PUSH2 0x1126 JUMP JUMPDEST PUSH1 0x20 DUP3 ADD SWAP1 POP SWAP2 SWAP1 POP JUMP JUMPDEST PUSH0 PUSH1 0x20 DUP3 ADD SWAP1 POP DUP2 DUP2 SUB PUSH0 DUP4 ADD MSTORE PUSH2 0x1187 DUP2 PUSH2 0x114E JUMP JUMPDEST SWAP1 POP SWAP2 SWAP1 POP JUMP JUMPDEST PUSH32 0x496E76616C6964206E6577206F776E6572000000000000000000000000000000 PUSH0 DUP3 ADD MSTORE POP JUMP JUMPDEST PUSH0 PUSH2 0x11C2 PUSH1 0x11 DUP4 PUSH2 0xC1D JUMP JUMPDEST SWAP2 POP PUSH2 0x11CD DUP3 PUSH2 0x118E JUMP JUMPDEST PUSH1 0x20 DUP3 ADD SWAP1 POP SWAP2 SWAP1 POP JUMP JUMPDEST PUSH0 PUSH1 0x20 DUP3 ADD SWAP1 POP DUP2 DUP2 SUB PUSH0 DUP4 ADD MSTORE PUSH2 0x11EF DUP2 PUSH2 0x11B6 JUMP JUMPDEST SWAP1 POP SWAP2 SWAP1 POP JUMP JUMPDEST PUSH32 0x496E76616C696420495020547970650000000000000000000000000000000000 PUSH0 DUP3 ADD MSTORE POP JUMP JUMPDEST PUSH0 PUSH2 0x122A PUSH1 0xF DUP4 PUSH2 0xC1D JUMP JUMPDEST SWAP2 POP PUSH2 0x1235 DUP3 PUSH2 0x11F6 JUMP JUMPDEST PUSH1 0x20 DUP3 ADD SWAP1 POP SWAP2 SWAP1 POP JUMP JUMPDEST PUSH0 PUSH1 0x20 DUP3 ADD SWAP1 POP DUP2 DUP2 SUB PUSH0 DUP4 ADD MSTORE PUSH2 0x1257 DUP2 PUSH2 0x121E JUMP JUMPDEST SWAP1 POP SWAP2 SWAP1 POP JUMP JUMPDEST PUSH32 0x4E487B7100000000000000000000000000000000000000000000000000000000 PUSH0 MSTORE PUSH1 0x11 PUSH1 0x4 MSTORE PUSH1 0x24 PUSH0 REVERT JUMPDEST PUSH0 PUSH2 0x1295 DUP3 PUSH2 0xB33 JUMP JUMPDEST SWAP2 POP PUSH32 0xFFFFFFFFFFFFFFFFFFFFFFFFFFFFFFFFFFFFFFFFFFFFFFFFFFFFFFFFFFFFFFFF DUP3 SUB PUSH2 0x12C7 JUMPI PUSH2 0x12C6 PUSH2 0x125E JUMP JUMPDEST JUMPDEST PUSH1 0x1 DUP3 ADD SWAP1 POP SWAP2 SWAP1 POP JUMP JUMPDEST PUSH32 0x4E487B7100000000000000000000000000000000000000000000000000000000 PUSH0 MSTORE PUSH1 0x32 PUSH1 0x4 MSTORE PUSH1 0x24 PUSH0 REVERT JUMPDEST PUSH0 DUP2 SWAP1 POP DUP2 PUSH0 MSTORE PUSH1 0x20 PUSH0 KECCAK256 SWAP1 POP SWAP2 SWAP1 POP JUMP JUMPDEST PUSH0 PUSH1 0x20 PUSH1 0x1F DUP4 ADD DIV SWAP1 POP SWAP2 SWAP1 POP JUMP JUMPDEST PUSH0 DUP3 DUP3 SHL SWAP1 POP SWAP3 SWAP2 POP POP JUMP JUMPDEST PUSH0 PUSH1 0x8 DUP4 MUL PUSH2 0x135B PUSH32 0xFFFFFFFFFFFFFFFFFFFFFFFFFFFFFFFFFFFFFFFFFFFFFFFFFFFFFFFFFFFFFFFF DUP3 PUSH2 0x1320 JUMP JUMPDEST PUSH2 0x1365 DUP7 DUP4 PUSH2 0x1320 JUMP JUMPDEST SWAP6 POP DUP1 NOT DUP5 AND SWAP4 POP DUP1 DUP7 AND DUP5 OR SWAP3 POP POP POP SWAP4 SWAP3 POP POP POP JUMP JUMPDEST PUSH0 DUP2 SWAP1 POP SWAP2 SWAP1 POP JUMP JUMPDEST PUSH0 PUSH2 0x13A0 PUSH2 0x139B PUSH2 0x1396 DUP5 PUSH2 0xB33 JUMP JUMPDEST PUSH2 0x137D JUMP JUMPDEST PUSH2 0xB33 JUMP JUMPDEST SWAP1 POP SWAP2 SWAP1 POP JUMP JUMPDEST PUSH0 DUP2 SWAP1 POP SWAP2 SWAP1 POP JUMP JUMPDEST PUSH2 0x13B9 DUP4 PUSH2 0x1386 JUMP JUMPDEST PUSH2 0x13CD PUSH2 0x13C5 DUP3 PUSH2 0x13A7 JUMP JUMPDEST DUP5 DUP5 SLOAD PUSH2 0x132C JUMP JUMPDEST DUP3 SSTORE POP POP POP POP JUMP JUMPDEST PUSH0 SWAP1 JUMP JUMPDEST PUSH2 0x13E1 PUSH2 0x13D5 JUMP JUMPDEST PUSH2 0x13EC DUP2 DUP5 DUP5 PUSH2 0x13B0 JUMP JUMPDEST POP POP POP JUMP JUMPDEST JUMPDEST DUP2 DUP2 LT ISZERO PUSH2 0x140F JUMPI PUSH2 0x1404 PUSH0 DUP3 PUSH2 0x13D9 JUMP JUMPDEST PUSH1 0x1 DUP2 ADD SWAP1 POP PUSH2 0x13F2 JUMP JUMPDEST POP POP JUMP JUMPDEST PUSH1 0x1F DUP3 GT ISZERO PUSH2 0x1454 JUMPI PUSH2 0x1425 DUP2 PUSH2 0x12FF JUMP JUMPDEST PUSH2 0x142E DUP5 PUSH2 0x1311 JUMP JUMPDEST DUP2 ADD PUSH1 0x20 DUP6 LT ISZERO PUSH2 0x143D JUMPI DUP2 SWAP1 POP JUMPDEST PUSH2 0x1451 PUSH2 0x1449 DUP6 PUSH2 0x1311 JUMP JUMPDEST DUP4 ADD DUP3 PUSH2 0x13F1 JUMP JUMPDEST POP POP JUMPDEST POP POP POP JUMP JUMPDEST PUSH0 DUP3 DUP3 SHR SWAP1 POP SWAP3 SWAP2 POP POP JUMP JUMPDEST PUSH0 PUSH2 0x1474 PUSH0 NOT DUP5 PUSH1 0x8 MUL PUSH2 0x1459 JUMP JUMPDEST NOT DUP1 DUP4 AND SWAP2 POP POP SWAP3 SWAP2 POP POP JUMP JUMPDEST PUSH0 PUSH2 0x148C DUP4 DUP4 PUSH2 0x1465 JUMP JUMPDEST SWAP2 POP DUP3 PUSH1 0x2 MUL DUP3 OR SWAP1 POP SWAP3 SWAP2 POP POP JUMP JUMPDEST PUSH2 0x14A5 DUP3 PUSH2 0xC13 JUMP JUMPDEST PUSH8 0xFFFFFFFFFFFFFFFF DUP2 GT ISZERO PUSH2 0x14BE JUMPI PUSH2 0x14BD PUSH2 0xEE3 JUMP JUMPDEST JUMPDEST PUSH2 0x14C8 DUP3 SLOAD PUSH2 0x10F6 JUMP JUMPDEST PUSH2 0x14D3 DUP3 DUP3 DUP6 PUSH2 0x1413 JUMP JUMPDEST PUSH0 PUSH1 0x20 SWAP1 POP PUSH1 0x1F DUP4 GT PUSH1 0x1 DUP2 EQ PUSH2 0x1504 JUMPI PUSH0 DUP5 ISZERO PUSH2 0x14F2 JUMPI DUP3 DUP8 ADD MLOAD SWAP1 POP JUMPDEST PUSH2 0x14FC DUP6 DUP3 PUSH2 0x1481 JUMP JUMPDEST DUP7 SSTORE POP PUSH2 0x1563 JUMP JUMPDEST PUSH1 0x1F NOT DUP5 AND PUSH2 0x1512 DUP7 PUSH2 0x12FF JUMP JUMPDEST PUSH0 JUMPDEST DUP3 DUP2 LT ISZERO PUSH2 0x1539 JUMPI DUP5 DUP10 ADD MLOAD DUP3 SSTORE PUSH1 0x1 DUP3 ADD SWAP2 POP PUSH1 0x20 DUP6 ADD SWAP5 POP PUSH1 0x20 DUP2 ADD SWAP1 POP PUSH2 0x1514 JUMP JUMPDEST DUP7 DUP4 LT ISZERO PUSH2 0x1556 JUMPI DUP5 DUP10 ADD MLOAD PUSH2 0x1552 PUSH1 0x1F DUP10 AND DUP3 PUSH2 0x1465 JUMP JUMPDEST DUP4 SSTORE POP JUMPDEST PUSH1 0x1 PUSH1 0x2 DUP9 MUL ADD DUP9 SSTORE POP POP POP JUMPDEST POP POP POP POP POP POP JUMP INVALID LOG2 PUSH5 0x6970667358 0x22 SLT KECCAK256 PUSH5 0x5AF3D7703D KECCAK256 0xAD EXP ADD 0x2D TSTORE KECCAK256 0xDD DUP9 GASPRICE DUP7 DUP13 SWAP11 PUSH32 0x6D970D950EDF0D88ADCA1A0264736F6C634300081A0033000000000000000000 "
				},
				"gasEstimates": {
					"creation": {
						"codeDepositCost": "1107400",
						"executionCost": "30422",
						"totalCost": "1137822"
					},
					"external": {
						"contractOwner()": "2527",
						"getIPDetails(uint256)": "infinite",
						"getOwnershipHistory(uint256)": "infinite",
						"ipCounter()": "2425",
						"ipRecords(uint256)": "infinite",
						"registerIP(uint8,string)": "infinite",
						"transferOwnership(uint256,address)": "80135",
						"verifyIP(uint256)": "28454"
					}
				},
				"methodIdentifiers": {
					"contractOwner()": "ce606ee0",
					"getIPDetails(uint256)": "1feb4bfb",
					"getOwnershipHistory(uint256)": "f1dbaccb",
					"ipCounter()": "52cff879",
					"ipRecords(uint256)": "02c59bc6",
					"registerIP(uint8,string)": "fd9ed3a9",
					"transferOwnership(uint256,address)": "29507f73",
					"verifyIP(uint256)": "001e5c1c"
				}
			},
			"storageLayout": {
				"storage": [
					{
						"astId": 22,
						"contract": "contracts/logistics.sol:intellectualPropertyRegistry",
						"label": "contractOwner",
						"offset": 0,
						"slot": "0",
						"type": "t_address"
					},
					{
						"astId": 25,
						"contract": "contracts/logistics.sol:intellectualPropertyRegistry",
						"label": "ipCounter",
						"offset": 0,
						"slot": "1",
						"type": "t_uint256"
					},
					{
						"astId": 30,
						"contract": "contracts/logistics.sol:intellectualPropertyRegistry",
						"label": "ipRecords",
						"offset": 0,
						"slot": "2",
						"type": "t_mapping(t_uint256,t_struct(intellectualProperty)20_storage)"
					}
				],
				"types": {
					"t_address": {
						"encoding": "inplace",
						"label": "address",
						"numberOfBytes": "20"
					},
					"t_array(t_address)dyn_storage": {
						"base": "t_address",
						"encoding": "dynamic_array",
						"label": "address[]",
						"numberOfBytes": "32"
					},
					"t_bool": {
						"encoding": "inplace",
						"label": "bool",
						"numberOfBytes": "1"
					},
					"t_enum(IPType)5": {
						"encoding": "inplace",
						"label": "enum intellectualPropertyRegistry.IPType",
						"numberOfBytes": "1"
					},
					"t_mapping(t_uint256,t_struct(intellectualProperty)20_storage)": {
						"encoding": "mapping",
						"key": "t_uint256",
						"label": "mapping(uint256 => struct intellectualPropertyRegistry.intellectualProperty)",
						"numberOfBytes": "32",
						"value": "t_struct(intellectualProperty)20_storage"
					},
					"t_string_storage": {
						"encoding": "bytes",
						"label": "string",
						"numberOfBytes": "32"
					},
					"t_struct(intellectualProperty)20_storage": {
						"encoding": "inplace",
						"label": "struct intellectualPropertyRegistry.intellectualProperty",
						"members": [
							{
								"astId": 7,
								"contract": "contracts/logistics.sol:intellectualPropertyRegistry",
								"label": "id",
								"offset": 0,
								"slot": "0",
								"type": "t_uint256"
							},
							{
								"astId": 10,
								"contract": "contracts/logistics.sol:intellectualPropertyRegistry",
								"label": "ipType",
								"offset": 0,
								"slot": "1",
								"type": "t_enum(IPType)5"
							},
							{
								"astId": 12,
								"contract": "contracts/logistics.sol:intellectualPropertyRegistry",
								"label": "description",
								"offset": 0,
								"slot": "2",
								"type": "t_string_storage"
							},
							{
								"astId": 14,
								"contract": "contracts/logistics.sol:intellectualPropertyRegistry",
								"label": "currentOwner",
								"offset": 0,
								"slot": "3",
								"type": "t_address"
							},
							{
								"astId": 17,
								"contract": "contracts/logistics.sol:intellectualPropertyRegistry",
								"label": "ownershipHistory",
								"offset": 0,
								"slot": "4",
								"type": "t_array(t_address)dyn_storage"
							},
							{
								"astId": 19,
								"contract": "contracts/logistics.sol:intellectualPropertyRegistry",
								"label": "verified",
								"offset": 0,
								"slot": "5",
								"type": "t_bool"
							}
						],
						"numberOfBytes": "192"
					},
					"t_uint256": {
						"encoding": "inplace",
						"label": "uint256",
						"numberOfBytes": "32"
					}
				}
			},
			"userdoc": {
				"kind": "user",
				"methods": {},
				"version": 1
			}
		}
	}
}