{
	"data": {
		"bytecode": {
			"linkReferences": {},
			"object": "6080604052348015600e575f80fd5b506105cb8061001c5f395ff3fe608060405234801561000f575f80fd5b5060043610610034575f3560e01c8063967e6e6514610038578063b351371a14610056575b5f80fd5b610040610072565b60405161004d91906100cf565b60405180910390f35b610070600480360381019061006b919061025f565b610087565b005b5f60015f9054906101000a900460ff16905090565b815f908161009591906104c6565b508060015f6101000a81548160ff021916908360ff1602179055505050565b5f60ff82169050919050565b6100c9816100b4565b82525050565b5f6020820190506100e25f8301846100c0565b92915050565b5f604051905090565b5f80fd5b5f80fd5b5f80fd5b5f80fd5b5f601f19601f8301169050919050565b7f4e487b71000000000000000000000000000000000000000000000000000000005f52604160045260245ffd5b61014782610101565b810181811067ffffffffffffffff8211171561016657610165610111565b5b80604052505050565b5f6101786100e8565b9050610184828261013e565b919050565b5f67ffffffffffffffff8211156101a3576101a2610111565b5b6101ac82610101565b9050602081019050919050565b828183375f83830152505050565b5f6101d96101d484610189565b61016f565b9050828152602081018484840111156101f5576101f46100fd565b5b6102008482856101b9565b509392505050565b5f82601f83011261021c5761021b6100f9565b5b813561022c8482602086016101c7565b91505092915050565b61023e816100b4565b8114610248575f80fd5b50565b5f8135905061025981610235565b92915050565b5f8060408385031215610275576102746100f1565b5b5f83013567ffffffffffffffff811115610292576102916100f5565b5b61029e85828601610208565b92505060206102af8582860161024b565b9150509250929050565b5f81519050919050565b7f4e487b71000000000000000000000000000000000000000000000000000000005f52602260045260245ffd5b5f600282049050600182168061030757607f821691505b60208210810361031a576103196102c3565b5b50919050565b5f819050815f5260205f209050919050565b5f6020601f8301049050919050565b5f82821b905092915050565b5f6008830261037c7fffffffffffffffffffffffffffffffffffffffffffffffffffffffffffffffff82610341565b6103868683610341565b95508019841693508086168417925050509392505050565b5f819050919050565b5f819050919050565b5f6103ca6103c56103c08461039e565b6103a7565b61039e565b9050919050565b5f819050919050565b6103e3836103b0565b6103f76103ef826103d1565b84845461034d565b825550505050565b5f90565b61040b6103ff565b6104168184846103da565b505050565b5b818110156104395761042e5f82610403565b60018101905061041c565b5050565b601f82111561047e5761044f81610320565b61045884610332565b81016020851015610467578190505b61047b61047385610332565b83018261041b565b50505b505050565b5f82821c905092915050565b5f61049e5f1984600802610483565b1980831691505092915050565b5f6104b6838361048f565b9150826002028217905092915050565b6104cf826102b9565b67ffffffffffffffff8111156104e8576104e7610111565b5b6104f282546102f0565b6104fd82828561043d565b5f60209050601f83116001811461052e575f841561051c578287015190505b61052685826104ab565b86555061058d565b601f19841661053c86610320565b5f5b828110156105635784890151825560018201915060208501945060208101905061053e565b86831015610580578489015161057c601f89168261048f565b8355505b6001600288020188555050505b50505050505056fea26469706673582212205d4fde3cb80f4f3af0b20402be262856a82869f8c6201fa190030f75ea68bfe064736f6c634300081a0033",
			"opcodes": "PUSH1 0x80 PUSH1 0x40 MSTORE CALLVALUE DUP1 ISZERO PUSH1 0xE JUMPI PUSH0 DUP1 REVERT JUMPDEST POP PUSH2 0x5CB DUP1 PUSH2 0x1C PUSH0 CODECOPY PUSH0 RETURN INVALID PUSH1 0x80 PUSH1 0x40 MSTORE CALLVALUE DUP1 ISZERO PUSH2 0xF JUMPI PUSH0 DUP1 REVERT JUMPDEST POP PUSH1 0x4 CALLDATASIZE LT PUSH2 0x34 JUMPI PUSH0 CALLDATALOAD PUSH1 0xE0 SHR DUP1 PUSH4 0x967E6E65 EQ PUSH2 0x38 JUMPI DUP1 PUSH4 0xB351371A EQ PUSH2 0x56 JUMPI JUMPDEST PUSH0 DUP1 REVERT JUMPDEST PUSH2 0x40 PUSH2 0x72 JUMP JUMPDEST PUSH1 0x40 MLOAD PUSH2 0x4D SWAP2 SWAP1 PUSH2 0xCF JUMP JUMPDEST PUSH1 0x40 MLOAD DUP1 SWAP2 SUB SWAP1 RETURN JUMPDEST PUSH2 0x70 PUSH1 0x4 DUP1 CALLDATASIZE SUB DUP2 ADD SWAP1 PUSH2 0x6B SWAP2 SWAP1 PUSH2 0x25F JUMP JUMPDEST PUSH2 0x87 JUMP JUMPDEST STOP JUMPDEST PUSH0 PUSH1 0x1 PUSH0 SWAP1 SLOAD SWAP1 PUSH2 0x100 EXP SWAP1 DIV PUSH1 0xFF AND SWAP1 POP SWAP1 JUMP JUMPDEST DUP2 PUSH0 SWAP1 DUP2 PUSH2 0x95 SWAP2 SWAP1 PUSH2 0x4C6 JUMP JUMPDEST POP DUP1 PUSH1 0x1 PUSH0 PUSH2 0x100 EXP DUP2 SLOAD DUP2 PUSH1 0xFF MUL NOT AND SWAP1 DUP4 PUSH1 0xFF AND MUL OR SWAP1 SSTORE POP POP POP JUMP JUMPDEST PUSH0 PUSH1 0xFF DUP3 AND SWAP1 POP SWAP2 SWAP1 POP JUMP JUMPDEST PUSH2 0xC9 DUP2 PUSH2 0xB4 JUMP JUMPDEST DUP3 MSTORE POP POP JUMP JUMPDEST PUSH0 PUSH1 0x20 DUP3 ADD SWAP1 POP PUSH2 0xE2 PUSH0 DUP4 ADD DUP5 PUSH2 0xC0 JUMP JUMPDEST SWAP3 SWAP2 POP POP JUMP JUMPDEST PUSH0 PUSH1 0x40 MLOAD SWAP1 POP SWAP1 JUMP JUMPDEST PUSH0 DUP1 REVERT JUMPDEST PUSH0 DUP1 REVERT JUMPDEST PUSH0 DUP1 REVERT JUMPDEST PUSH0 DUP1 REVERT JUMPDEST PUSH0 PUSH1 0x1F NOT PUSH1 0x1F DUP4 ADD AND SWAP1 POP SWAP2 SWAP1 POP JUMP JUMPDEST PUSH32 0x4E487B7100000000000000000000000000000000000000000000000000000000 PUSH0 MSTORE PUSH1 0x41 PUSH1 0x4 MSTORE PUSH1 0x24 PUSH0 REVERT JUMPDEST PUSH2 0x147 DUP3 PUSH2 0x101 JUMP JUMPDEST DUP2 ADD DUP2 DUP2 LT PUSH8 0xFFFFFFFFFFFFFFFF DUP3 GT OR ISZERO PUSH2 0x166 JUMPI PUSH2 0x165 PUSH2 0x111 JUMP JUMPDEST JUMPDEST DUP1 PUSH1 0x40 MSTORE POP POP POP JUMP JUMPDEST PUSH0 PUSH2 0x178 PUSH2 0xE8 JUMP JUMPDEST SWAP1 POP PUSH2 0x184 DUP3 DUP3 PUSH2 0x13E JUMP JUMPDEST SWAP2 SWAP1 POP JUMP JUMPDEST PUSH0 PUSH8 0xFFFFFFFFFFFFFFFF DUP3 GT ISZERO PUSH2 0x1A3 JUMPI PUSH2 0x1A2 PUSH2 0x111 JUMP JUMPDEST JUMPDEST PUSH2 0x1AC DUP3 PUSH2 0x101 JUMP JUMPDEST SWAP1 POP PUSH1 0x20 DUP2 ADD SWAP1 POP SWAP2 SWAP1 POP JUMP JUMPDEST DUP3 DUP2 DUP4 CALLDATACOPY PUSH0 DUP4 DUP4 ADD MSTORE POP POP POP JUMP JUMPDEST PUSH0 PUSH2 0x1D9 PUSH2 0x1D4 DUP5 PUSH2 0x189 JUMP JUMPDEST PUSH2 0x16F JUMP JUMPDEST SWAP1 POP DUP3 DUP2 MSTORE PUSH1 0x20 DUP2 ADD DUP5 DUP5 DUP5 ADD GT ISZERO PUSH2 0x1F5 JUMPI PUSH2 0x1F4 PUSH2 0xFD JUMP JUMPDEST JUMPDEST PUSH2 0x200 DUP5 DUP3 DUP6 PUSH2 0x1B9 JUMP JUMPDEST POP SWAP4 SWAP3 POP POP POP JUMP JUMPDEST PUSH0 DUP3 PUSH1 0x1F DUP4 ADD SLT PUSH2 0x21C JUMPI PUSH2 0x21B PUSH2 0xF9 JUMP JUMPDEST JUMPDEST DUP2 CALLDATALOAD PUSH2 0x22C DUP5 DUP3 PUSH1 0x20 DUP7 ADD PUSH2 0x1C7 JUMP JUMPDEST SWAP2 POP POP SWAP3 SWAP2 POP POP JUMP JUMPDEST PUSH2 0x23E DUP2 PUSH2 0xB4 JUMP JUMPDEST DUP2 EQ PUSH2 0x248 JUMPI PUSH0 DUP1 REVERT JUMPDEST POP JUMP JUMPDEST PUSH0 DUP2 CALLDATALOAD SWAP1 POP PUSH2 0x259 DUP2 PUSH2 0x235 JUMP JUMPDEST SWAP3 SWAP2 POP POP JUMP JUMPDEST PUSH0 DUP1 PUSH1 0x40 DUP4 DUP6 SUB SLT ISZERO PUSH2 0x275 JUMPI PUSH2 0x274 PUSH2 0xF1 JUMP JUMPDEST JUMPDEST PUSH0 DUP4 ADD CALLDATALOAD PUSH8 0xFFFFFFFFFFFFFFFF DUP2 GT ISZERO PUSH2 0x292 JUMPI PUSH2 0x291 PUSH2 0xF5 JUMP JUMPDEST JUMPDEST PUSH2 0x29E DUP6 DUP3 DUP7 ADD PUSH2 0x208 JUMP JUMPDEST SWAP3 POP POP PUSH1 0x20 PUSH2 0x2AF DUP6 DUP3 DUP7 ADD PUSH2 0x24B JUMP JUMPDEST SWAP2 POP POP SWAP3 POP SWAP3 SWAP1 POP JUMP JUMPDEST PUSH0 DUP2 MLOAD SWAP1 POP SWAP2 SWAP1 POP JUMP JUMPDEST PUSH32 0x4E487B7100000000000000000000000000000000000000000000000000000000 PUSH0 MSTORE PUSH1 0x22 PUSH1 0x4 MSTORE PUSH1 0x24 PUSH0 REVERT JUMPDEST PUSH0 PUSH1 0x2 DUP3 DIV SWAP1 POP PUSH1 0x1 DUP3 AND DUP1 PUSH2 0x307 JUMPI PUSH1 0x7F DUP3 AND SWAP2 POP JUMPDEST PUSH1 0x20 DUP3 LT DUP2 SUB PUSH2 0x31A JUMPI PUSH2 0x319 PUSH2 0x2C3 JUMP JUMPDEST JUMPDEST POP SWAP2 SWAP1 POP JUMP JUMPDEST PUSH0 DUP2 SWAP1 POP DUP2 PUSH0 MSTORE PUSH1 0x20 PUSH0 KECCAK256 SWAP1 POP SWAP2 SWAP1 POP JUMP JUMPDEST PUSH0 PUSH1 0x20 PUSH1 0x1F DUP4 ADD DIV SWAP1 POP SWAP2 SWAP1 POP JUMP JUMPDEST PUSH0 DUP3 DUP3 SHL SWAP1 POP SWAP3 SWAP2 POP POP JUMP JUMPDEST PUSH0 PUSH1 0x8 DUP4 MUL PUSH2 0x37C PUSH32 0xFFFFFFFFFFFFFFFFFFFFFFFFFFFFFFFFFFFFFFFFFFFFFFFFFFFFFFFFFFFFFFFF DUP3 PUSH2 0x341 JUMP JUMPDEST PUSH2 0x386 DUP7 DUP4 PUSH2 0x341 JUMP JUMPDEST SWAP6 POP DUP1 NOT DUP5 AND SWAP4 POP DUP1 DUP7 AND DUP5 OR SWAP3 POP POP POP SWAP4 SWAP3 POP POP POP JUMP JUMPDEST PUSH0 DUP2 SWAP1 POP SWAP2 SWAP1 POP JUMP JUMPDEST PUSH0 DUP2 SWAP1 POP SWAP2 SWAP1 POP JUMP JUMPDEST PUSH0 PUSH2 0x3CA PUSH2 0x3C5 PUSH2 0x3C0 DUP5 PUSH2 0x39E JUMP JUMPDEST PUSH2 0x3A7 JUMP JUMPDEST PUSH2 0x39E JUMP JUMPDEST SWAP1 POP SWAP2 SWAP1 POP JUMP JUMPDEST PUSH0 DUP2 SWAP1 POP SWAP2 SWAP1 POP JUMP JUMPDEST PUSH2 0x3E3 DUP4 PUSH2 0x3B0 JUMP JUMPDEST PUSH2 0x3F7 PUSH2 0x3EF DUP3 PUSH2 0x3D1 JUMP JUMPDEST DUP5 DUP5 SLOAD PUSH2 0x34D JUMP JUMPDEST DUP3 SSTORE POP POP POP POP JUMP JUMPDEST PUSH0 SWAP1 JUMP JUMPDEST PUSH2 0x40B PUSH2 0x3FF JUMP JUMPDEST PUSH2 0x416 DUP2 DUP5 DUP5 PUSH2 0x3DA JUMP JUMPDEST POP POP POP JUMP JUMPDEST JUMPDEST DUP2 DUP2 LT ISZERO PUSH2 0x439 JUMPI PUSH2 0x42E PUSH0 DUP3 PUSH2 0x403 JUMP JUMPDEST PUSH1 0x1 DUP2 ADD SWAP1 POP PUSH2 0x41C JUMP JUMPDEST POP POP JUMP JUMPDEST PUSH1 0x1F DUP3 GT ISZERO PUSH2 0x47E JUMPI PUSH2 0x44F DUP2 PUSH2 0x320 JUMP JUMPDEST PUSH2 0x458 DUP5 PUSH2 0x332 JUMP JUMPDEST DUP2 ADD PUSH1 0x20 DUP6 LT ISZERO PUSH2 0x467 JUMPI DUP2 SWAP1 POP JUMPDEST PUSH2 0x47B PUSH2 0x473 DUP6 PUSH2 0x332 JUMP JUMPDEST DUP4 ADD DUP3 PUSH2 0x41B JUMP JUMPDEST POP POP JUMPDEST POP POP POP JUMP JUMPDEST PUSH0 DUP3 DUP3 SHR SWAP1 POP SWAP3 SWAP2 POP POP JUMP JUMPDEST PUSH0 PUSH2 0x49E PUSH0 NOT DUP5 PUSH1 0x8 MUL PUSH2 0x483 JUMP JUMPDEST NOT DUP1 DUP4 AND SWAP2 POP POP SWAP3 SWAP2 POP POP JUMP JUMPDEST PUSH0 PUSH2 0x4B6 DUP4 DUP4 PUSH2 0x48F JUMP JUMPDEST SWAP2 POP DUP3 PUSH1 0x2 MUL DUP3 OR SWAP1 POP SWAP3 SWAP2 POP POP JUMP JUMPDEST PUSH2 0x4CF DUP3 PUSH2 0x2B9 JUMP JUMPDEST PUSH8 0xFFFFFFFFFFFFFFFF DUP2 GT ISZERO PUSH2 0x4E8 JUMPI PUSH2 0x4E7 PUSH2 0x111 JUMP JUMPDEST JUMPDEST PUSH2 0x4F2 DUP3 SLOAD PUSH2 0x2F0 JUMP JUMPDEST PUSH2 0x4FD DUP3 DUP3 DUP6 PUSH2 0x43D JUMP JUMPDEST PUSH0 PUSH1 0x20 SWAP1 POP PUSH1 0x1F DUP4 GT PUSH1 0x1 DUP2 EQ PUSH2 0x52E JUMPI PUSH0 DUP5 ISZERO PUSH2 0x51C JUMPI DUP3 DUP8 ADD MLOAD SWAP1 POP JUMPDEST PUSH2 0x526 DUP6 DUP3 PUSH2 0x4AB JUMP JUMPDEST DUP7 SSTORE POP PUSH2 0x58D JUMP JUMPDEST PUSH1 0x1F NOT DUP5 AND PUSH2 0x53C DUP7 PUSH2 0x320 JUMP JUMPDEST PUSH0 JUMPDEST DUP3 DUP2 LT ISZERO PUSH2 0x563 JUMPI DUP5 DUP10 ADD MLOAD DUP3 SSTORE PUSH1 0x1 DUP3 ADD SWAP2 POP PUSH1 0x20 DUP6 ADD SWAP5 POP PUSH1 0x20 DUP2 ADD SWAP1 POP PUSH2 0x53E JUMP JUMPDEST DUP7 DUP4 LT ISZERO PUSH2 0x580 JUMPI DUP5 DUP10 ADD MLOAD PUSH2 0x57C PUSH1 0x1F DUP10 AND DUP3 PUSH2 0x48F JUMP JUMPDEST DUP4 SSTORE POP JUMPDEST PUSH1 0x1 PUSH1 0x2 DUP9 MUL ADD DUP9 SSTORE POP POP POP JUMPDEST POP POP POP POP POP POP JUMP INVALID LOG2 PUSH5 0x6970667358 0x22 SLT KECCAK256 TSTORE 0x4F 0xDE EXTCODECOPY 0xB8 0xF 0x4F GASPRICE CREATE 0xB2 DIV MUL 0xBE 0x26 0x28 JUMP 0xA8 0x28 PUSH10 0xF8C6201FA190030F75EA PUSH9 0xBFE064736F6C634300 ADDMOD BYTE STOP CALLER "
		},
		"gasEstimates": {
			"creation": {
				"codeDepositCost": "296600",
				"executionCost": "335",
				"totalCost": "296935"
			},
			"external": {
				"getAge()": "2451",
				"setAge(string,uint8)": "infinite"
			}
		},
		"methodIdentifiers": {
			"getAge()": "967e6e65",
			"setAge(string,uint8)": "b351371a"
		}
	},
	"abi": [
		{
			"inputs": [],
			"name": "getAge",
			"outputs": [
				{
					"internalType": "uint8",
					"name": "",
					"type": "uint8"
				}
			],
			"stateMutability": "view",
			"type": "function"
		},
		{
			"inputs": [
				{
					"internalType": "string",
					"name": "_name",
					"type": "string"
				},
				{
					"internalType": "uint8",
					"name": "_age",
					"type": "uint8"
				}
			],
			"name": "setAge",
			"outputs": [],
			"stateMutability": "nonpayable",
			"type": "function"
		}
	]
}